{
    "_format": "hh-sol-artifact-1",
    "contractName": "Registry",
    "sourceName": "contracts/Registry.sol",
    "abi": [
        {
            "inputs": [],
            "stateMutability": "nonpayable",
            "type": "constructor"
        },
        {
            "anonymous": false,
            "inputs": [
                {
                    "indexed": true,
                    "internalType": "address",
                    "name": "previousOwner",
                    "type": "address"
                },
                {
                    "indexed": true,
                    "internalType": "address",
                    "name": "newOwner",
                    "type": "address"
                }
            ],
            "name": "OwnershipTransferred",
            "type": "event"
        },
        {
            "inputs": [],
            "name": "authorizedEntity",
            "outputs": [
                {
                    "internalType": "address",
                    "name": "",
                    "type": "address"
                }
            ],
            "stateMutability": "view",
            "type": "function"
        },
        {
            "inputs": [
                {
                    "internalType": "address",
                    "name": "_accountToFindAndDelete",
                    "type": "address"
                }
            ],
            "name": "deleteConsumer",
            "outputs": [],
            "stateMutability": "nonpayable",
            "type": "function"
        },
        {
            "inputs": [
                {
                    "internalType": "address",
                    "name": "_accountToFindAndDelete",
                    "type": "address"
                }
            ],
            "name": "deleteSupplier",
            "outputs": [],
            "stateMutability": "nonpayable",
            "type": "function"
        },
        {
            "inputs": [],
            "name": "getAllConsumers",
            "outputs": [
                {
                    "internalType": "address[]",
                    "name": "",
                    "type": "address[]"
                }
            ],
            "stateMutability": "view",
            "type": "function"
        },
        {
            "inputs": [],
            "name": "getAllSuppliers",
            "outputs": [
                {
                    "internalType": "address[]",
                    "name": "",
                    "type": "address[]"
                }
            ],
            "stateMutability": "view",
            "type": "function"
        },
        {
            "inputs": [
                {
                    "internalType": "address",
                    "name": "consumerAddress",
                    "type": "address"
                }
            ],
            "name": "getConsumer",
            "outputs": [
                {
                    "components": [
                        {
                            "internalType": "address",
                            "name": "account",
                            "type": "address"
                        },
                        {
                            "internalType": "string",
                            "name": "assetId",
                            "type": "string"
                        },
                        {
                            "internalType": "uint16",
                            "name": "load",
                            "type": "uint16"
                        },
                        {
                            "internalType": "string",
                            "name": "offerControl",
                            "type": "string"
                        }
                    ],
                    "internalType": "struct IRegistry.Consumer",
                    "name": "",
                    "type": "tuple"
                }
            ],
            "stateMutability": "view",
            "type": "function"
        },
        {
            "inputs": [
                {
                    "internalType": "address",
                    "name": "supplierAddress",
                    "type": "address"
                }
            ],
            "name": "getSupplier",
            "outputs": [
                {
                    "components": [
                        {
                            "internalType": "address",
                            "name": "account",
                            "type": "address"
                        },
                        {
                            "internalType": "string",
                            "name": "assetId",
                            "type": "string"
                        },
                        {
                            "internalType": "uint8",
                            "name": "blockAmount",
                            "type": "uint8"
                        },
                        {
                            "internalType": "uint16",
                            "name": "capacity",
                            "type": "uint16"
                        },
                        {
                            "internalType": "string",
                            "name": "offerControl",
                            "type": "string"
                        }
                    ],
                    "internalType": "struct IRegistry.Supplier",
                    "name": "",
                    "type": "tuple"
                }
            ],
            "stateMutability": "view",
            "type": "function"
        },
        {
            "inputs": [],
            "name": "getTotalCapacity",
            "outputs": [
                {
                    "internalType": "uint16",
                    "name": "",
                    "type": "uint16"
                }
            ],
            "stateMutability": "view",
            "type": "function"
        },
        {
            "inputs": [
                {
                    "internalType": "address",
                    "name": "account",
                    "type": "address"
                }
            ],
            "name": "isRegisteredConsumer",
            "outputs": [
                {
                    "internalType": "bool",
                    "name": "",
                    "type": "bool"
                }
            ],
            "stateMutability": "view",
            "type": "function"
        },
        {
            "inputs": [
                {
                    "internalType": "address",
                    "name": "account",
                    "type": "address"
                }
            ],
            "name": "isRegisteredSupplier",
            "outputs": [
                {
                    "internalType": "bool",
                    "name": "",
                    "type": "bool"
                }
            ],
            "stateMutability": "view",
            "type": "function"
        },
        {
            "inputs": [],
            "name": "owner",
            "outputs": [
                {
                    "internalType": "address",
                    "name": "",
                    "type": "address"
                }
            ],
            "stateMutability": "view",
            "type": "function"
        },
        {
            "inputs": [
                {
                    "internalType": "address",
                    "name": "_account",
                    "type": "address"
                },
                {
                    "internalType": "string",
                    "name": "_assetId",
                    "type": "string"
                },
                {
                    "internalType": "uint16",
                    "name": "_load",
                    "type": "uint16"
                },
                {
                    "internalType": "string",
                    "name": "_offerControl",
                    "type": "string"
                }
            ],
            "name": "registerConsumer",
            "outputs": [],
            "stateMutability": "payable",
            "type": "function"
        },
        {
            "inputs": [
                {
                    "internalType": "address",
                    "name": "_account",
                    "type": "address"
                },
                {
                    "internalType": "string",
                    "name": "_assetId",
                    "type": "string"
                },
                {
                    "internalType": "uint8",
                    "name": "_blockAmount",
                    "type": "uint8"
                },
                {
                    "internalType": "uint16",
                    "name": "_capacity",
                    "type": "uint16"
                },
                {
                    "internalType": "string",
                    "name": "_offerControl",
                    "type": "string"
                }
            ],
            "name": "registerSupplier",
            "outputs": [],
            "stateMutability": "payable",
            "type": "function"
        },
        {
            "inputs": [
                {
                    "internalType": "uint256",
                    "name": "",
                    "type": "uint256"
                }
            ],
            "name": "registeredConsumerAccounts",
            "outputs": [
                {
                    "internalType": "address",
                    "name": "",
                    "type": "address"
                }
            ],
            "stateMutability": "view",
            "type": "function"
        },
        {
            "inputs": [
                {
                    "internalType": "address",
                    "name": "",
                    "type": "address"
                }
            ],
            "name": "registeredConsumers",
            "outputs": [
                {
                    "internalType": "address",
                    "name": "account",
                    "type": "address"
                },
                {
                    "internalType": "string",
                    "name": "assetId",
                    "type": "string"
                },
                {
                    "internalType": "uint16",
                    "name": "load",
                    "type": "uint16"
                },
                {
                    "internalType": "string",
                    "name": "offerControl",
                    "type": "string"
                }
            ],
            "stateMutability": "view",
            "type": "function"
        },
        {
            "inputs": [
                {
                    "internalType": "uint256",
                    "name": "",
                    "type": "uint256"
                }
            ],
            "name": "registeredSupplierAccounts",
            "outputs": [
                {
                    "internalType": "address",
                    "name": "",
                    "type": "address"
                }
            ],
            "stateMutability": "view",
            "type": "function"
        },
        {
            "inputs": [
                {
                    "internalType": "address",
                    "name": "",
                    "type": "address"
                }
            ],
            "name": "registeredSuppliers",
            "outputs": [
                {
                    "internalType": "address",
                    "name": "account",
                    "type": "address"
                },
                {
                    "internalType": "string",
                    "name": "assetId",
                    "type": "string"
                },
                {
                    "internalType": "uint8",
                    "name": "blockAmount",
                    "type": "uint8"
                },
                {
                    "internalType": "uint16",
                    "name": "capacity",
                    "type": "uint16"
                },
                {
                    "internalType": "string",
                    "name": "offerControl",
                    "type": "string"
                }
            ],
            "stateMutability": "view",
            "type": "function"
        },
        {
            "inputs": [],
            "name": "renounceOwnership",
            "outputs": [],
            "stateMutability": "nonpayable",
            "type": "function"
        },
        {
            "inputs": [],
            "name": "totalCapacity",
            "outputs": [
                {
                    "internalType": "uint16",
                    "name": "",
                    "type": "uint16"
                }
            ],
            "stateMutability": "view",
            "type": "function"
        },
        {
            "inputs": [
                {
                    "internalType": "address",
                    "name": "newOwner",
                    "type": "address"
                }
            ],
            "name": "transferOwnership",
            "outputs": [],
            "stateMutability": "nonpayable",
            "type": "function"
        }
    ],
    "bytecode": "0x608080604052346100635760005460018060a01b0319903382821617600055339060018060a01b03167f8be0079c531659141344cd1fd0a4f28419497f9722a3daafe3b4186f6b6457e0600080a33390600154161760015561162890816100698239f35b600080fdfe604060808152600480361015610015575b600080fd5b600090813560e01c90816309c167291461108657816318e9441514610d1d5781631efe4b0c14610c8c5781632f91f1f414610c60578163364dfb7414610bdd57816342c00ce914610ab4578163442c18f314610a8857816368a4778814610a3b578163715018a6146109de57816373b6f1d31461099457816376ffadcb146109655781638da5cb5b14610937578163993084e814610854578163b2a89e151461080a578163b53305dc14610788578163d6176e89146106ea578163e1fa43a414610320578163e309b013146102d7578163f2fde38b146101f6575063fe7009f20361001057346101f357602090816003193601126101f0576101ec908361011a61115a565b9160606080835161012a816111a4565b838152828882015283858201528383820152015260018060a01b0380931681526002855220845194859161015d836111a4565b83815416835260ff6101cb610174600184016112b9565b9388860194855260a06002850154958a838901998689168b5260806101aa600360608d019a61ffff809d60081c168c52016112b9565b9a01998a5284519d8e9d8e525116908c015251918a015260c0890190611364565b94511660608701525116608085015251601f198483030160a0850152611364565b0390f35b80fd5b80fd5b839150346102d35760206003193601126102cf5761021261115a565b9061021b611451565b60018060a01b0380921692831561026657505082548260018060a01b03198216178455167f8be0079c531659141344cd1fd0a4f28419497f9722a3daafe3b4186f6b6457e08380a380f35b906020608492519162461bcd60e51b8352820152602660248201527f4f776e61626c653a206e6577206f776e657220697320746865207a65726f206160448201527f64647265737300000000000000000000000000000000000000000000000000006064820152fd5b8280fd5b8280fd5b83833461031d57602060031936011261031a57823592548310156103175750610301602092611420565b905491519160018060a01b039160031b1c168152f35b80fd5b80fd5b80fd5b83915060a06003193601126106e65761033761115a565b90602435918460018060401b03938481116106e257610359903690850161120a565b936044359060ff82168092036106de576064359661ffff968789168099036106da576084358381116106d657610392903690890161120a565b9361039f825115156114a8565b60018060a01b03908a82891692838952602095600287526001996103d06103ca8c848420015461127f565b156114f3565b8151956103dc876111a4565b80875288870197885282870195865260608701948552608087019a8b528152600288522093511660018060a01b031984541617835587830193519384518781116106c357908e969594939291610432825461127f565b97601f9889811161068d575b50879089831160011461061c579060039783610610575b5050818c1b9160001990881b1c19161790555b60ff6002840192511662ffff008354925160081b169162ffffff1916171790550193519081519384116105fd57908392918b6104a4875461127f565b828582116105c7575b5050508092841160011461055c57508a92610550575b505081841b916000199060031b1c19161790555b825490600160401b82101561053d57816104f8916104fe9493018555611420565b9061156d565b835492828460a01c160191821161052a575061ffff60a01b9060a01b169061ffff60a01b191617815580f35b836011602492634e487b7160e01b835252fd5b602487604186634e487b7160e01b835252fd5b909150015189806104c3565b9190869450601f198416868d52838d20938d905b8282106105a6575050841161058d575b505050811b0190556104d7565b015160001960f88460031b161c19169055898080610580565b84969781939495968293978701518155019601940188969594939291610570565b82896105ec9452208580880160051c8201928589106105f4575b0160051c019061153e565b8b8d826104ad565b925081926105e1565b60248b60418a634e487b7160e01b835252fd5b90915001513880610455565b8c9291601f1983168583528a8320925b8b828210610666575050988360039a1061064e575b505050811b019055610468565b015160001960f8848b1b161c19169055388080610641565b9192958b9487849397999a9b9c9d015181550195019301908e94929998979695939161062c565b6106b4908483528983208b80860160051c8201928c87106106ba575b0160051c019061153e565b3861043e565b925081926106a9565b60248f60418e634e487b7160e01b835252fd5b8580fd5b8480fd5b8280fd5b5080fd5b8280fd5b8284346107845760206003193601126107805761077c8160018060a01b03938461071261115a565b168152600260205220928354169161072c600185016112b9565b9361ffff6107416003600284015493016112b9565b9161075d8451978897885260a0602089015260a0880190611364565b9360ff82169087015260081c1660608501528382036080850152611364565b0390f35b5080fd5b5080fd5b8284346108065781600319360112610802576107a2611451565b80519182845490818152602080910195835280832092905b8282106107e0576107dc86866107d2828b03836111d4565b51918291826113a6565b0390f35b909192956001828192828060a01b038a541681520197019201909291926107ba565b5080fd5b5080fd5b82843461085057602060031936011261084c57610843600182602094828060a01b0361083461115a565b1681526003865220015461127f565b15159051908152f35b5080fd5b5080fd5b8284346109335760208060031936011261092f5761092b908261087561115a565b94606080835161088481611174565b83815281868201528385820152015260018060a01b0380961681526003835220908351936108b185611174565b8583541685526109116108c6600185016112b9565b91838701928352608061ffff936108ec60038660028a01541698858c01998a52016112b9565b9560608a0196875283519a8b9a828c525116908a0152519188015260a0870190611364565b925116606085015251601f19848303016080850152611364565b0390f35b8280fd5b5080fd5b828434610961578160031936011261095d5760209160018060a01b039054169051908152f35b5080fd5b5080fd5b828434610990578160031936011261098c5760209060018060a01b03600154169051908152f35b5080fd5b5080fd5b8284346109da5760206003193601126109d6576109cd600182602094828060a01b036109be61115a565b1681526002865220015461127f565b15159051908152f35b5080fd5b5080fd5b8234610a385780600319360112610a35576109f7611451565b80805460018060a01b03198116825560018060a01b03167f8be0079c531659141344cd1fd0a4f28419497f9722a3daafe3b4186f6b6457e08280a380f35b80fd5b80fd5b83915034610a84576020600319360112610a80573591600554831015610a7d5750610a676020926113ef565b905491519160018060a01b039160031b1c168152f35b80fd5b8280fd5b8280fd5b828434610ab05781600319360112610aac5761ffff6020925460a01c169051908152f35b5080fd5b5080fd5b90508234610bd9576020600319360112610bd557610ad061115a565b610ad8611451565b60018060a01b03809116908185526002602052600193610afc85858820015461127f565b1515600014610bcb57828652600260205261ffff806002868920015460081c1690875491818360a01c1603908111610bb85761ffff60a01b9060a01b169061ffff60a01b19161786558486905b610b68575b505050610b649250835260026020528220611603565b5b80f35b8154811015610bb357808484610b80610ba894611420565b90549060031b1c1614600014610bae57610ba2610b9c82611420565b90611557565b5b61158b565b85610b49565b610ba3565b610b4e565b602488601185634e487b7160e01b835252fd5b5050505050610b65565b8280fd5b8280fd5b505034610c5d5780600319360112610c5a57610bf7611451565b81519182916005548085526020809501946005835280832092905b828210610c3857610c348686610c2a828b03836111d4565b51918291826113a6565b0390f35b909192956001828192828060a01b038a54168152019701920190929192610c12565b80fd5b80fd5b828434610c885781600319360112610c845761ffff6020925460a01c169051908152f35b5080fd5b5080fd5b828434610d19576020600319360112610d1557610d118160018060a01b039384610cb461115a565b1681526003602052209283541691610cce600185016112b9565b93610ce4600361ffff60028401541692016112b9565b90610d0083519687968752608060208801526080870190611364565b928501528382036060850152611364565b0390f35b5080fd5b5080fd5b8284608060031936011261108257610d3361115a565b9060243560018060401b039081811161107e57610d53903690870161120a565b9060443561ffff9283821680920361107a5760643583811161107657610d7d889136908b0161120a565b94610d8a835115156114a8565b60018060a01b03938489169182845260039589610dbc610db66020978a895260019d8e9120015461127f565b156114f3565b805194610dc886611174565b808652868601978852818601948552606086019a8b528d528786528c2093511660018060a01b03198454161783558883019451948551888111611062579087949392918d610e16835461127f565b98601f998a811161102c575b5088918a8411600114610fb9579083929192610fad575b5050818d1b9160001990881b1c19161790555b6002830191511661ffff19825416179055019451908151948511610f9a579084939291610e79875461127f565b838111610f64575b5080928511600114610ef457508893610ee6575b505082851b92600019911b1c19161790555b60055490600160401b821015610ed35781610eca91610ed09493016005556113ef565b9061156d565b80f35b602484604187634e487b7160e01b835252fd5b909192500151908880610e95565b929190879550601f198516878b52848b20948b905b828210610f415750508511610f27575b50505050811b019055610ea7565b01519060f884600019921b161c1916905587808080610f19565b849798819394959782939798870151815501970194018997969594939291610f09565b610f8b90888c52828c208580890160051c820192858a10610f91575b0160051c019061153e565b8b610e81565b92508192610f80565b60248960418c634e487b7160e01b835252fd5b90915001513880610e39565b90918e9392601f1984168684528b8420935b8c8282106110015750508411610fe9575b505050811b019055610e4c565b015160001960f8848b1b161c19169055388080610fdc565b929484849395989297999a9b9c9d5086015181550195019301918f9492918d9a999897969492610fcb565b611053908584528a84208c80870160051c8201928d8810611059575b0160051c019061153e565b38610e22565b92508192611048565b5060248c60418f634e487b7160e01b835252fd5b8780fd5b8680fd5b8480fd5b5080fd5b828434611156576020600319360112611152576110a161115a565b906110aa611451565b60018060a01b03809216808452600390816020526001936110cf85858820015461127f565b1515600014611148578486905b6110f8575b50506110f4935084526020528220611603565b5b80f35b60055481101561114357808383611111611138946113ef565b905490881b1c161460001461113e5761113261112c826113ef565b90611557565b5b61158b565b856110dc565b611133565b6110e1565b50505050506110f5565b5080fd5b5080fd5b6004359060018060a01b038216820361116f57565b600080fd5b6080810190811060018060401b0382111761118e57604052565b634e487b7160e01b600052604160045260246000fd5b60a0810190811060018060401b038211176111be57604052565b634e487b7160e01b600052604160045260246000fd5b90601f8019910116810190811060018060401b038211176111f457604052565b634e487b7160e01b600052604160045260246000fd5b81601f8201121561127a5780359060018060401b038211611264576040519261123d6020601f19601f86011601856111d4565b8284526020838301011161125f57816000926020809301838601378301015290565b600080fd5b634e487b7160e01b600052604160045260246000fd5b600080fd5b90600182811c921680156112af575b602083101461129957565b634e487b7160e01b600052602260045260246000fd5b91607f169161128e565b90604051918260008254926112cd8461127f565b90818452600194858116908160001461134157506001146112f9575b50506112f7925003836111d4565b565b9093915060005260209081600020936000915b8183106113245750506112f7935082010138806112e9565b83958194929550805483858b01015201910190939192869361130c565b9150506112f794506020925060ff191682840152151560051b82010138806112e9565b919082519283825260005b848110611390575050826000602080949584010152601f8019910116010190565b602090818082850101519082860101520161136f565b6020908160408183019282815285518094520193019160005b8281106113cd575050505090565b909192938280600192838060a01b0388511681520195019101929190926113bf565b60055481101561140a57600560005260206000200190600090565b634e487b7160e01b600052603260045260246000fd5b60045481101561143b57600460005260206000200190600090565b634e487b7160e01b600052603260045260246000fd5b60018060a01b0360005416330361146457565b606460405162461bcd60e51b815260206004820152602060248201527f4f776e61626c653a2063616c6c6572206973206e6f7420746865206f776e65726044820152fd5b156114af57565b606460405162461bcd60e51b815260206004820152600f60248201527f496e76616c6964206173736574496400000000000000000000000000000000006044820152fd5b156114fa57565b606460405162461bcd60e51b815260206004820152601e60248201527f4163636f756e742068617320616c7265616479207265676973746572656400006044820152fd5b5b81811061154a575050565b806000600192550161153f565b9081549060018060a01b039060031b1b19169055565b919082549060031b9160018060a01b03809116831b921b1916179055565b600019811461159a5760010190565b634e487b7160e01b600052601160045260246000fd5b6115ba815461127f565b90816115c5575b5050565b81601f600093116001146115dd5750555b38806115c1565b9080839182526115fc601f60208420940160051c84016001850161153e565b55556115d6565b60036116269160008155611619600182016115b0565b60006002820155016115b0565b56",
    "linkReferences": {},
    "deployedLinkReferences": {},
    "default": {
        "_format": "hh-sol-artifact-1",
        "contractName": "Registry",
        "sourceName": "contracts/Registry.sol",
        "abi": [
            {
                "inputs": [],
                "stateMutability": "nonpayable",
                "type": "constructor"
            },
            {
                "anonymous": false,
                "inputs": [
                    {
                        "indexed": true,
                        "internalType": "address",
                        "name": "previousOwner",
                        "type": "address"
                    },
                    {
                        "indexed": true,
                        "internalType": "address",
                        "name": "newOwner",
                        "type": "address"
                    }
                ],
                "name": "OwnershipTransferred",
                "type": "event"
            },
            {
                "inputs": [],
                "name": "authorizedEntity",
                "outputs": [
                    {
                        "internalType": "address",
                        "name": "",
                        "type": "address"
                    }
                ],
                "stateMutability": "view",
                "type": "function"
            },
            {
                "inputs": [
                    {
                        "internalType": "address",
                        "name": "_accountToFindAndDelete",
                        "type": "address"
                    }
                ],
                "name": "deleteConsumer",
                "outputs": [],
                "stateMutability": "nonpayable",
                "type": "function"
            },
            {
                "inputs": [
                    {
                        "internalType": "address",
                        "name": "_accountToFindAndDelete",
                        "type": "address"
                    }
                ],
                "name": "deleteSupplier",
                "outputs": [],
                "stateMutability": "nonpayable",
                "type": "function"
            },
            {
                "inputs": [],
                "name": "getAllConsumers",
                "outputs": [
                    {
                        "internalType": "address[]",
                        "name": "",
                        "type": "address[]"
                    }
                ],
                "stateMutability": "view",
                "type": "function"
            },
            {
                "inputs": [],
                "name": "getAllSuppliers",
                "outputs": [
                    {
                        "internalType": "address[]",
                        "name": "",
                        "type": "address[]"
                    }
                ],
                "stateMutability": "view",
                "type": "function"
            },
            {
                "inputs": [
                    {
                        "internalType": "address",
                        "name": "consumerAddress",
                        "type": "address"
                    }
                ],
                "name": "getConsumer",
                "outputs": [
                    {
                        "components": [
                            {
                                "internalType": "address",
                                "name": "account",
                                "type": "address"
                            },
                            {
                                "internalType": "string",
                                "name": "assetId",
                                "type": "string"
                            },
                            {
                                "internalType": "uint16",
                                "name": "load",
                                "type": "uint16"
                            },
                            {
                                "internalType": "string",
                                "name": "offerControl",
                                "type": "string"
                            }
                        ],
                        "internalType": "struct IRegistry.Consumer",
                        "name": "",
                        "type": "tuple"
                    }
                ],
                "stateMutability": "view",
                "type": "function"
            },
            {
                "inputs": [
                    {
                        "internalType": "address",
                        "name": "supplierAddress",
                        "type": "address"
                    }
                ],
                "name": "getSupplier",
                "outputs": [
                    {
                        "components": [
                            {
                                "internalType": "address",
                                "name": "account",
                                "type": "address"
                            },
                            {
                                "internalType": "string",
                                "name": "assetId",
                                "type": "string"
                            },
                            {
                                "internalType": "uint8",
                                "name": "blockAmount",
                                "type": "uint8"
                            },
                            {
                                "internalType": "uint16",
                                "name": "capacity",
                                "type": "uint16"
                            },
                            {
                                "internalType": "string",
                                "name": "offerControl",
                                "type": "string"
                            }
                        ],
                        "internalType": "struct IRegistry.Supplier",
                        "name": "",
                        "type": "tuple"
                    }
                ],
                "stateMutability": "view",
                "type": "function"
            },
            {
                "inputs": [],
                "name": "getTotalCapacity",
                "outputs": [
                    {
                        "internalType": "uint16",
                        "name": "",
                        "type": "uint16"
                    }
                ],
                "stateMutability": "view",
                "type": "function"
            },
            {
                "inputs": [
                    {
                        "internalType": "address",
                        "name": "account",
                        "type": "address"
                    }
                ],
                "name": "isRegisteredConsumer",
                "outputs": [
                    {
                        "internalType": "bool",
                        "name": "",
                        "type": "bool"
                    }
                ],
                "stateMutability": "view",
                "type": "function"
            },
            {
                "inputs": [
                    {
                        "internalType": "address",
                        "name": "account",
                        "type": "address"
                    }
                ],
                "name": "isRegisteredSupplier",
                "outputs": [
                    {
                        "internalType": "bool",
                        "name": "",
                        "type": "bool"
                    }
                ],
                "stateMutability": "view",
                "type": "function"
            },
            {
                "inputs": [],
                "name": "owner",
                "outputs": [
                    {
                        "internalType": "address",
                        "name": "",
                        "type": "address"
                    }
                ],
                "stateMutability": "view",
                "type": "function"
            },
            {
                "inputs": [
                    {
                        "internalType": "address",
                        "name": "_account",
                        "type": "address"
                    },
                    {
                        "internalType": "string",
                        "name": "_assetId",
                        "type": "string"
                    },
                    {
                        "internalType": "uint16",
                        "name": "_load",
                        "type": "uint16"
                    },
                    {
                        "internalType": "string",
                        "name": "_offerControl",
                        "type": "string"
                    }
                ],
                "name": "registerConsumer",
                "outputs": [],
                "stateMutability": "payable",
                "type": "function"
            },
            {
                "inputs": [
                    {
                        "internalType": "address",
                        "name": "_account",
                        "type": "address"
                    },
                    {
                        "internalType": "string",
                        "name": "_assetId",
                        "type": "string"
                    },
                    {
                        "internalType": "uint8",
                        "name": "_blockAmount",
                        "type": "uint8"
                    },
                    {
                        "internalType": "uint16",
                        "name": "_capacity",
                        "type": "uint16"
                    },
                    {
                        "internalType": "string",
                        "name": "_offerControl",
                        "type": "string"
                    }
                ],
                "name": "registerSupplier",
                "outputs": [],
                "stateMutability": "payable",
                "type": "function"
            },
            {
                "inputs": [
                    {
                        "internalType": "uint256",
                        "name": "",
                        "type": "uint256"
                    }
                ],
                "name": "registeredConsumerAccounts",
                "outputs": [
                    {
                        "internalType": "address",
                        "name": "",
                        "type": "address"
                    }
                ],
                "stateMutability": "view",
                "type": "function"
            },
            {
                "inputs": [
                    {
                        "internalType": "address",
                        "name": "",
                        "type": "address"
                    }
                ],
                "name": "registeredConsumers",
                "outputs": [
                    {
                        "internalType": "address",
                        "name": "account",
                        "type": "address"
                    },
                    {
                        "internalType": "string",
                        "name": "assetId",
                        "type": "string"
                    },
                    {
                        "internalType": "uint16",
                        "name": "load",
                        "type": "uint16"
                    },
                    {
                        "internalType": "string",
                        "name": "offerControl",
                        "type": "string"
                    }
                ],
                "stateMutability": "view",
                "type": "function"
            },
            {
                "inputs": [
                    {
                        "internalType": "uint256",
                        "name": "",
                        "type": "uint256"
                    }
                ],
                "name": "registeredSupplierAccounts",
                "outputs": [
                    {
                        "internalType": "address",
                        "name": "",
                        "type": "address"
                    }
                ],
                "stateMutability": "view",
                "type": "function"
            },
            {
                "inputs": [
                    {
                        "internalType": "address",
                        "name": "",
                        "type": "address"
                    }
                ],
                "name": "registeredSuppliers",
                "outputs": [
                    {
                        "internalType": "address",
                        "name": "account",
                        "type": "address"
                    },
                    {
                        "internalType": "string",
                        "name": "assetId",
                        "type": "string"
                    },
                    {
                        "internalType": "uint8",
                        "name": "blockAmount",
                        "type": "uint8"
                    },
                    {
                        "internalType": "uint16",
                        "name": "capacity",
                        "type": "uint16"
                    },
                    {
                        "internalType": "string",
                        "name": "offerControl",
                        "type": "string"
                    }
                ],
                "stateMutability": "view",
                "type": "function"
            },
            {
                "inputs": [],
                "name": "renounceOwnership",
                "outputs": [],
                "stateMutability": "nonpayable",
                "type": "function"
            },
            {
                "inputs": [],
                "name": "totalCapacity",
                "outputs": [
                    {
                        "internalType": "uint16",
                        "name": "",
                        "type": "uint16"
                    }
                ],
                "stateMutability": "view",
                "type": "function"
            },
            {
                "inputs": [
                    {
                        "internalType": "address",
                        "name": "newOwner",
                        "type": "address"
                    }
                ],
                "name": "transferOwnership",
                "outputs": [],
                "stateMutability": "nonpayable",
                "type": "function"
            }
        ],
        "bytecode": "0x608080604052346100635760005460018060a01b0319903382821617600055339060018060a01b03167f8be0079c531659141344cd1fd0a4f28419497f9722a3daafe3b4186f6b6457e0600080a33390600154161760015561162890816100698239f35b600080fdfe604060808152600480361015610015575b600080fd5b600090813560e01c90816309c167291461108657816318e9441514610d1d5781631efe4b0c14610c8c5781632f91f1f414610c60578163364dfb7414610bdd57816342c00ce914610ab4578163442c18f314610a8857816368a4778814610a3b578163715018a6146109de57816373b6f1d31461099457816376ffadcb146109655781638da5cb5b14610937578163993084e814610854578163b2a89e151461080a578163b53305dc14610788578163d6176e89146106ea578163e1fa43a414610320578163e309b013146102d7578163f2fde38b146101f6575063fe7009f20361001057346101f357602090816003193601126101f0576101ec908361011a61115a565b9160606080835161012a816111a4565b838152828882015283858201528383820152015260018060a01b0380931681526002855220845194859161015d836111a4565b83815416835260ff6101cb610174600184016112b9565b9388860194855260a06002850154958a838901998689168b5260806101aa600360608d019a61ffff809d60081c168c52016112b9565b9a01998a5284519d8e9d8e525116908c015251918a015260c0890190611364565b94511660608701525116608085015251601f198483030160a0850152611364565b0390f35b80fd5b80fd5b839150346102d35760206003193601126102cf5761021261115a565b9061021b611451565b60018060a01b0380921692831561026657505082548260018060a01b03198216178455167f8be0079c531659141344cd1fd0a4f28419497f9722a3daafe3b4186f6b6457e08380a380f35b906020608492519162461bcd60e51b8352820152602660248201527f4f776e61626c653a206e6577206f776e657220697320746865207a65726f206160448201527f64647265737300000000000000000000000000000000000000000000000000006064820152fd5b8280fd5b8280fd5b83833461031d57602060031936011261031a57823592548310156103175750610301602092611420565b905491519160018060a01b039160031b1c168152f35b80fd5b80fd5b80fd5b83915060a06003193601126106e65761033761115a565b90602435918460018060401b03938481116106e257610359903690850161120a565b936044359060ff82168092036106de576064359661ffff968789168099036106da576084358381116106d657610392903690890161120a565b9361039f825115156114a8565b60018060a01b03908a82891692838952602095600287526001996103d06103ca8c848420015461127f565b156114f3565b8151956103dc876111a4565b80875288870197885282870195865260608701948552608087019a8b528152600288522093511660018060a01b031984541617835587830193519384518781116106c357908e969594939291610432825461127f565b97601f9889811161068d575b50879089831160011461061c579060039783610610575b5050818c1b9160001990881b1c19161790555b60ff6002840192511662ffff008354925160081b169162ffffff1916171790550193519081519384116105fd57908392918b6104a4875461127f565b828582116105c7575b5050508092841160011461055c57508a92610550575b505081841b916000199060031b1c19161790555b825490600160401b82101561053d57816104f8916104fe9493018555611420565b9061156d565b835492828460a01c160191821161052a575061ffff60a01b9060a01b169061ffff60a01b191617815580f35b836011602492634e487b7160e01b835252fd5b602487604186634e487b7160e01b835252fd5b909150015189806104c3565b9190869450601f198416868d52838d20938d905b8282106105a6575050841161058d575b505050811b0190556104d7565b015160001960f88460031b161c19169055898080610580565b84969781939495968293978701518155019601940188969594939291610570565b82896105ec9452208580880160051c8201928589106105f4575b0160051c019061153e565b8b8d826104ad565b925081926105e1565b60248b60418a634e487b7160e01b835252fd5b90915001513880610455565b8c9291601f1983168583528a8320925b8b828210610666575050988360039a1061064e575b505050811b019055610468565b015160001960f8848b1b161c19169055388080610641565b9192958b9487849397999a9b9c9d015181550195019301908e94929998979695939161062c565b6106b4908483528983208b80860160051c8201928c87106106ba575b0160051c019061153e565b3861043e565b925081926106a9565b60248f60418e634e487b7160e01b835252fd5b8580fd5b8480fd5b8280fd5b5080fd5b8280fd5b8284346107845760206003193601126107805761077c8160018060a01b03938461071261115a565b168152600260205220928354169161072c600185016112b9565b9361ffff6107416003600284015493016112b9565b9161075d8451978897885260a0602089015260a0880190611364565b9360ff82169087015260081c1660608501528382036080850152611364565b0390f35b5080fd5b5080fd5b8284346108065781600319360112610802576107a2611451565b80519182845490818152602080910195835280832092905b8282106107e0576107dc86866107d2828b03836111d4565b51918291826113a6565b0390f35b909192956001828192828060a01b038a541681520197019201909291926107ba565b5080fd5b5080fd5b82843461085057602060031936011261084c57610843600182602094828060a01b0361083461115a565b1681526003865220015461127f565b15159051908152f35b5080fd5b5080fd5b8284346109335760208060031936011261092f5761092b908261087561115a565b94606080835161088481611174565b83815281868201528385820152015260018060a01b0380961681526003835220908351936108b185611174565b8583541685526109116108c6600185016112b9565b91838701928352608061ffff936108ec60038660028a01541698858c01998a52016112b9565b9560608a0196875283519a8b9a828c525116908a0152519188015260a0870190611364565b925116606085015251601f19848303016080850152611364565b0390f35b8280fd5b5080fd5b828434610961578160031936011261095d5760209160018060a01b039054169051908152f35b5080fd5b5080fd5b828434610990578160031936011261098c5760209060018060a01b03600154169051908152f35b5080fd5b5080fd5b8284346109da5760206003193601126109d6576109cd600182602094828060a01b036109be61115a565b1681526002865220015461127f565b15159051908152f35b5080fd5b5080fd5b8234610a385780600319360112610a35576109f7611451565b80805460018060a01b03198116825560018060a01b03167f8be0079c531659141344cd1fd0a4f28419497f9722a3daafe3b4186f6b6457e08280a380f35b80fd5b80fd5b83915034610a84576020600319360112610a80573591600554831015610a7d5750610a676020926113ef565b905491519160018060a01b039160031b1c168152f35b80fd5b8280fd5b8280fd5b828434610ab05781600319360112610aac5761ffff6020925460a01c169051908152f35b5080fd5b5080fd5b90508234610bd9576020600319360112610bd557610ad061115a565b610ad8611451565b60018060a01b03809116908185526002602052600193610afc85858820015461127f565b1515600014610bcb57828652600260205261ffff806002868920015460081c1690875491818360a01c1603908111610bb85761ffff60a01b9060a01b169061ffff60a01b19161786558486905b610b68575b505050610b649250835260026020528220611603565b5b80f35b8154811015610bb357808484610b80610ba894611420565b90549060031b1c1614600014610bae57610ba2610b9c82611420565b90611557565b5b61158b565b85610b49565b610ba3565b610b4e565b602488601185634e487b7160e01b835252fd5b5050505050610b65565b8280fd5b8280fd5b505034610c5d5780600319360112610c5a57610bf7611451565b81519182916005548085526020809501946005835280832092905b828210610c3857610c348686610c2a828b03836111d4565b51918291826113a6565b0390f35b909192956001828192828060a01b038a54168152019701920190929192610c12565b80fd5b80fd5b828434610c885781600319360112610c845761ffff6020925460a01c169051908152f35b5080fd5b5080fd5b828434610d19576020600319360112610d1557610d118160018060a01b039384610cb461115a565b1681526003602052209283541691610cce600185016112b9565b93610ce4600361ffff60028401541692016112b9565b90610d0083519687968752608060208801526080870190611364565b928501528382036060850152611364565b0390f35b5080fd5b5080fd5b8284608060031936011261108257610d3361115a565b9060243560018060401b039081811161107e57610d53903690870161120a565b9060443561ffff9283821680920361107a5760643583811161107657610d7d889136908b0161120a565b94610d8a835115156114a8565b60018060a01b03938489169182845260039589610dbc610db66020978a895260019d8e9120015461127f565b156114f3565b805194610dc886611174565b808652868601978852818601948552606086019a8b528d528786528c2093511660018060a01b03198454161783558883019451948551888111611062579087949392918d610e16835461127f565b98601f998a811161102c575b5088918a8411600114610fb9579083929192610fad575b5050818d1b9160001990881b1c19161790555b6002830191511661ffff19825416179055019451908151948511610f9a579084939291610e79875461127f565b838111610f64575b5080928511600114610ef457508893610ee6575b505082851b92600019911b1c19161790555b60055490600160401b821015610ed35781610eca91610ed09493016005556113ef565b9061156d565b80f35b602484604187634e487b7160e01b835252fd5b909192500151908880610e95565b929190879550601f198516878b52848b20948b905b828210610f415750508511610f27575b50505050811b019055610ea7565b01519060f884600019921b161c1916905587808080610f19565b849798819394959782939798870151815501970194018997969594939291610f09565b610f8b90888c52828c208580890160051c820192858a10610f91575b0160051c019061153e565b8b610e81565b92508192610f80565b60248960418c634e487b7160e01b835252fd5b90915001513880610e39565b90918e9392601f1984168684528b8420935b8c8282106110015750508411610fe9575b505050811b019055610e4c565b015160001960f8848b1b161c19169055388080610fdc565b929484849395989297999a9b9c9d5086015181550195019301918f9492918d9a999897969492610fcb565b611053908584528a84208c80870160051c8201928d8810611059575b0160051c019061153e565b38610e22565b92508192611048565b5060248c60418f634e487b7160e01b835252fd5b8780fd5b8680fd5b8480fd5b5080fd5b828434611156576020600319360112611152576110a161115a565b906110aa611451565b60018060a01b03809216808452600390816020526001936110cf85858820015461127f565b1515600014611148578486905b6110f8575b50506110f4935084526020528220611603565b5b80f35b60055481101561114357808383611111611138946113ef565b905490881b1c161460001461113e5761113261112c826113ef565b90611557565b5b61158b565b856110dc565b611133565b6110e1565b50505050506110f5565b5080fd5b5080fd5b6004359060018060a01b038216820361116f57565b600080fd5b6080810190811060018060401b0382111761118e57604052565b634e487b7160e01b600052604160045260246000fd5b60a0810190811060018060401b038211176111be57604052565b634e487b7160e01b600052604160045260246000fd5b90601f8019910116810190811060018060401b038211176111f457604052565b634e487b7160e01b600052604160045260246000fd5b81601f8201121561127a5780359060018060401b038211611264576040519261123d6020601f19601f86011601856111d4565b8284526020838301011161125f57816000926020809301838601378301015290565b600080fd5b634e487b7160e01b600052604160045260246000fd5b600080fd5b90600182811c921680156112af575b602083101461129957565b634e487b7160e01b600052602260045260246000fd5b91607f169161128e565b90604051918260008254926112cd8461127f565b90818452600194858116908160001461134157506001146112f9575b50506112f7925003836111d4565b565b9093915060005260209081600020936000915b8183106113245750506112f7935082010138806112e9565b83958194929550805483858b01015201910190939192869361130c565b9150506112f794506020925060ff191682840152151560051b82010138806112e9565b919082519283825260005b848110611390575050826000602080949584010152601f8019910116010190565b602090818082850101519082860101520161136f565b6020908160408183019282815285518094520193019160005b8281106113cd575050505090565b909192938280600192838060a01b0388511681520195019101929190926113bf565b60055481101561140a57600560005260206000200190600090565b634e487b7160e01b600052603260045260246000fd5b60045481101561143b57600460005260206000200190600090565b634e487b7160e01b600052603260045260246000fd5b60018060a01b0360005416330361146457565b606460405162461bcd60e51b815260206004820152602060248201527f4f776e61626c653a2063616c6c6572206973206e6f7420746865206f776e65726044820152fd5b156114af57565b606460405162461bcd60e51b815260206004820152600f60248201527f496e76616c6964206173736574496400000000000000000000000000000000006044820152fd5b156114fa57565b606460405162461bcd60e51b815260206004820152601e60248201527f4163636f756e742068617320616c7265616479207265676973746572656400006044820152fd5b5b81811061154a575050565b806000600192550161153f565b9081549060018060a01b039060031b1b19169055565b919082549060031b9160018060a01b03809116831b921b1916179055565b600019811461159a5760010190565b634e487b7160e01b600052601160045260246000fd5b6115ba815461127f565b90816115c5575b5050565b81601f600093116001146115dd5750555b38806115c1565b9080839182526115fc601f60208420940160051c84016001850161153e565b55556115d6565b60036116269160008155611619600182016115b0565b60006002820155016115b0565b56",
        "deployedBytecode": "0x604060808152600480361015610015575b600080fd5b600090813560e01c90816309c167291461108657816318e9441514610d1d5781631efe4b0c14610c8c5781632f91f1f414610c60578163364dfb7414610bdd57816342c00ce914610ab4578163442c18f314610a8857816368a4778814610a3b578163715018a6146109de57816373b6f1d31461099457816376ffadcb146109655781638da5cb5b14610937578163993084e814610854578163b2a89e151461080a578163b53305dc14610788578163d6176e89146106ea578163e1fa43a414610320578163e309b013146102d7578163f2fde38b146101f6575063fe7009f20361001057346101f357602090816003193601126101f0576101ec908361011a61115a565b9160606080835161012a816111a4565b838152828882015283858201528383820152015260018060a01b0380931681526002855220845194859161015d836111a4565b83815416835260ff6101cb610174600184016112b9565b9388860194855260a06002850154958a838901998689168b5260806101aa600360608d019a61ffff809d60081c168c52016112b9565b9a01998a5284519d8e9d8e525116908c015251918a015260c0890190611364565b94511660608701525116608085015251601f198483030160a0850152611364565b0390f35b80fd5b80fd5b839150346102d35760206003193601126102cf5761021261115a565b9061021b611451565b60018060a01b0380921692831561026657505082548260018060a01b03198216178455167f8be0079c531659141344cd1fd0a4f28419497f9722a3daafe3b4186f6b6457e08380a380f35b906020608492519162461bcd60e51b8352820152602660248201527f4f776e61626c653a206e6577206f776e657220697320746865207a65726f206160448201527f64647265737300000000000000000000000000000000000000000000000000006064820152fd5b8280fd5b8280fd5b83833461031d57602060031936011261031a57823592548310156103175750610301602092611420565b905491519160018060a01b039160031b1c168152f35b80fd5b80fd5b80fd5b83915060a06003193601126106e65761033761115a565b90602435918460018060401b03938481116106e257610359903690850161120a565b936044359060ff82168092036106de576064359661ffff968789168099036106da576084358381116106d657610392903690890161120a565b9361039f825115156114a8565b60018060a01b03908a82891692838952602095600287526001996103d06103ca8c848420015461127f565b156114f3565b8151956103dc876111a4565b80875288870197885282870195865260608701948552608087019a8b528152600288522093511660018060a01b031984541617835587830193519384518781116106c357908e969594939291610432825461127f565b97601f9889811161068d575b50879089831160011461061c579060039783610610575b5050818c1b9160001990881b1c19161790555b60ff6002840192511662ffff008354925160081b169162ffffff1916171790550193519081519384116105fd57908392918b6104a4875461127f565b828582116105c7575b5050508092841160011461055c57508a92610550575b505081841b916000199060031b1c19161790555b825490600160401b82101561053d57816104f8916104fe9493018555611420565b9061156d565b835492828460a01c160191821161052a575061ffff60a01b9060a01b169061ffff60a01b191617815580f35b836011602492634e487b7160e01b835252fd5b602487604186634e487b7160e01b835252fd5b909150015189806104c3565b9190869450601f198416868d52838d20938d905b8282106105a6575050841161058d575b505050811b0190556104d7565b015160001960f88460031b161c19169055898080610580565b84969781939495968293978701518155019601940188969594939291610570565b82896105ec9452208580880160051c8201928589106105f4575b0160051c019061153e565b8b8d826104ad565b925081926105e1565b60248b60418a634e487b7160e01b835252fd5b90915001513880610455565b8c9291601f1983168583528a8320925b8b828210610666575050988360039a1061064e575b505050811b019055610468565b015160001960f8848b1b161c19169055388080610641565b9192958b9487849397999a9b9c9d015181550195019301908e94929998979695939161062c565b6106b4908483528983208b80860160051c8201928c87106106ba575b0160051c019061153e565b3861043e565b925081926106a9565b60248f60418e634e487b7160e01b835252fd5b8580fd5b8480fd5b8280fd5b5080fd5b8280fd5b8284346107845760206003193601126107805761077c8160018060a01b03938461071261115a565b168152600260205220928354169161072c600185016112b9565b9361ffff6107416003600284015493016112b9565b9161075d8451978897885260a0602089015260a0880190611364565b9360ff82169087015260081c1660608501528382036080850152611364565b0390f35b5080fd5b5080fd5b8284346108065781600319360112610802576107a2611451565b80519182845490818152602080910195835280832092905b8282106107e0576107dc86866107d2828b03836111d4565b51918291826113a6565b0390f35b909192956001828192828060a01b038a541681520197019201909291926107ba565b5080fd5b5080fd5b82843461085057602060031936011261084c57610843600182602094828060a01b0361083461115a565b1681526003865220015461127f565b15159051908152f35b5080fd5b5080fd5b8284346109335760208060031936011261092f5761092b908261087561115a565b94606080835161088481611174565b83815281868201528385820152015260018060a01b0380961681526003835220908351936108b185611174565b8583541685526109116108c6600185016112b9565b91838701928352608061ffff936108ec60038660028a01541698858c01998a52016112b9565b9560608a0196875283519a8b9a828c525116908a0152519188015260a0870190611364565b925116606085015251601f19848303016080850152611364565b0390f35b8280fd5b5080fd5b828434610961578160031936011261095d5760209160018060a01b039054169051908152f35b5080fd5b5080fd5b828434610990578160031936011261098c5760209060018060a01b03600154169051908152f35b5080fd5b5080fd5b8284346109da5760206003193601126109d6576109cd600182602094828060a01b036109be61115a565b1681526002865220015461127f565b15159051908152f35b5080fd5b5080fd5b8234610a385780600319360112610a35576109f7611451565b80805460018060a01b03198116825560018060a01b03167f8be0079c531659141344cd1fd0a4f28419497f9722a3daafe3b4186f6b6457e08280a380f35b80fd5b80fd5b83915034610a84576020600319360112610a80573591600554831015610a7d5750610a676020926113ef565b905491519160018060a01b039160031b1c168152f35b80fd5b8280fd5b8280fd5b828434610ab05781600319360112610aac5761ffff6020925460a01c169051908152f35b5080fd5b5080fd5b90508234610bd9576020600319360112610bd557610ad061115a565b610ad8611451565b60018060a01b03809116908185526002602052600193610afc85858820015461127f565b1515600014610bcb57828652600260205261ffff806002868920015460081c1690875491818360a01c1603908111610bb85761ffff60a01b9060a01b169061ffff60a01b19161786558486905b610b68575b505050610b649250835260026020528220611603565b5b80f35b8154811015610bb357808484610b80610ba894611420565b90549060031b1c1614600014610bae57610ba2610b9c82611420565b90611557565b5b61158b565b85610b49565b610ba3565b610b4e565b602488601185634e487b7160e01b835252fd5b5050505050610b65565b8280fd5b8280fd5b505034610c5d5780600319360112610c5a57610bf7611451565b81519182916005548085526020809501946005835280832092905b828210610c3857610c348686610c2a828b03836111d4565b51918291826113a6565b0390f35b909192956001828192828060a01b038a54168152019701920190929192610c12565b80fd5b80fd5b828434610c885781600319360112610c845761ffff6020925460a01c169051908152f35b5080fd5b5080fd5b828434610d19576020600319360112610d1557610d118160018060a01b039384610cb461115a565b1681526003602052209283541691610cce600185016112b9565b93610ce4600361ffff60028401541692016112b9565b90610d0083519687968752608060208801526080870190611364565b928501528382036060850152611364565b0390f35b5080fd5b5080fd5b8284608060031936011261108257610d3361115a565b9060243560018060401b039081811161107e57610d53903690870161120a565b9060443561ffff9283821680920361107a5760643583811161107657610d7d889136908b0161120a565b94610d8a835115156114a8565b60018060a01b03938489169182845260039589610dbc610db66020978a895260019d8e9120015461127f565b156114f3565b805194610dc886611174565b808652868601978852818601948552606086019a8b528d528786528c2093511660018060a01b03198454161783558883019451948551888111611062579087949392918d610e16835461127f565b98601f998a811161102c575b5088918a8411600114610fb9579083929192610fad575b5050818d1b9160001990881b1c19161790555b6002830191511661ffff19825416179055019451908151948511610f9a579084939291610e79875461127f565b838111610f64575b5080928511600114610ef457508893610ee6575b505082851b92600019911b1c19161790555b60055490600160401b821015610ed35781610eca91610ed09493016005556113ef565b9061156d565b80f35b602484604187634e487b7160e01b835252fd5b909192500151908880610e95565b929190879550601f198516878b52848b20948b905b828210610f415750508511610f27575b50505050811b019055610ea7565b01519060f884600019921b161c1916905587808080610f19565b849798819394959782939798870151815501970194018997969594939291610f09565b610f8b90888c52828c208580890160051c820192858a10610f91575b0160051c019061153e565b8b610e81565b92508192610f80565b60248960418c634e487b7160e01b835252fd5b90915001513880610e39565b90918e9392601f1984168684528b8420935b8c8282106110015750508411610fe9575b505050811b019055610e4c565b015160001960f8848b1b161c19169055388080610fdc565b929484849395989297999a9b9c9d5086015181550195019301918f9492918d9a999897969492610fcb565b611053908584528a84208c80870160051c8201928d8810611059575b0160051c019061153e565b38610e22565b92508192611048565b5060248c60418f634e487b7160e01b835252fd5b8780fd5b8680fd5b8480fd5b5080fd5b828434611156576020600319360112611152576110a161115a565b906110aa611451565b60018060a01b03809216808452600390816020526001936110cf85858820015461127f565b1515600014611148578486905b6110f8575b50506110f4935084526020528220611603565b5b80f35b60055481101561114357808383611111611138946113ef565b905490881b1c161460001461113e5761113261112c826113ef565b90611557565b5b61158b565b856110dc565b611133565b6110e1565b50505050506110f5565b5080fd5b5080fd5b6004359060018060a01b038216820361116f57565b600080fd5b6080810190811060018060401b0382111761118e57604052565b634e487b7160e01b600052604160045260246000fd5b60a0810190811060018060401b038211176111be57604052565b634e487b7160e01b600052604160045260246000fd5b90601f8019910116810190811060018060401b038211176111f457604052565b634e487b7160e01b600052604160045260246000fd5b81601f8201121561127a5780359060018060401b038211611264576040519261123d6020601f19601f86011601856111d4565b8284526020838301011161125f57816000926020809301838601378301015290565b600080fd5b634e487b7160e01b600052604160045260246000fd5b600080fd5b90600182811c921680156112af575b602083101461129957565b634e487b7160e01b600052602260045260246000fd5b91607f169161128e565b90604051918260008254926112cd8461127f565b90818452600194858116908160001461134157506001146112f9575b50506112f7925003836111d4565b565b9093915060005260209081600020936000915b8183106113245750506112f7935082010138806112e9565b83958194929550805483858b01015201910190939192869361130c565b9150506112f794506020925060ff191682840152151560051b82010138806112e9565b919082519283825260005b848110611390575050826000602080949584010152601f8019910116010190565b602090818082850101519082860101520161136f565b6020908160408183019282815285518094520193019160005b8281106113cd575050505090565b909192938280600192838060a01b0388511681520195019101929190926113bf565b60055481101561140a57600560005260206000200190600090565b634e487b7160e01b600052603260045260246000fd5b60045481101561143b57600460005260206000200190600090565b634e487b7160e01b600052603260045260246000fd5b60018060a01b0360005416330361146457565b606460405162461bcd60e51b815260206004820152602060248201527f4f776e61626c653a2063616c6c6572206973206e6f7420746865206f776e65726044820152fd5b156114af57565b606460405162461bcd60e51b815260206004820152600f60248201527f496e76616c6964206173736574496400000000000000000000000000000000006044820152fd5b156114fa57565b606460405162461bcd60e51b815260206004820152601e60248201527f4163636f756e742068617320616c7265616479207265676973746572656400006044820152fd5b5b81811061154a575050565b806000600192550161153f565b9081549060018060a01b039060031b1b19169055565b919082549060031b9160018060a01b03809116831b921b1916179055565b600019811461159a5760010190565b634e487b7160e01b600052601160045260246000fd5b6115ba815461127f565b90816115c5575b5050565b81601f600093116001146115dd5750555b38806115c1565b9080839182526115fc601f60208420940160051c84016001850161153e565b55556115d6565b60036116269160008155611619600182016115b0565b60006002820155016115b0565b56",
        "linkReferences": {},
        "deployedLinkReferences": {}
    }
}