{
    "_format": "hh-sol-artifact-1",
    "contractName": "PoolMarket",
    "sourceName": "contracts/PoolMarket.sol",
    "abi": [
        {
            "inputs": [
                {
                    "internalType": "address",
                    "name": "_registryContractAddress",
                    "type": "address"
                },
                {
                    "internalType": "uint256",
                    "name": "_minAllowedPrice",
                    "type": "uint256"
                },
                {
                    "internalType": "uint256",
                    "name": "_maxAllowedPrice",
                    "type": "uint256"
                }
            ],
            "stateMutability": "nonpayable",
            "type": "constructor"
        },
        {
            "anonymous": false,
            "inputs": [
                {
                    "indexed": true,
                    "internalType": "uint256",
                    "name": "amount",
                    "type": "uint256"
                },
                {
                    "indexed": true,
                    "internalType": "uint256",
                    "name": "price",
                    "type": "uint256"
                },
                {
                    "indexed": false,
                    "internalType": "address",
                    "name": "sender",
                    "type": "address"
                }
            ],
            "name": "BidSubmitted",
            "type": "event"
        },
        {
            "anonymous": false,
            "inputs": [
                {
                    "indexed": true,
                    "internalType": "uint256",
                    "name": "amount",
                    "type": "uint256"
                },
                {
                    "indexed": true,
                    "internalType": "uint256",
                    "name": "price",
                    "type": "uint256"
                },
                {
                    "indexed": false,
                    "internalType": "address",
                    "name": "sender",
                    "type": "address"
                }
            ],
            "name": "OfferSubmitted",
            "type": "event"
        },
        {
            "anonymous": false,
            "inputs": [
                {
                    "indexed": true,
                    "internalType": "address",
                    "name": "previousOwner",
                    "type": "address"
                },
                {
                    "indexed": true,
                    "internalType": "address",
                    "name": "newOwner",
                    "type": "address"
                }
            ],
            "name": "OwnershipTransferred",
            "type": "event"
        },
        {
            "inputs": [
                {
                    "internalType": "uint256",
                    "name": "hour",
                    "type": "uint256"
                }
            ],
            "name": "calculatePoolPrice",
            "outputs": [],
            "stateMutability": "nonpayable",
            "type": "function"
        },
        {
            "inputs": [],
            "name": "calculateSMP",
            "outputs": [],
            "stateMutability": "nonpayable",
            "type": "function"
        },
        {
            "inputs": [
                {
                    "internalType": "bytes32",
                    "name": "",
                    "type": "bytes32"
                }
            ],
            "name": "energyOffers",
            "outputs": [
                {
                    "internalType": "uint256",
                    "name": "amount",
                    "type": "uint256"
                },
                {
                    "internalType": "uint256",
                    "name": "price",
                    "type": "uint256"
                },
                {
                    "internalType": "uint256",
                    "name": "submitMinute",
                    "type": "uint256"
                },
                {
                    "internalType": "address",
                    "name": "supplierAccount",
                    "type": "address"
                }
            ],
            "stateMutability": "view",
            "type": "function"
        },
        {
            "inputs": [],
            "name": "getBidHours",
            "outputs": [
                {
                    "internalType": "uint256[]",
                    "name": "",
                    "type": "uint256[]"
                }
            ],
            "stateMutability": "view",
            "type": "function"
        },
        {
            "inputs": [
                {
                    "internalType": "uint256",
                    "name": "hour",
                    "type": "uint256"
                }
            ],
            "name": "getDispatchedOffers",
            "outputs": [
                {
                    "components": [
                        {
                            "internalType": "address",
                            "name": "supplierAccount",
                            "type": "address"
                        },
                        {
                            "internalType": "uint256",
                            "name": "dispatchedAmount",
                            "type": "uint256"
                        },
                        {
                            "internalType": "uint256",
                            "name": "dispatchedAt",
                            "type": "uint256"
                        }
                    ],
                    "internalType": "struct IMarket.DispatchedOffer[]",
                    "name": "",
                    "type": "tuple[]"
                }
            ],
            "stateMutability": "view",
            "type": "function"
        },
        {
            "inputs": [
                {
                    "internalType": "uint256",
                    "name": "hour",
                    "type": "uint256"
                }
            ],
            "name": "getEnergyBids",
            "outputs": [
                {
                    "components": [
                        {
                            "internalType": "uint256",
                            "name": "amount",
                            "type": "uint256"
                        },
                        {
                            "internalType": "uint256",
                            "name": "price",
                            "type": "uint256"
                        },
                        {
                            "internalType": "uint256",
                            "name": "submitMinute",
                            "type": "uint256"
                        },
                        {
                            "internalType": "address",
                            "name": "consumerAccount",
                            "type": "address"
                        }
                    ],
                    "internalType": "struct PoolMarket.Bid[]",
                    "name": "",
                    "type": "tuple[]"
                }
            ],
            "stateMutability": "view",
            "type": "function"
        },
        {
            "inputs": [],
            "name": "getLatestTotalDemand",
            "outputs": [
                {
                    "internalType": "uint256",
                    "name": "",
                    "type": "uint256"
                }
            ],
            "stateMutability": "view",
            "type": "function"
        },
        {
            "inputs": [
                {
                    "internalType": "uint256",
                    "name": "minute",
                    "type": "uint256"
                }
            ],
            "name": "getMarginalOffer",
            "outputs": [
                {
                    "components": [
                        {
                            "internalType": "uint256",
                            "name": "amount",
                            "type": "uint256"
                        },
                        {
                            "internalType": "uint256",
                            "name": "price",
                            "type": "uint256"
                        },
                        {
                            "internalType": "uint256",
                            "name": "submitMinute",
                            "type": "uint256"
                        },
                        {
                            "internalType": "address",
                            "name": "supplierAccount",
                            "type": "address"
                        }
                    ],
                    "internalType": "struct PoolMarket.Offer",
                    "name": "",
                    "type": "tuple"
                }
            ],
            "stateMutability": "view",
            "type": "function"
        },
        {
            "inputs": [
                {
                    "internalType": "uint256",
                    "name": "hour",
                    "type": "uint256"
                }
            ],
            "name": "getPoolPrice",
            "outputs": [
                {
                    "internalType": "uint256",
                    "name": "",
                    "type": "uint256"
                }
            ],
            "stateMutability": "view",
            "type": "function"
        },
        {
            "inputs": [],
            "name": "getPoolpriceHours",
            "outputs": [
                {
                    "internalType": "uint256[]",
                    "name": "",
                    "type": "uint256[]"
                }
            ],
            "stateMutability": "view",
            "type": "function"
        },
        {
            "inputs": [
                {
                    "internalType": "uint256",
                    "name": "minute",
                    "type": "uint256"
                }
            ],
            "name": "getSMP",
            "outputs": [
                {
                    "internalType": "uint256",
                    "name": "",
                    "type": "uint256"
                }
            ],
            "stateMutability": "view",
            "type": "function"
        },
        {
            "inputs": [],
            "name": "getSystemMarginalMinutes",
            "outputs": [
                {
                    "internalType": "uint256[]",
                    "name": "",
                    "type": "uint256[]"
                }
            ],
            "stateMutability": "view",
            "type": "function"
        },
        {
            "inputs": [],
            "name": "getTotalDemandMinutes",
            "outputs": [
                {
                    "internalType": "uint256[]",
                    "name": "",
                    "type": "uint256[]"
                }
            ],
            "stateMutability": "view",
            "type": "function"
        },
        {
            "inputs": [],
            "name": "getValidOfferIDs",
            "outputs": [
                {
                    "internalType": "bytes32[]",
                    "name": "",
                    "type": "bytes32[]"
                }
            ],
            "stateMutability": "view",
            "type": "function"
        },
        {
            "inputs": [],
            "name": "maxAllowedPrice",
            "outputs": [
                {
                    "internalType": "uint256",
                    "name": "",
                    "type": "uint256"
                }
            ],
            "stateMutability": "view",
            "type": "function"
        },
        {
            "inputs": [],
            "name": "minAllowedPrice",
            "outputs": [
                {
                    "internalType": "uint256",
                    "name": "",
                    "type": "uint256"
                }
            ],
            "stateMutability": "view",
            "type": "function"
        },
        {
            "inputs": [],
            "name": "owner",
            "outputs": [
                {
                    "internalType": "address",
                    "name": "",
                    "type": "address"
                }
            ],
            "stateMutability": "view",
            "type": "function"
        },
        {
            "inputs": [],
            "name": "renounceOwnership",
            "outputs": [],
            "stateMutability": "nonpayable",
            "type": "function"
        },
        {
            "inputs": [
                {
                    "internalType": "uint256",
                    "name": "_amount",
                    "type": "uint256"
                },
                {
                    "internalType": "uint256",
                    "name": "_price",
                    "type": "uint256"
                }
            ],
            "name": "submitBid",
            "outputs": [],
            "stateMutability": "nonpayable",
            "type": "function"
        },
        {
            "inputs": [
                {
                    "internalType": "uint8",
                    "name": "blockNumber",
                    "type": "uint8"
                },
                {
                    "internalType": "uint256",
                    "name": "amount",
                    "type": "uint256"
                },
                {
                    "internalType": "uint256",
                    "name": "price",
                    "type": "uint256"
                }
            ],
            "name": "submitOffer",
            "outputs": [],
            "stateMutability": "nonpayable",
            "type": "function"
        },
        {
            "inputs": [
                {
                    "internalType": "uint256",
                    "name": "",
                    "type": "uint256"
                }
            ],
            "name": "systemMarginalOfferIDs",
            "outputs": [
                {
                    "internalType": "bytes32",
                    "name": "",
                    "type": "bytes32"
                }
            ],
            "stateMutability": "view",
            "type": "function"
        },
        {
            "inputs": [
                {
                    "internalType": "uint256",
                    "name": "",
                    "type": "uint256"
                }
            ],
            "name": "totalDemands",
            "outputs": [
                {
                    "internalType": "uint256",
                    "name": "",
                    "type": "uint256"
                }
            ],
            "stateMutability": "view",
            "type": "function"
        },
        {
            "inputs": [
                {
                    "internalType": "address",
                    "name": "newOwner",
                    "type": "address"
                }
            ],
            "name": "transferOwnership",
            "outputs": [],
            "stateMutability": "nonpayable",
            "type": "function"
        }
    ],
    "bytecode": "0x6080346100d557611c8880380390601f19601f83011683019183831060018060401b038411176100bf578084926060946040528339810103126100ba57805160018060a01b03918282168092036100b557604060208201519101519160005460018060a01b0319903382821617600055604051953391167f8be0079c531659141344cd1fd0a4f28419497f9722a3daafe3b4186f6b6457e0600080a36006541617600655600755600855611bad90816100db8239f35b600080fd5b600080fd5b634e487b7160e01b600052604160045260246000fd5b600080fdfe604060808152600480361015610015575b600080fd5b600090813560e01c8062f04902146115d757806314bacef71461156d57806321dfca1714611287578063238a1cc314610fe457806325f8a08d14610f705780634c5140a514610f3f578063696e2c0f14610f02578063715018a614610ea557806383f1444d14610e315780638da5cb5b14610e035780639af94f3014610dd2578063a133245b14610dab578063b2f1223814610d7a578063b5b66e1214610d06578063b821da1b14610851578063cab0fb731461082a578063d71a60c0146107fe578063e178854414610780578063ec6eaf6214610724578063ef2d09f9146106bb578063f17e6a70146102f7578063f2fde38b146102125763f790825d1461011e5750610010565b3461020e576020908160031936011261020a5780929192358252825282812090815461014981611b80565b90610156865192836117c4565b8082528482018094845285842084915b8383106101c75750505050845193808501918186525180925285850193925b828110610193578580860390f35b90919293826060600192898851858060a01b038151168352848101518584015201518a820152019501910192919092610185565b6003886001928b9a97989a516101dc81611764565b848060a01b038654168152848601548382015260028601548d82015281520192019201919096949396610166565b8280fd5b5080fd5b5082346102f35760206003193601126102ef5781359160018060a01b03918284168094036102eb5761024261170d565b831561028257505082548260018060a01b03198216178455167f8be0079c531659141344cd1fd0a4f28419497f9722a3daafe3b4186f6b6457e08380a380f35b906020608492519162461bcd60e51b8352820152602660248201527f4f776e61626c653a206e6577206f776e657220697320746865207a65726f206160448201527f64647265737300000000000000000000000000000000000000000000000000006064820152fd5b8480fd5b8280fd5b8280fd5b508290346106b757606091826003193601126106b35781359060ff821682036106af576024928335936044359560018060a01b03948560065416958551966373b6f1d360e01b8852338689015260209788818781855afa9081156106a3578c91610676575b5015610635578a85916008548c111580610624575b61037a9061181c565b885192838092637f3804f960e11b8252338b8301525afa908115610618579084918c9161052c575b5061ffff925001511687116104eb5784518681019133841b835260ff60f81b9060f81b1660348201526015815285810181811060018060401b038211176104d957865251902091828952600186526002858a200154156000146104d457600554600160401b8110156104c25760018101806005558110156104b057839060058b52878b2001555b603c420493603c850294808604603c149015171561049f575050916104979184937f60e344e47525731fddb78da0406d35494f63a1e7ebb282981fa22ca34f00168c9695519261047884611794565b888452898785015285840152339083015288526001845282882061197d565b51338152a380f35b60118a91634e487b7160e01b835252fd5b5088603285634e487b7160e01b835252fd5b5088604185634e487b7160e01b835252fd5b610429565b848b604188634e487b7160e01b835252fd5b606484600e858989519362461bcd60e51b85528401528201527f496e76616c696420616d6f756e740000000000000000000000000000000000006044820152fd5b9150503d808c833e61053e81836117c4565b810191888284031261061457815160018060401b0392838211610610570160a08185031261060c5788519160a08301838110858211176105fa578a52815190811681036105f6578252898101518381116105f2578461059e918301611867565b8a8301528881015160ff811681036105ee57898301526105bf8682016118f7565b8683015260808101519283116105ea5761ffff9386936105df9201611867565b60808201528c6103a2565b8c80fd5b8d80fd5b8d80fd5b8d80fd5b888f60418c634e487b7160e01b835252fd5b8c80fd5b8d80fd5b8b80fd5b8b8851903d90823e3d90fd5b5061037a6007548d10159050610371565b6064866015878b8b519362461bcd60e51b85528401528201527f556e7265676973746572656420737570706c69657200000000000000000000006044820152fd5b6106969150893d8b1161069c575b61068e81836117c4565b8101906117fa565b8c61035c565b503d610684565b8c8951903d90823e3d90fd5b8480fd5b8380fd5b8280fd5b5082903461072057602060031936011261071c57610711828461071a93608096606084516106e881611794565b828152826020820152828682015201523581526009602052818120548152600160205220611b45565b9151809261169f565bf35b8280fd5b8280fd5b5082903461077c57602060031936011261077857608092829135815260016020522090815491600181015491600282015491600360018060a01b039101541692815194855260208501528301526060820152f35b8280fd5b8280fd5b8284346107fa57816003193601126107f657338252602090600282528083209281518093808654928381520195835280832092905b8282106107db576107d786866107cd828b03836117c4565b51918291826116cb565b0390f35b909192956001828192895481520197019201909291926107b5565b5080fd5b5080fd5b82843461082657816003193601126108225760209061081b611ad3565b9051908152f35b5080fd5b5080fd5b82843461084d5781600319360112610849576020906008549051908152f35b5080fd5b5080fd5b508234610d025780600319360112610cfe5781359060249081359360018060a01b03908160065416938351809563b2a89e1560e01b82523384830152818360209889935afa908115610cf2578991610cc5575b5015610c845760085487111580610c73575b6108bf9061181c565b610e10804204818102918183041490151715610c6157603c420493603c850294808604603c1490151715610c4f5789338b5260028852868b2080548015159182610c14575b5050600014610bc55750818a526003808852868b205460001990818101908111610bb3579061093d8a8a8f8686935b8a835252206119da565b508484339201541614600014610b87575061095f91848d528952878c206119da565b50545b8861096b611ad3565b848d5260038a52888d205415600014610b8257508b5b01818110610b41578591899103926006541688519283809263442c18f360e01b82525afa8015610b35578b90610afb575b61ffff9150168111610aba57848a52600d8752858a2055600e5490600160401b9182811015610aa8576001810180600e55811015610a96578590600e8c52888c200155895260038652848920855194610a0a86611794565b888652898887015286860152336060860152805491821015610a845790610a36916001820181556119da565b929092610a745750507f2eef226398f000ec33af3b3be58878356d5c7b195bff89de5067bbfe7d2ee4a3939291610a6c9161197d565b51338152a380f35b888091634e487b7160e01b825252fd5b828a604186634e487b7160e01b835252fd5b838b603287634e487b7160e01b835252fd5b838b604187634e487b7160e01b835252fd5b606484601b858a8a519362461bcd60e51b85528401528201527f44656d616e64206578636565647320746f74616c20737570706c7900000000006044820152fd5b508781813d8311610b2e575b610b1181836117c4565b81010312610b2a57610b2561ffff916118f7565b6109b2565b8a80fd5b503d610b07565b8b8851903d90823e3d90fd5b6064866014878c8c519362461bcd60e51b85528401528201527f4f766572666c6f77206d61782075696e743235360000000000000000000000006044820152fd5b610981565b908015610ba1579061093d8a8a8f84879601958693610933565b858d601189634e487b7160e01b835252fd5b858d601189634e487b7160e01b835252fd5b338b5260028852868b20805490600160401b821015610c0257610bf282610bfb926001889501815561193c565b8193915461196a565b9055610962565b858d604189634e487b7160e01b835252fd5b9091506000198201918211610c3d578491610c2e9161193c565b90549060031b1c148c80610904565b858d601189634e487b7160e01b835252fd5b828a601186634e487b7160e01b835252fd5b5087601183634e487b7160e01b835252fd5b506108bf60075488101590506108b6565b9060156064928686519362461bcd60e51b85528401528201527f556e7265676973746572656420636f6e73756d657200000000000000000000006044820152fd5b610ce59150863d8811610ceb575b610cdd81836117c4565b8101906117fa565b896108a4565b503d610cd3565b898651903d90823e3d90fd5b8280fd5b8280fd5b505034610d775780600319360112610d74578151918291600c54808552602080950194600c835280832092905b828210610d5957610d558686610d4b828b03836117c4565b51918291826116cb565b0390f35b90919295600182819289548152019701920190929192610d33565b80fd5b80fd5b50829034610da7576020600319360112610da3576020928291358152600d845220549051908152f35b8280fd5b8280fd5b828434610dce5781600319360112610dca576020906007549051908152f35b5080fd5b5080fd5b50829034610dff576020600319360112610dfb576020928291358152600a845220549051908152f35b8280fd5b8280fd5b828434610e2d5781600319360112610e295760209160018060a01b039054169051908152f35b5080fd5b5080fd5b505034610ea25780600319360112610e9f578151918291600e54808552602080950194600e835280832092905b828210610e8457610e808686610e76828b03836117c4565b51918291826116cb565b0390f35b90919295600182819289548152019701920190929192610e5e565b80fd5b80fd5b8234610eff5780600319360112610efc57610ebe61170d565b80805460018060a01b03198116825560018060a01b03167f8be0079c531659141344cd1fd0a4f28419497f9722a3daafe3b4186f6b6457e08280a380f35b80fd5b80fd5b50829034610f3b576020600319360112610f375781602093600192358152600985528181205481528285522001549051908152f35b8280fd5b8280fd5b50829034610f6c576020600319360112610f685760209282913581526009845220549051908152f35b8280fd5b8280fd5b505034610fe15780600319360112610fde578151918291600b54808552602080950194600b835280832092905b828210610fc357610fbf8686610fb5828b03836117c4565b51918291826116cb565b0390f35b90919295600182819289548152019701920190929192610f9d565b80fd5b80fd5b508290346112835760208060031936011261127f5781359261100461170d565b4284101561123e57848590600b545b80831061107c5750603c9150858752600a84520490852055600c5491600160401b831015611069576001830180600c558310156110565750600c84528320015580f35b846032602492634e487b7160e01b835252fd5b846041602492634e487b7160e01b835252fd5b906110868361190b565b919054600392831b1c8881101580611217575b60001461120b5789526009865284892054895260019182875282868b2001549260001985018581116111f8578a908710806111a1575b60001461115e5750850180861161114b57603c916110ef61110a9261190b565b905490821b1c906110ff8861190b565b9054911b1c906119b7565b04915b828102928184041490151715611138576111319161112a91611a5b565b925b611a0c565b9190611013565b602489601189634e487b7160e01b835252fd5b60248b60118b634e487b7160e01b835252fd5b91905061117e61116d8761190b565b939092603c94859454911b1c6119b7565b04810390811161118e579161110d565b60248a60118a634e487b7160e01b835252fd5b50508086018087116111e5576111b69061190b565b905490831b1c610e108b0190818c116111d257908b91106110cf565b60248d60118d634e487b7160e01b835252fd5b60248c60118c634e487b7160e01b835252fd5b60248c60118c634e487b7160e01b835252fd5b5092611131915061112c565b50610e108901808a1161122b578110611099565b60248b60118b634e487b7160e01b835252fd5b60649350519162461bcd60e51b8352820152601160248201527f486f7572206973206e6f742076616c69640000000000000000000000000000006044820152fd5b8380fd5b8280fd5b5082346115695782600319360112611565576112a161170d565b610e10918242048381029381850414901517156115525782845260206003815282852054151580611547575b60001461153e5784926112de611ad3565b946112e7611a7e565b958651885b81811061148b57505087915b875183101561147e5761130b8389611a31565b5189526001855260018060a01b0391826003868c2001541661132d858b611a31565b518b5260018752611342868c2054809a611a5b565b93838c52888852868c209987519261135984611764565b8352888301908152878301914283528b54600160401b9c8d82101561146a576001820180825582101561145657908f8c81600297969594600393522091020194511660018060a01b0319855416178455516001840155519101558083101560001461144357505050603c95864204878102978189041490151715611430576009916113e391611a31565b519286885252852055600b9081549283101561141d57508161140d9160016114169401905561190b565b8193915461196a565b90555b5b80f35b846041602492634e487b7160e01b835252fd5b602488601187634e487b7160e01b835252fd5b9196509161145090611a0c565b916112f8565b5060248f60328e634e487b7160e01b835252fd5b5060248f60418e634e487b7160e01b835252fd5b5050505050505050611419565b600180820180831161152b575b8a878d8684106114b55750505050506114b090611a0c565b6112ec565b829185916114c7886115219796611a31565b518152828d526114dd8584848420015495611a31565b518152828d5220015410600014611526578b61151a826114fd8784611a31565b51926115098282611a31565b516115148983611a31565b52611a31565b525b611a0c565b611498565b61151c565b60248c60118b634e487b7160e01b835252fd5b5050505061141a565b5060055415156112cd565b836011602492634e487b7160e01b835252fd5b8280fd5b8280fd5b8284346115d357816003193601126115cf57611587611a7e565b815192839260208080860192818752855180945286019401925b8281106115b057505050500390f35b91938395509080600192819551815201950191019185949391926115a1565b5080fd5b5080fd5b5082903461169b576020806003193601126116975790803584526003825282842091825461160481611b80565b92611611865194856117c4565b8184528284018095885283882088915b8483106116715750505050508351938185019282865251809352840192945b82811061164e578480850390f35b909192826080826116626001948a5161169f565b01960191019492919094611640565b8386600192611684859d999a9b9d611b45565b8152019201920191909896959498611621565b8380fd5b8280fd5b6060908051835260208101516020840152604081015160408401528160018060a01b0391015116910152565b6020908160408183019282815285518094520193019160005b8281106116f2575050505090565b909192938280600192875181520195019101929190926116e4565b60018060a01b0360005416330361172057565b606460405162461bcd60e51b815260206004820152602060248201527f4f776e61626c653a2063616c6c6572206973206e6f7420746865206f776e65726044820152fd5b6060810190811060018060401b0382111761177e57604052565b634e487b7160e01b600052604160045260246000fd5b6080810190811060018060401b038211176117ae57604052565b634e487b7160e01b600052604160045260246000fd5b90601f8019910116810190811060018060401b038211176117e457604052565b634e487b7160e01b600052604160045260246000fd5b90816020910312611817575180151581036118125790565b600080fd5b600080fd5b1561182357565b606460405162461bcd60e51b815260206004820152600d60248201527f496e76616c6964207072696365000000000000000000000000000000000000006044820152fd5b919080601f840112156118f25782519060018060401b0382116118dc576040519160209161189e83601f19601f85011601856117c4565b8184528282870101116118d75760005b8181106118c357508260009394955001015290565b8083809288010151828287010152016118ae565b600080fd5b634e487b7160e01b600052604160045260246000fd5b600080fd5b519061ffff8216820361190657565b600080fd5b600b5481101561192657600b60005260206000200190600090565b634e487b7160e01b600052603260045260246000fd5b80548210156119545760005260206000200190600090565b634e487b7160e01b600052603260045260246000fd5b9060031b91821b91600019901b19161790565b6003908251815560208301516001820155604083015160028201550190606060018060a01b039101511660018060a01b0319825416179055565b919082039182116119c457565b634e487b7160e01b600052601160045260246000fd5b80548210156119f65760005260206000209060021b0190600090565b634e487b7160e01b600052603260045260246000fd5b6000198114611a1b5760010190565b634e487b7160e01b600052601160045260246000fd5b8051821015611a455760209160051b010190565b634e487b7160e01b600052603260045260246000fd5b91908201809211611a6857565b634e487b7160e01b600052601160045260246000fd5b604051906005548083528260209182820190600560005283600020936000905b828210611ab657505050611ab4925003836117c4565b565b919350916001828192875481520195019201869391949294611a9e565b600e54801515600014611b3f5760001990818101818111611b2957811115611b1357600e6000526020600020010154600052600d60205260406000205490565b634e487b7160e01b600052603260045260246000fd5b634e487b7160e01b600052601160045260246000fd5b50600090565b90604051611b5281611794565b60608193805483526001810154602084015260028101546040840152600360018060a01b0391015416910152565b60018060401b038111611b975760209060051b0190565b634e487b7160e01b600052604160045260246000fd",
    "linkReferences": {},
    "deployedLinkReferences": {},
    "default": {
        "_format": "hh-sol-artifact-1",
        "contractName": "PoolMarket",
        "sourceName": "contracts/PoolMarket.sol",
        "abi": [
            {
                "inputs": [
                    {
                        "internalType": "address",
                        "name": "_registryContractAddress",
                        "type": "address"
                    },
                    {
                        "internalType": "uint256",
                        "name": "_minAllowedPrice",
                        "type": "uint256"
                    },
                    {
                        "internalType": "uint256",
                        "name": "_maxAllowedPrice",
                        "type": "uint256"
                    }
                ],
                "stateMutability": "nonpayable",
                "type": "constructor"
            },
            {
                "anonymous": false,
                "inputs": [
                    {
                        "indexed": true,
                        "internalType": "uint256",
                        "name": "amount",
                        "type": "uint256"
                    },
                    {
                        "indexed": true,
                        "internalType": "uint256",
                        "name": "price",
                        "type": "uint256"
                    },
                    {
                        "indexed": false,
                        "internalType": "address",
                        "name": "sender",
                        "type": "address"
                    }
                ],
                "name": "BidSubmitted",
                "type": "event"
            },
            {
                "anonymous": false,
                "inputs": [
                    {
                        "indexed": true,
                        "internalType": "uint256",
                        "name": "amount",
                        "type": "uint256"
                    },
                    {
                        "indexed": true,
                        "internalType": "uint256",
                        "name": "price",
                        "type": "uint256"
                    },
                    {
                        "indexed": false,
                        "internalType": "address",
                        "name": "sender",
                        "type": "address"
                    }
                ],
                "name": "OfferSubmitted",
                "type": "event"
            },
            {
                "anonymous": false,
                "inputs": [
                    {
                        "indexed": true,
                        "internalType": "address",
                        "name": "previousOwner",
                        "type": "address"
                    },
                    {
                        "indexed": true,
                        "internalType": "address",
                        "name": "newOwner",
                        "type": "address"
                    }
                ],
                "name": "OwnershipTransferred",
                "type": "event"
            },
            {
                "inputs": [
                    {
                        "internalType": "uint256",
                        "name": "hour",
                        "type": "uint256"
                    }
                ],
                "name": "calculatePoolPrice",
                "outputs": [],
                "stateMutability": "nonpayable",
                "type": "function"
            },
            {
                "inputs": [],
                "name": "calculateSMP",
                "outputs": [],
                "stateMutability": "nonpayable",
                "type": "function"
            },
            {
                "inputs": [
                    {
                        "internalType": "bytes32",
                        "name": "",
                        "type": "bytes32"
                    }
                ],
                "name": "energyOffers",
                "outputs": [
                    {
                        "internalType": "uint256",
                        "name": "amount",
                        "type": "uint256"
                    },
                    {
                        "internalType": "uint256",
                        "name": "price",
                        "type": "uint256"
                    },
                    {
                        "internalType": "uint256",
                        "name": "submitMinute",
                        "type": "uint256"
                    },
                    {
                        "internalType": "address",
                        "name": "supplierAccount",
                        "type": "address"
                    }
                ],
                "stateMutability": "view",
                "type": "function"
            },
            {
                "inputs": [],
                "name": "getBidHours",
                "outputs": [
                    {
                        "internalType": "uint256[]",
                        "name": "",
                        "type": "uint256[]"
                    }
                ],
                "stateMutability": "view",
                "type": "function"
            },
            {
                "inputs": [
                    {
                        "internalType": "uint256",
                        "name": "hour",
                        "type": "uint256"
                    }
                ],
                "name": "getDispatchedOffers",
                "outputs": [
                    {
                        "components": [
                            {
                                "internalType": "address",
                                "name": "supplierAccount",
                                "type": "address"
                            },
                            {
                                "internalType": "uint256",
                                "name": "dispatchedAmount",
                                "type": "uint256"
                            },
                            {
                                "internalType": "uint256",
                                "name": "dispatchedAt",
                                "type": "uint256"
                            }
                        ],
                        "internalType": "struct IMarket.DispatchedOffer[]",
                        "name": "",
                        "type": "tuple[]"
                    }
                ],
                "stateMutability": "view",
                "type": "function"
            },
            {
                "inputs": [
                    {
                        "internalType": "uint256",
                        "name": "hour",
                        "type": "uint256"
                    }
                ],
                "name": "getEnergyBids",
                "outputs": [
                    {
                        "components": [
                            {
                                "internalType": "uint256",
                                "name": "amount",
                                "type": "uint256"
                            },
                            {
                                "internalType": "uint256",
                                "name": "price",
                                "type": "uint256"
                            },
                            {
                                "internalType": "uint256",
                                "name": "submitMinute",
                                "type": "uint256"
                            },
                            {
                                "internalType": "address",
                                "name": "consumerAccount",
                                "type": "address"
                            }
                        ],
                        "internalType": "struct PoolMarket.Bid[]",
                        "name": "",
                        "type": "tuple[]"
                    }
                ],
                "stateMutability": "view",
                "type": "function"
            },
            {
                "inputs": [],
                "name": "getLatestTotalDemand",
                "outputs": [
                    {
                        "internalType": "uint256",
                        "name": "",
                        "type": "uint256"
                    }
                ],
                "stateMutability": "view",
                "type": "function"
            },
            {
                "inputs": [
                    {
                        "internalType": "uint256",
                        "name": "minute",
                        "type": "uint256"
                    }
                ],
                "name": "getMarginalOffer",
                "outputs": [
                    {
                        "components": [
                            {
                                "internalType": "uint256",
                                "name": "amount",
                                "type": "uint256"
                            },
                            {
                                "internalType": "uint256",
                                "name": "price",
                                "type": "uint256"
                            },
                            {
                                "internalType": "uint256",
                                "name": "submitMinute",
                                "type": "uint256"
                            },
                            {
                                "internalType": "address",
                                "name": "supplierAccount",
                                "type": "address"
                            }
                        ],
                        "internalType": "struct PoolMarket.Offer",
                        "name": "",
                        "type": "tuple"
                    }
                ],
                "stateMutability": "view",
                "type": "function"
            },
            {
                "inputs": [
                    {
                        "internalType": "uint256",
                        "name": "hour",
                        "type": "uint256"
                    }
                ],
                "name": "getPoolPrice",
                "outputs": [
                    {
                        "internalType": "uint256",
                        "name": "",
                        "type": "uint256"
                    }
                ],
                "stateMutability": "view",
                "type": "function"
            },
            {
                "inputs": [],
                "name": "getPoolpriceHours",
                "outputs": [
                    {
                        "internalType": "uint256[]",
                        "name": "",
                        "type": "uint256[]"
                    }
                ],
                "stateMutability": "view",
                "type": "function"
            },
            {
                "inputs": [
                    {
                        "internalType": "uint256",
                        "name": "minute",
                        "type": "uint256"
                    }
                ],
                "name": "getSMP",
                "outputs": [
                    {
                        "internalType": "uint256",
                        "name": "",
                        "type": "uint256"
                    }
                ],
                "stateMutability": "view",
                "type": "function"
            },
            {
                "inputs": [],
                "name": "getSystemMarginalMinutes",
                "outputs": [
                    {
                        "internalType": "uint256[]",
                        "name": "",
                        "type": "uint256[]"
                    }
                ],
                "stateMutability": "view",
                "type": "function"
            },
            {
                "inputs": [],
                "name": "getTotalDemandMinutes",
                "outputs": [
                    {
                        "internalType": "uint256[]",
                        "name": "",
                        "type": "uint256[]"
                    }
                ],
                "stateMutability": "view",
                "type": "function"
            },
            {
                "inputs": [],
                "name": "getValidOfferIDs",
                "outputs": [
                    {
                        "internalType": "bytes32[]",
                        "name": "",
                        "type": "bytes32[]"
                    }
                ],
                "stateMutability": "view",
                "type": "function"
            },
            {
                "inputs": [],
                "name": "maxAllowedPrice",
                "outputs": [
                    {
                        "internalType": "uint256",
                        "name": "",
                        "type": "uint256"
                    }
                ],
                "stateMutability": "view",
                "type": "function"
            },
            {
                "inputs": [],
                "name": "minAllowedPrice",
                "outputs": [
                    {
                        "internalType": "uint256",
                        "name": "",
                        "type": "uint256"
                    }
                ],
                "stateMutability": "view",
                "type": "function"
            },
            {
                "inputs": [],
                "name": "owner",
                "outputs": [
                    {
                        "internalType": "address",
                        "name": "",
                        "type": "address"
                    }
                ],
                "stateMutability": "view",
                "type": "function"
            },
            {
                "inputs": [],
                "name": "renounceOwnership",
                "outputs": [],
                "stateMutability": "nonpayable",
                "type": "function"
            },
            {
                "inputs": [
                    {
                        "internalType": "uint256",
                        "name": "_amount",
                        "type": "uint256"
                    },
                    {
                        "internalType": "uint256",
                        "name": "_price",
                        "type": "uint256"
                    }
                ],
                "name": "submitBid",
                "outputs": [],
                "stateMutability": "nonpayable",
                "type": "function"
            },
            {
                "inputs": [
                    {
                        "internalType": "uint8",
                        "name": "blockNumber",
                        "type": "uint8"
                    },
                    {
                        "internalType": "uint256",
                        "name": "amount",
                        "type": "uint256"
                    },
                    {
                        "internalType": "uint256",
                        "name": "price",
                        "type": "uint256"
                    }
                ],
                "name": "submitOffer",
                "outputs": [],
                "stateMutability": "nonpayable",
                "type": "function"
            },
            {
                "inputs": [
                    {
                        "internalType": "uint256",
                        "name": "",
                        "type": "uint256"
                    }
                ],
                "name": "systemMarginalOfferIDs",
                "outputs": [
                    {
                        "internalType": "bytes32",
                        "name": "",
                        "type": "bytes32"
                    }
                ],
                "stateMutability": "view",
                "type": "function"
            },
            {
                "inputs": [
                    {
                        "internalType": "uint256",
                        "name": "",
                        "type": "uint256"
                    }
                ],
                "name": "totalDemands",
                "outputs": [
                    {
                        "internalType": "uint256",
                        "name": "",
                        "type": "uint256"
                    }
                ],
                "stateMutability": "view",
                "type": "function"
            },
            {
                "inputs": [
                    {
                        "internalType": "address",
                        "name": "newOwner",
                        "type": "address"
                    }
                ],
                "name": "transferOwnership",
                "outputs": [],
                "stateMutability": "nonpayable",
                "type": "function"
            }
        ],
        "bytecode": "0x6080346100d557611c8880380390601f19601f83011683019183831060018060401b038411176100bf578084926060946040528339810103126100ba57805160018060a01b03918282168092036100b557604060208201519101519160005460018060a01b0319903382821617600055604051953391167f8be0079c531659141344cd1fd0a4f28419497f9722a3daafe3b4186f6b6457e0600080a36006541617600655600755600855611bad90816100db8239f35b600080fd5b600080fd5b634e487b7160e01b600052604160045260246000fd5b600080fdfe604060808152600480361015610015575b600080fd5b600090813560e01c8062f04902146115d757806314bacef71461156d57806321dfca1714611287578063238a1cc314610fe457806325f8a08d14610f705780634c5140a514610f3f578063696e2c0f14610f02578063715018a614610ea557806383f1444d14610e315780638da5cb5b14610e035780639af94f3014610dd2578063a133245b14610dab578063b2f1223814610d7a578063b5b66e1214610d06578063b821da1b14610851578063cab0fb731461082a578063d71a60c0146107fe578063e178854414610780578063ec6eaf6214610724578063ef2d09f9146106bb578063f17e6a70146102f7578063f2fde38b146102125763f790825d1461011e5750610010565b3461020e576020908160031936011261020a5780929192358252825282812090815461014981611b80565b90610156865192836117c4565b8082528482018094845285842084915b8383106101c75750505050845193808501918186525180925285850193925b828110610193578580860390f35b90919293826060600192898851858060a01b038151168352848101518584015201518a820152019501910192919092610185565b6003886001928b9a97989a516101dc81611764565b848060a01b038654168152848601548382015260028601548d82015281520192019201919096949396610166565b8280fd5b5080fd5b5082346102f35760206003193601126102ef5781359160018060a01b03918284168094036102eb5761024261170d565b831561028257505082548260018060a01b03198216178455167f8be0079c531659141344cd1fd0a4f28419497f9722a3daafe3b4186f6b6457e08380a380f35b906020608492519162461bcd60e51b8352820152602660248201527f4f776e61626c653a206e6577206f776e657220697320746865207a65726f206160448201527f64647265737300000000000000000000000000000000000000000000000000006064820152fd5b8480fd5b8280fd5b8280fd5b508290346106b757606091826003193601126106b35781359060ff821682036106af576024928335936044359560018060a01b03948560065416958551966373b6f1d360e01b8852338689015260209788818781855afa9081156106a3578c91610676575b5015610635578a85916008548c111580610624575b61037a9061181c565b885192838092637f3804f960e11b8252338b8301525afa908115610618579084918c9161052c575b5061ffff925001511687116104eb5784518681019133841b835260ff60f81b9060f81b1660348201526015815285810181811060018060401b038211176104d957865251902091828952600186526002858a200154156000146104d457600554600160401b8110156104c25760018101806005558110156104b057839060058b52878b2001555b603c420493603c850294808604603c149015171561049f575050916104979184937f60e344e47525731fddb78da0406d35494f63a1e7ebb282981fa22ca34f00168c9695519261047884611794565b888452898785015285840152339083015288526001845282882061197d565b51338152a380f35b60118a91634e487b7160e01b835252fd5b5088603285634e487b7160e01b835252fd5b5088604185634e487b7160e01b835252fd5b610429565b848b604188634e487b7160e01b835252fd5b606484600e858989519362461bcd60e51b85528401528201527f496e76616c696420616d6f756e740000000000000000000000000000000000006044820152fd5b9150503d808c833e61053e81836117c4565b810191888284031261061457815160018060401b0392838211610610570160a08185031261060c5788519160a08301838110858211176105fa578a52815190811681036105f6578252898101518381116105f2578461059e918301611867565b8a8301528881015160ff811681036105ee57898301526105bf8682016118f7565b8683015260808101519283116105ea5761ffff9386936105df9201611867565b60808201528c6103a2565b8c80fd5b8d80fd5b8d80fd5b8d80fd5b888f60418c634e487b7160e01b835252fd5b8c80fd5b8d80fd5b8b80fd5b8b8851903d90823e3d90fd5b5061037a6007548d10159050610371565b6064866015878b8b519362461bcd60e51b85528401528201527f556e7265676973746572656420737570706c69657200000000000000000000006044820152fd5b6106969150893d8b1161069c575b61068e81836117c4565b8101906117fa565b8c61035c565b503d610684565b8c8951903d90823e3d90fd5b8480fd5b8380fd5b8280fd5b5082903461072057602060031936011261071c57610711828461071a93608096606084516106e881611794565b828152826020820152828682015201523581526009602052818120548152600160205220611b45565b9151809261169f565bf35b8280fd5b8280fd5b5082903461077c57602060031936011261077857608092829135815260016020522090815491600181015491600282015491600360018060a01b039101541692815194855260208501528301526060820152f35b8280fd5b8280fd5b8284346107fa57816003193601126107f657338252602090600282528083209281518093808654928381520195835280832092905b8282106107db576107d786866107cd828b03836117c4565b51918291826116cb565b0390f35b909192956001828192895481520197019201909291926107b5565b5080fd5b5080fd5b82843461082657816003193601126108225760209061081b611ad3565b9051908152f35b5080fd5b5080fd5b82843461084d5781600319360112610849576020906008549051908152f35b5080fd5b5080fd5b508234610d025780600319360112610cfe5781359060249081359360018060a01b03908160065416938351809563b2a89e1560e01b82523384830152818360209889935afa908115610cf2578991610cc5575b5015610c845760085487111580610c73575b6108bf9061181c565b610e10804204818102918183041490151715610c6157603c420493603c850294808604603c1490151715610c4f5789338b5260028852868b2080548015159182610c14575b5050600014610bc55750818a526003808852868b205460001990818101908111610bb3579061093d8a8a8f8686935b8a835252206119da565b508484339201541614600014610b87575061095f91848d528952878c206119da565b50545b8861096b611ad3565b848d5260038a52888d205415600014610b8257508b5b01818110610b41578591899103926006541688519283809263442c18f360e01b82525afa8015610b35578b90610afb575b61ffff9150168111610aba57848a52600d8752858a2055600e5490600160401b9182811015610aa8576001810180600e55811015610a96578590600e8c52888c200155895260038652848920855194610a0a86611794565b888652898887015286860152336060860152805491821015610a845790610a36916001820181556119da565b929092610a745750507f2eef226398f000ec33af3b3be58878356d5c7b195bff89de5067bbfe7d2ee4a3939291610a6c9161197d565b51338152a380f35b888091634e487b7160e01b825252fd5b828a604186634e487b7160e01b835252fd5b838b603287634e487b7160e01b835252fd5b838b604187634e487b7160e01b835252fd5b606484601b858a8a519362461bcd60e51b85528401528201527f44656d616e64206578636565647320746f74616c20737570706c7900000000006044820152fd5b508781813d8311610b2e575b610b1181836117c4565b81010312610b2a57610b2561ffff916118f7565b6109b2565b8a80fd5b503d610b07565b8b8851903d90823e3d90fd5b6064866014878c8c519362461bcd60e51b85528401528201527f4f766572666c6f77206d61782075696e743235360000000000000000000000006044820152fd5b610981565b908015610ba1579061093d8a8a8f84879601958693610933565b858d601189634e487b7160e01b835252fd5b858d601189634e487b7160e01b835252fd5b338b5260028852868b20805490600160401b821015610c0257610bf282610bfb926001889501815561193c565b8193915461196a565b9055610962565b858d604189634e487b7160e01b835252fd5b9091506000198201918211610c3d578491610c2e9161193c565b90549060031b1c148c80610904565b858d601189634e487b7160e01b835252fd5b828a601186634e487b7160e01b835252fd5b5087601183634e487b7160e01b835252fd5b506108bf60075488101590506108b6565b9060156064928686519362461bcd60e51b85528401528201527f556e7265676973746572656420636f6e73756d657200000000000000000000006044820152fd5b610ce59150863d8811610ceb575b610cdd81836117c4565b8101906117fa565b896108a4565b503d610cd3565b898651903d90823e3d90fd5b8280fd5b8280fd5b505034610d775780600319360112610d74578151918291600c54808552602080950194600c835280832092905b828210610d5957610d558686610d4b828b03836117c4565b51918291826116cb565b0390f35b90919295600182819289548152019701920190929192610d33565b80fd5b80fd5b50829034610da7576020600319360112610da3576020928291358152600d845220549051908152f35b8280fd5b8280fd5b828434610dce5781600319360112610dca576020906007549051908152f35b5080fd5b5080fd5b50829034610dff576020600319360112610dfb576020928291358152600a845220549051908152f35b8280fd5b8280fd5b828434610e2d5781600319360112610e295760209160018060a01b039054169051908152f35b5080fd5b5080fd5b505034610ea25780600319360112610e9f578151918291600e54808552602080950194600e835280832092905b828210610e8457610e808686610e76828b03836117c4565b51918291826116cb565b0390f35b90919295600182819289548152019701920190929192610e5e565b80fd5b80fd5b8234610eff5780600319360112610efc57610ebe61170d565b80805460018060a01b03198116825560018060a01b03167f8be0079c531659141344cd1fd0a4f28419497f9722a3daafe3b4186f6b6457e08280a380f35b80fd5b80fd5b50829034610f3b576020600319360112610f375781602093600192358152600985528181205481528285522001549051908152f35b8280fd5b8280fd5b50829034610f6c576020600319360112610f685760209282913581526009845220549051908152f35b8280fd5b8280fd5b505034610fe15780600319360112610fde578151918291600b54808552602080950194600b835280832092905b828210610fc357610fbf8686610fb5828b03836117c4565b51918291826116cb565b0390f35b90919295600182819289548152019701920190929192610f9d565b80fd5b80fd5b508290346112835760208060031936011261127f5781359261100461170d565b4284101561123e57848590600b545b80831061107c5750603c9150858752600a84520490852055600c5491600160401b831015611069576001830180600c558310156110565750600c84528320015580f35b846032602492634e487b7160e01b835252fd5b846041602492634e487b7160e01b835252fd5b906110868361190b565b919054600392831b1c8881101580611217575b60001461120b5789526009865284892054895260019182875282868b2001549260001985018581116111f8578a908710806111a1575b60001461115e5750850180861161114b57603c916110ef61110a9261190b565b905490821b1c906110ff8861190b565b9054911b1c906119b7565b04915b828102928184041490151715611138576111319161112a91611a5b565b925b611a0c565b9190611013565b602489601189634e487b7160e01b835252fd5b60248b60118b634e487b7160e01b835252fd5b91905061117e61116d8761190b565b939092603c94859454911b1c6119b7565b04810390811161118e579161110d565b60248a60118a634e487b7160e01b835252fd5b50508086018087116111e5576111b69061190b565b905490831b1c610e108b0190818c116111d257908b91106110cf565b60248d60118d634e487b7160e01b835252fd5b60248c60118c634e487b7160e01b835252fd5b60248c60118c634e487b7160e01b835252fd5b5092611131915061112c565b50610e108901808a1161122b578110611099565b60248b60118b634e487b7160e01b835252fd5b60649350519162461bcd60e51b8352820152601160248201527f486f7572206973206e6f742076616c69640000000000000000000000000000006044820152fd5b8380fd5b8280fd5b5082346115695782600319360112611565576112a161170d565b610e10918242048381029381850414901517156115525782845260206003815282852054151580611547575b60001461153e5784926112de611ad3565b946112e7611a7e565b958651885b81811061148b57505087915b875183101561147e5761130b8389611a31565b5189526001855260018060a01b0391826003868c2001541661132d858b611a31565b518b5260018752611342868c2054809a611a5b565b93838c52888852868c209987519261135984611764565b8352888301908152878301914283528b54600160401b9c8d82101561146a576001820180825582101561145657908f8c81600297969594600393522091020194511660018060a01b0319855416178455516001840155519101558083101560001461144357505050603c95864204878102978189041490151715611430576009916113e391611a31565b519286885252852055600b9081549283101561141d57508161140d9160016114169401905561190b565b8193915461196a565b90555b5b80f35b846041602492634e487b7160e01b835252fd5b602488601187634e487b7160e01b835252fd5b9196509161145090611a0c565b916112f8565b5060248f60328e634e487b7160e01b835252fd5b5060248f60418e634e487b7160e01b835252fd5b5050505050505050611419565b600180820180831161152b575b8a878d8684106114b55750505050506114b090611a0c565b6112ec565b829185916114c7886115219796611a31565b518152828d526114dd8584848420015495611a31565b518152828d5220015410600014611526578b61151a826114fd8784611a31565b51926115098282611a31565b516115148983611a31565b52611a31565b525b611a0c565b611498565b61151c565b60248c60118b634e487b7160e01b835252fd5b5050505061141a565b5060055415156112cd565b836011602492634e487b7160e01b835252fd5b8280fd5b8280fd5b8284346115d357816003193601126115cf57611587611a7e565b815192839260208080860192818752855180945286019401925b8281106115b057505050500390f35b91938395509080600192819551815201950191019185949391926115a1565b5080fd5b5080fd5b5082903461169b576020806003193601126116975790803584526003825282842091825461160481611b80565b92611611865194856117c4565b8184528284018095885283882088915b8483106116715750505050508351938185019282865251809352840192945b82811061164e578480850390f35b909192826080826116626001948a5161169f565b01960191019492919094611640565b8386600192611684859d999a9b9d611b45565b8152019201920191909896959498611621565b8380fd5b8280fd5b6060908051835260208101516020840152604081015160408401528160018060a01b0391015116910152565b6020908160408183019282815285518094520193019160005b8281106116f2575050505090565b909192938280600192875181520195019101929190926116e4565b60018060a01b0360005416330361172057565b606460405162461bcd60e51b815260206004820152602060248201527f4f776e61626c653a2063616c6c6572206973206e6f7420746865206f776e65726044820152fd5b6060810190811060018060401b0382111761177e57604052565b634e487b7160e01b600052604160045260246000fd5b6080810190811060018060401b038211176117ae57604052565b634e487b7160e01b600052604160045260246000fd5b90601f8019910116810190811060018060401b038211176117e457604052565b634e487b7160e01b600052604160045260246000fd5b90816020910312611817575180151581036118125790565b600080fd5b600080fd5b1561182357565b606460405162461bcd60e51b815260206004820152600d60248201527f496e76616c6964207072696365000000000000000000000000000000000000006044820152fd5b919080601f840112156118f25782519060018060401b0382116118dc576040519160209161189e83601f19601f85011601856117c4565b8184528282870101116118d75760005b8181106118c357508260009394955001015290565b8083809288010151828287010152016118ae565b600080fd5b634e487b7160e01b600052604160045260246000fd5b600080fd5b519061ffff8216820361190657565b600080fd5b600b5481101561192657600b60005260206000200190600090565b634e487b7160e01b600052603260045260246000fd5b80548210156119545760005260206000200190600090565b634e487b7160e01b600052603260045260246000fd5b9060031b91821b91600019901b19161790565b6003908251815560208301516001820155604083015160028201550190606060018060a01b039101511660018060a01b0319825416179055565b919082039182116119c457565b634e487b7160e01b600052601160045260246000fd5b80548210156119f65760005260206000209060021b0190600090565b634e487b7160e01b600052603260045260246000fd5b6000198114611a1b5760010190565b634e487b7160e01b600052601160045260246000fd5b8051821015611a455760209160051b010190565b634e487b7160e01b600052603260045260246000fd5b91908201809211611a6857565b634e487b7160e01b600052601160045260246000fd5b604051906005548083528260209182820190600560005283600020936000905b828210611ab657505050611ab4925003836117c4565b565b919350916001828192875481520195019201869391949294611a9e565b600e54801515600014611b3f5760001990818101818111611b2957811115611b1357600e6000526020600020010154600052600d60205260406000205490565b634e487b7160e01b600052603260045260246000fd5b634e487b7160e01b600052601160045260246000fd5b50600090565b90604051611b5281611794565b60608193805483526001810154602084015260028101546040840152600360018060a01b0391015416910152565b60018060401b038111611b975760209060051b0190565b634e487b7160e01b600052604160045260246000fd",
        "deployedBytecode": "0x604060808152600480361015610015575b600080fd5b600090813560e01c8062f04902146115d757806314bacef71461156d57806321dfca1714611287578063238a1cc314610fe457806325f8a08d14610f705780634c5140a514610f3f578063696e2c0f14610f02578063715018a614610ea557806383f1444d14610e315780638da5cb5b14610e035780639af94f3014610dd2578063a133245b14610dab578063b2f1223814610d7a578063b5b66e1214610d06578063b821da1b14610851578063cab0fb731461082a578063d71a60c0146107fe578063e178854414610780578063ec6eaf6214610724578063ef2d09f9146106bb578063f17e6a70146102f7578063f2fde38b146102125763f790825d1461011e5750610010565b3461020e576020908160031936011261020a5780929192358252825282812090815461014981611b80565b90610156865192836117c4565b8082528482018094845285842084915b8383106101c75750505050845193808501918186525180925285850193925b828110610193578580860390f35b90919293826060600192898851858060a01b038151168352848101518584015201518a820152019501910192919092610185565b6003886001928b9a97989a516101dc81611764565b848060a01b038654168152848601548382015260028601548d82015281520192019201919096949396610166565b8280fd5b5080fd5b5082346102f35760206003193601126102ef5781359160018060a01b03918284168094036102eb5761024261170d565b831561028257505082548260018060a01b03198216178455167f8be0079c531659141344cd1fd0a4f28419497f9722a3daafe3b4186f6b6457e08380a380f35b906020608492519162461bcd60e51b8352820152602660248201527f4f776e61626c653a206e6577206f776e657220697320746865207a65726f206160448201527f64647265737300000000000000000000000000000000000000000000000000006064820152fd5b8480fd5b8280fd5b8280fd5b508290346106b757606091826003193601126106b35781359060ff821682036106af576024928335936044359560018060a01b03948560065416958551966373b6f1d360e01b8852338689015260209788818781855afa9081156106a3578c91610676575b5015610635578a85916008548c111580610624575b61037a9061181c565b885192838092637f3804f960e11b8252338b8301525afa908115610618579084918c9161052c575b5061ffff925001511687116104eb5784518681019133841b835260ff60f81b9060f81b1660348201526015815285810181811060018060401b038211176104d957865251902091828952600186526002858a200154156000146104d457600554600160401b8110156104c25760018101806005558110156104b057839060058b52878b2001555b603c420493603c850294808604603c149015171561049f575050916104979184937f60e344e47525731fddb78da0406d35494f63a1e7ebb282981fa22ca34f00168c9695519261047884611794565b888452898785015285840152339083015288526001845282882061197d565b51338152a380f35b60118a91634e487b7160e01b835252fd5b5088603285634e487b7160e01b835252fd5b5088604185634e487b7160e01b835252fd5b610429565b848b604188634e487b7160e01b835252fd5b606484600e858989519362461bcd60e51b85528401528201527f496e76616c696420616d6f756e740000000000000000000000000000000000006044820152fd5b9150503d808c833e61053e81836117c4565b810191888284031261061457815160018060401b0392838211610610570160a08185031261060c5788519160a08301838110858211176105fa578a52815190811681036105f6578252898101518381116105f2578461059e918301611867565b8a8301528881015160ff811681036105ee57898301526105bf8682016118f7565b8683015260808101519283116105ea5761ffff9386936105df9201611867565b60808201528c6103a2565b8c80fd5b8d80fd5b8d80fd5b8d80fd5b888f60418c634e487b7160e01b835252fd5b8c80fd5b8d80fd5b8b80fd5b8b8851903d90823e3d90fd5b5061037a6007548d10159050610371565b6064866015878b8b519362461bcd60e51b85528401528201527f556e7265676973746572656420737570706c69657200000000000000000000006044820152fd5b6106969150893d8b1161069c575b61068e81836117c4565b8101906117fa565b8c61035c565b503d610684565b8c8951903d90823e3d90fd5b8480fd5b8380fd5b8280fd5b5082903461072057602060031936011261071c57610711828461071a93608096606084516106e881611794565b828152826020820152828682015201523581526009602052818120548152600160205220611b45565b9151809261169f565bf35b8280fd5b8280fd5b5082903461077c57602060031936011261077857608092829135815260016020522090815491600181015491600282015491600360018060a01b039101541692815194855260208501528301526060820152f35b8280fd5b8280fd5b8284346107fa57816003193601126107f657338252602090600282528083209281518093808654928381520195835280832092905b8282106107db576107d786866107cd828b03836117c4565b51918291826116cb565b0390f35b909192956001828192895481520197019201909291926107b5565b5080fd5b5080fd5b82843461082657816003193601126108225760209061081b611ad3565b9051908152f35b5080fd5b5080fd5b82843461084d5781600319360112610849576020906008549051908152f35b5080fd5b5080fd5b508234610d025780600319360112610cfe5781359060249081359360018060a01b03908160065416938351809563b2a89e1560e01b82523384830152818360209889935afa908115610cf2578991610cc5575b5015610c845760085487111580610c73575b6108bf9061181c565b610e10804204818102918183041490151715610c6157603c420493603c850294808604603c1490151715610c4f5789338b5260028852868b2080548015159182610c14575b5050600014610bc55750818a526003808852868b205460001990818101908111610bb3579061093d8a8a8f8686935b8a835252206119da565b508484339201541614600014610b87575061095f91848d528952878c206119da565b50545b8861096b611ad3565b848d5260038a52888d205415600014610b8257508b5b01818110610b41578591899103926006541688519283809263442c18f360e01b82525afa8015610b35578b90610afb575b61ffff9150168111610aba57848a52600d8752858a2055600e5490600160401b9182811015610aa8576001810180600e55811015610a96578590600e8c52888c200155895260038652848920855194610a0a86611794565b888652898887015286860152336060860152805491821015610a845790610a36916001820181556119da565b929092610a745750507f2eef226398f000ec33af3b3be58878356d5c7b195bff89de5067bbfe7d2ee4a3939291610a6c9161197d565b51338152a380f35b888091634e487b7160e01b825252fd5b828a604186634e487b7160e01b835252fd5b838b603287634e487b7160e01b835252fd5b838b604187634e487b7160e01b835252fd5b606484601b858a8a519362461bcd60e51b85528401528201527f44656d616e64206578636565647320746f74616c20737570706c7900000000006044820152fd5b508781813d8311610b2e575b610b1181836117c4565b81010312610b2a57610b2561ffff916118f7565b6109b2565b8a80fd5b503d610b07565b8b8851903d90823e3d90fd5b6064866014878c8c519362461bcd60e51b85528401528201527f4f766572666c6f77206d61782075696e743235360000000000000000000000006044820152fd5b610981565b908015610ba1579061093d8a8a8f84879601958693610933565b858d601189634e487b7160e01b835252fd5b858d601189634e487b7160e01b835252fd5b338b5260028852868b20805490600160401b821015610c0257610bf282610bfb926001889501815561193c565b8193915461196a565b9055610962565b858d604189634e487b7160e01b835252fd5b9091506000198201918211610c3d578491610c2e9161193c565b90549060031b1c148c80610904565b858d601189634e487b7160e01b835252fd5b828a601186634e487b7160e01b835252fd5b5087601183634e487b7160e01b835252fd5b506108bf60075488101590506108b6565b9060156064928686519362461bcd60e51b85528401528201527f556e7265676973746572656420636f6e73756d657200000000000000000000006044820152fd5b610ce59150863d8811610ceb575b610cdd81836117c4565b8101906117fa565b896108a4565b503d610cd3565b898651903d90823e3d90fd5b8280fd5b8280fd5b505034610d775780600319360112610d74578151918291600c54808552602080950194600c835280832092905b828210610d5957610d558686610d4b828b03836117c4565b51918291826116cb565b0390f35b90919295600182819289548152019701920190929192610d33565b80fd5b80fd5b50829034610da7576020600319360112610da3576020928291358152600d845220549051908152f35b8280fd5b8280fd5b828434610dce5781600319360112610dca576020906007549051908152f35b5080fd5b5080fd5b50829034610dff576020600319360112610dfb576020928291358152600a845220549051908152f35b8280fd5b8280fd5b828434610e2d5781600319360112610e295760209160018060a01b039054169051908152f35b5080fd5b5080fd5b505034610ea25780600319360112610e9f578151918291600e54808552602080950194600e835280832092905b828210610e8457610e808686610e76828b03836117c4565b51918291826116cb565b0390f35b90919295600182819289548152019701920190929192610e5e565b80fd5b80fd5b8234610eff5780600319360112610efc57610ebe61170d565b80805460018060a01b03198116825560018060a01b03167f8be0079c531659141344cd1fd0a4f28419497f9722a3daafe3b4186f6b6457e08280a380f35b80fd5b80fd5b50829034610f3b576020600319360112610f375781602093600192358152600985528181205481528285522001549051908152f35b8280fd5b8280fd5b50829034610f6c576020600319360112610f685760209282913581526009845220549051908152f35b8280fd5b8280fd5b505034610fe15780600319360112610fde578151918291600b54808552602080950194600b835280832092905b828210610fc357610fbf8686610fb5828b03836117c4565b51918291826116cb565b0390f35b90919295600182819289548152019701920190929192610f9d565b80fd5b80fd5b508290346112835760208060031936011261127f5781359261100461170d565b4284101561123e57848590600b545b80831061107c5750603c9150858752600a84520490852055600c5491600160401b831015611069576001830180600c558310156110565750600c84528320015580f35b846032602492634e487b7160e01b835252fd5b846041602492634e487b7160e01b835252fd5b906110868361190b565b919054600392831b1c8881101580611217575b60001461120b5789526009865284892054895260019182875282868b2001549260001985018581116111f8578a908710806111a1575b60001461115e5750850180861161114b57603c916110ef61110a9261190b565b905490821b1c906110ff8861190b565b9054911b1c906119b7565b04915b828102928184041490151715611138576111319161112a91611a5b565b925b611a0c565b9190611013565b602489601189634e487b7160e01b835252fd5b60248b60118b634e487b7160e01b835252fd5b91905061117e61116d8761190b565b939092603c94859454911b1c6119b7565b04810390811161118e579161110d565b60248a60118a634e487b7160e01b835252fd5b50508086018087116111e5576111b69061190b565b905490831b1c610e108b0190818c116111d257908b91106110cf565b60248d60118d634e487b7160e01b835252fd5b60248c60118c634e487b7160e01b835252fd5b60248c60118c634e487b7160e01b835252fd5b5092611131915061112c565b50610e108901808a1161122b578110611099565b60248b60118b634e487b7160e01b835252fd5b60649350519162461bcd60e51b8352820152601160248201527f486f7572206973206e6f742076616c69640000000000000000000000000000006044820152fd5b8380fd5b8280fd5b5082346115695782600319360112611565576112a161170d565b610e10918242048381029381850414901517156115525782845260206003815282852054151580611547575b60001461153e5784926112de611ad3565b946112e7611a7e565b958651885b81811061148b57505087915b875183101561147e5761130b8389611a31565b5189526001855260018060a01b0391826003868c2001541661132d858b611a31565b518b5260018752611342868c2054809a611a5b565b93838c52888852868c209987519261135984611764565b8352888301908152878301914283528b54600160401b9c8d82101561146a576001820180825582101561145657908f8c81600297969594600393522091020194511660018060a01b0319855416178455516001840155519101558083101560001461144357505050603c95864204878102978189041490151715611430576009916113e391611a31565b519286885252852055600b9081549283101561141d57508161140d9160016114169401905561190b565b8193915461196a565b90555b5b80f35b846041602492634e487b7160e01b835252fd5b602488601187634e487b7160e01b835252fd5b9196509161145090611a0c565b916112f8565b5060248f60328e634e487b7160e01b835252fd5b5060248f60418e634e487b7160e01b835252fd5b5050505050505050611419565b600180820180831161152b575b8a878d8684106114b55750505050506114b090611a0c565b6112ec565b829185916114c7886115219796611a31565b518152828d526114dd8584848420015495611a31565b518152828d5220015410600014611526578b61151a826114fd8784611a31565b51926115098282611a31565b516115148983611a31565b52611a31565b525b611a0c565b611498565b61151c565b60248c60118b634e487b7160e01b835252fd5b5050505061141a565b5060055415156112cd565b836011602492634e487b7160e01b835252fd5b8280fd5b8280fd5b8284346115d357816003193601126115cf57611587611a7e565b815192839260208080860192818752855180945286019401925b8281106115b057505050500390f35b91938395509080600192819551815201950191019185949391926115a1565b5080fd5b5080fd5b5082903461169b576020806003193601126116975790803584526003825282842091825461160481611b80565b92611611865194856117c4565b8184528284018095885283882088915b8483106116715750505050508351938185019282865251809352840192945b82811061164e578480850390f35b909192826080826116626001948a5161169f565b01960191019492919094611640565b8386600192611684859d999a9b9d611b45565b8152019201920191909896959498611621565b8380fd5b8280fd5b6060908051835260208101516020840152604081015160408401528160018060a01b0391015116910152565b6020908160408183019282815285518094520193019160005b8281106116f2575050505090565b909192938280600192875181520195019101929190926116e4565b60018060a01b0360005416330361172057565b606460405162461bcd60e51b815260206004820152602060248201527f4f776e61626c653a2063616c6c6572206973206e6f7420746865206f776e65726044820152fd5b6060810190811060018060401b0382111761177e57604052565b634e487b7160e01b600052604160045260246000fd5b6080810190811060018060401b038211176117ae57604052565b634e487b7160e01b600052604160045260246000fd5b90601f8019910116810190811060018060401b038211176117e457604052565b634e487b7160e01b600052604160045260246000fd5b90816020910312611817575180151581036118125790565b600080fd5b600080fd5b1561182357565b606460405162461bcd60e51b815260206004820152600d60248201527f496e76616c6964207072696365000000000000000000000000000000000000006044820152fd5b919080601f840112156118f25782519060018060401b0382116118dc576040519160209161189e83601f19601f85011601856117c4565b8184528282870101116118d75760005b8181106118c357508260009394955001015290565b8083809288010151828287010152016118ae565b600080fd5b634e487b7160e01b600052604160045260246000fd5b600080fd5b519061ffff8216820361190657565b600080fd5b600b5481101561192657600b60005260206000200190600090565b634e487b7160e01b600052603260045260246000fd5b80548210156119545760005260206000200190600090565b634e487b7160e01b600052603260045260246000fd5b9060031b91821b91600019901b19161790565b6003908251815560208301516001820155604083015160028201550190606060018060a01b039101511660018060a01b0319825416179055565b919082039182116119c457565b634e487b7160e01b600052601160045260246000fd5b80548210156119f65760005260206000209060021b0190600090565b634e487b7160e01b600052603260045260246000fd5b6000198114611a1b5760010190565b634e487b7160e01b600052601160045260246000fd5b8051821015611a455760209160051b010190565b634e487b7160e01b600052603260045260246000fd5b91908201809211611a6857565b634e487b7160e01b600052601160045260246000fd5b604051906005548083528260209182820190600560005283600020936000905b828210611ab657505050611ab4925003836117c4565b565b919350916001828192875481520195019201869391949294611a9e565b600e54801515600014611b3f5760001990818101818111611b2957811115611b1357600e6000526020600020010154600052600d60205260406000205490565b634e487b7160e01b600052603260045260246000fd5b634e487b7160e01b600052601160045260246000fd5b50600090565b90604051611b5281611794565b60608193805483526001810154602084015260028101546040840152600360018060a01b0391015416910152565b60018060401b038111611b975760209060051b0190565b634e487b7160e01b600052604160045260246000fd",
        "linkReferences": {},
        "deployedLinkReferences": {}
    }
}