{
    "_format": "hh-sol-artifact-1",
    "contractName": "Payment",
    "sourceName": "contracts/Payment.sol",
    "abi": [
        {
            "inputs": [
                {
                    "internalType": "address",
                    "name": "_poolMarketAddress",
                    "type": "address"
                },
                {
                    "internalType": "address",
                    "name": "_etkContractAddress",
                    "type": "address"
                },
                {
                    "internalType": "address",
                    "name": "_registryContractAddress",
                    "type": "address"
                }
            ],
            "stateMutability": "nonpayable",
            "type": "constructor"
        },
        {
            "anonymous": false,
            "inputs": [
                {
                    "indexed": true,
                    "internalType": "address",
                    "name": "previousOwner",
                    "type": "address"
                },
                {
                    "indexed": true,
                    "internalType": "address",
                    "name": "newOwner",
                    "type": "address"
                }
            ],
            "name": "OwnershipTransferred",
            "type": "event"
        },
        {
            "inputs": [
                {
                    "internalType": "uint256",
                    "name": "_hour",
                    "type": "uint256"
                },
                {
                    "internalType": "uint256",
                    "name": "_meteredAmount",
                    "type": "uint256"
                }
            ],
            "name": "charge",
            "outputs": [],
            "stateMutability": "nonpayable",
            "type": "function"
        },
        {
            "inputs": [
                {
                    "internalType": "uint256",
                    "name": "_hour",
                    "type": "uint256"
                }
            ],
            "name": "enableCharge",
            "outputs": [],
            "stateMutability": "nonpayable",
            "type": "function"
        },
        {
            "inputs": [],
            "name": "owner",
            "outputs": [
                {
                    "internalType": "address",
                    "name": "",
                    "type": "address"
                }
            ],
            "stateMutability": "view",
            "type": "function"
        },
        {
            "inputs": [
                {
                    "internalType": "uint256",
                    "name": "_hour",
                    "type": "uint256"
                },
                {
                    "internalType": "uint256",
                    "name": "_meteredAmount",
                    "type": "uint256"
                }
            ],
            "name": "pay",
            "outputs": [],
            "stateMutability": "nonpayable",
            "type": "function"
        },
        {
            "inputs": [],
            "name": "renounceOwnership",
            "outputs": [],
            "stateMutability": "nonpayable",
            "type": "function"
        },
        {
            "inputs": [
                {
                    "internalType": "address",
                    "name": "newOwner",
                    "type": "address"
                }
            ],
            "name": "transferOwnership",
            "outputs": [],
            "stateMutability": "nonpayable",
            "type": "function"
        }
    ],
    "bytecode": "0x6080346100fa57610b4380380390601f19601f83011683019183831060018060401b038411176100e4578084926060946040528339810103126100df57610045816100ff565b61005d6040610056602085016100ff565b93016100ff565b906000549160018060a01b03199233848216176000556040519460018060a01b0380948193823391167f8be0079c531659141344cd1fd0a4f28419497f9722a3daafe3b4186f6b6457e0600080a333876001541617600155168560035416176003551683600254161760025516906004541617600455610a2b90816101188239f35b600080fd5b634e487b7160e01b600052604160045260246000fd5b600080fd5b519060018060a01b038216820361011257565b600080fdfe6080604081815260049081361015610017575b600080fd5b600092833560e01c9081632cc5af881461060d57508063715018a6146105b05780638da5cb5b14610582578063c37dda2d1461031d578063ef48eee6146101455763f2fde38b03610012573461014157602060031936011261013d5781359160018060a01b0391828416809403610139576100906107fe565b83156100d057505082548260018060a01b03198216178455167f8be0079c531659141344cd1fd0a4f28419497f9722a3daafe3b4186f6b6457e08380a380f35b906020608492519162461bcd60e51b8352820152602660248201527f4f776e61626c653a206e6577206f776e657220697320746865207a65726f206160448201527f64647265737300000000000000000000000000000000000000000000000000006064820152fd5b8480fd5b8280fd5b8280fd5b5091903461031957610156366107e3565b93909160018060a01b0380825416938351809563b2a89e1560e01b8252338583015281602460209889935afa90811561030d5787916102e0575b501561029e5785968583600398979854169260248751809581936309af94f360e41b8352898301525afa918215610292579087949392918792610254575b50956101ea6102059760648560025416956001541694046109c4565b9386519788958694859363a9059cbb60e01b85528401610a11565b03925af1908115610248575061021a575b8280f35b8161023992903d10610241575b6102318183610855565b8101906109ef565b503880610216565b503d610227565b849051903d90823e3d90fd5b8581969293503d831161028b575b61026c8183610855565b8101031261028757610205956101ea889551929197506101ce565b8580fd5b503d610262565b868651903d90823e3d90fd5b6064838686519162461bcd60e51b8352820152601560248201527f556e7265676973746572656420636f6e73756d657200000000000000000000006044820152fd5b6103009150863d8811610306575b6102f88183610855565b8101906109ef565b38610190565b503d6102ee565b878651903d90823e3d90fd5b5080fd5b503461057e576020918260031936011261057a5780359260018060a01b0392600393808554169082516309af94f360e41b8152878682015260249785828a81875afa91821561056e578a9261053b575b5084518a818b8163f790825d60e01b98898252868d8301525afa90811561052f578b9161050d575b5051978a5b8981106103a5578b80f35b8b8b84828c89875416938c519384928d845283015281855afa908115610501578c8f8b8d958c6103e08a8d988b9889916104df575b5061099a565b5151169651958694859384528301525afa9081156104d357928b92836104148f9488906104459886916104b1575b5061099a565b5101519160646104298b8d60025416956109c4565b04938d519687958694859363095ea7b360e01b85528401610a11565b03925af180156104a557610478575b5060001981146104665760010161039a565b8a8c60118b634e487b7160e01b835252fd5b61049790893d8b1161049e575b61048f8183610855565b8101906109ef565b5038610454565b503d610485565b8d8951903d90823e3d90fd5b6104cd91503d8088833e6104c58183610855565b81019061088b565b3861040e565b838b51903d90823e3d90fd5b6104fb91503d808b833e6104f38183610855565b81019061088b565b386103da565b838b51903d90823e3d90fd5b61052991503d808d833e6105218183610855565b81019061088b565b38610395565b8b8751903d90823e3d90fd5b9091508581813d8311610567575b6105538183610855565b810103126105635751903861036d565b8980fd5b503d610549565b8a8651903d90823e3d90fd5b8380fd5b8280fd5b8382346105ac57816003193601126105a85760209160018060a01b039054169051908152f35b5080fd5b5080fd5b833461060a5780600319360112610607576105c96107fe565b80805460018060a01b03198116825560018060a01b03167f8be0079c531659141344cd1fd0a4f28419497f9722a3daafe3b4186f6b6457e08280a380f35b80fd5b80fd5b92919050346107df5761061f366107e3565b9260018060a01b039385858354166373b6f1d360e01b825233848301528160246020998a935afa9081156107d35788916107a6575b501561076457908692918686600354169360248751809681936309af94f360e41b8352878301525afa9283156107585790879392918593610719575b50936106ac6064939495848960025416996001541696046109c4565b96865197889586946323b872dd60e01b865285015233602485015260448401525af190811561070d57506106df575b8280f35b816106fe92903d10610706575b6106f68183610855565b8101906109ef565b5038806106db565b503d6106ec565b849051903d90823e3d90fd5b8093508491943d8311610751575b6107318183610855565b8101031261074d5786936106ac60649351935094939094610690565b8380fd5b503d610727565b848651903d90823e3d90fd5b6064828786519162461bcd60e51b8352820152601560248201527f556e7265676973746572656420737570706c69657200000000000000000000006044820152fd5b6107c69150873d89116107cc575b6107be8183610855565b8101906109ef565b38610654565b503d6107b4565b888651903d90823e3d90fd5b8380fd5b60409060031901126107f9576004359060243590565b600080fd5b60018060a01b0360005416330361081157565b606460405162461bcd60e51b815260206004820152602060248201527f4f776e61626c653a2063616c6c6572206973206e6f7420746865206f776e65726044820152fd5b90601f8019910116810190811060018060401b0382111761087557604052565b634e487b7160e01b600052604160045260246000fd5b906020808383031261099557825160018060401b039384821161099057019082601f8301121561098b57815192848411610975576040948551956108d4848760051b0188610855565b8587528387019284606080980287010195818711610970578501935b86851061090257505050505050505090565b878583031261096b578251908882018281108682111761095657845285519060018060a01b0382168203610951578288928b9452828801518382015285880151868201528152019401936108f0565b600080fd5b60246000634e487b7160e01b81526041600452fd5b600080fd5b600080fd5b634e487b7160e01b600052604160045260246000fd5b600080fd5b600080fd5b600080fd5b80518210156109ae5760209160051b010190565b634e487b7160e01b600052603260045260246000fd5b9190918281029281840414901517156109d957565b634e487b7160e01b600052601160045260246000fd5b90816020910312610a0c57518015158103610a075790565b600080fd5b600080fd5b60209093929193604081019460018060a01b03168152015256",
    "linkReferences": {},
    "deployedLinkReferences": {},
    "default": {
        "_format": "hh-sol-artifact-1",
        "contractName": "Payment",
        "sourceName": "contracts/Payment.sol",
        "abi": [
            {
                "inputs": [
                    {
                        "internalType": "address",
                        "name": "_poolMarketAddress",
                        "type": "address"
                    },
                    {
                        "internalType": "address",
                        "name": "_etkContractAddress",
                        "type": "address"
                    },
                    {
                        "internalType": "address",
                        "name": "_registryContractAddress",
                        "type": "address"
                    }
                ],
                "stateMutability": "nonpayable",
                "type": "constructor"
            },
            {
                "anonymous": false,
                "inputs": [
                    {
                        "indexed": true,
                        "internalType": "address",
                        "name": "previousOwner",
                        "type": "address"
                    },
                    {
                        "indexed": true,
                        "internalType": "address",
                        "name": "newOwner",
                        "type": "address"
                    }
                ],
                "name": "OwnershipTransferred",
                "type": "event"
            },
            {
                "inputs": [
                    {
                        "internalType": "uint256",
                        "name": "_hour",
                        "type": "uint256"
                    },
                    {
                        "internalType": "uint256",
                        "name": "_meteredAmount",
                        "type": "uint256"
                    }
                ],
                "name": "charge",
                "outputs": [],
                "stateMutability": "nonpayable",
                "type": "function"
            },
            {
                "inputs": [
                    {
                        "internalType": "uint256",
                        "name": "_hour",
                        "type": "uint256"
                    }
                ],
                "name": "enableCharge",
                "outputs": [],
                "stateMutability": "nonpayable",
                "type": "function"
            },
            {
                "inputs": [],
                "name": "owner",
                "outputs": [
                    {
                        "internalType": "address",
                        "name": "",
                        "type": "address"
                    }
                ],
                "stateMutability": "view",
                "type": "function"
            },
            {
                "inputs": [
                    {
                        "internalType": "uint256",
                        "name": "_hour",
                        "type": "uint256"
                    },
                    {
                        "internalType": "uint256",
                        "name": "_meteredAmount",
                        "type": "uint256"
                    }
                ],
                "name": "pay",
                "outputs": [],
                "stateMutability": "nonpayable",
                "type": "function"
            },
            {
                "inputs": [],
                "name": "renounceOwnership",
                "outputs": [],
                "stateMutability": "nonpayable",
                "type": "function"
            },
            {
                "inputs": [
                    {
                        "internalType": "address",
                        "name": "newOwner",
                        "type": "address"
                    }
                ],
                "name": "transferOwnership",
                "outputs": [],
                "stateMutability": "nonpayable",
                "type": "function"
            }
        ],
        "bytecode": "0x6080346100fa57610b4380380390601f19601f83011683019183831060018060401b038411176100e4578084926060946040528339810103126100df57610045816100ff565b61005d6040610056602085016100ff565b93016100ff565b906000549160018060a01b03199233848216176000556040519460018060a01b0380948193823391167f8be0079c531659141344cd1fd0a4f28419497f9722a3daafe3b4186f6b6457e0600080a333876001541617600155168560035416176003551683600254161760025516906004541617600455610a2b90816101188239f35b600080fd5b634e487b7160e01b600052604160045260246000fd5b600080fd5b519060018060a01b038216820361011257565b600080fdfe6080604081815260049081361015610017575b600080fd5b600092833560e01c9081632cc5af881461060d57508063715018a6146105b05780638da5cb5b14610582578063c37dda2d1461031d578063ef48eee6146101455763f2fde38b03610012573461014157602060031936011261013d5781359160018060a01b0391828416809403610139576100906107fe565b83156100d057505082548260018060a01b03198216178455167f8be0079c531659141344cd1fd0a4f28419497f9722a3daafe3b4186f6b6457e08380a380f35b906020608492519162461bcd60e51b8352820152602660248201527f4f776e61626c653a206e6577206f776e657220697320746865207a65726f206160448201527f64647265737300000000000000000000000000000000000000000000000000006064820152fd5b8480fd5b8280fd5b8280fd5b5091903461031957610156366107e3565b93909160018060a01b0380825416938351809563b2a89e1560e01b8252338583015281602460209889935afa90811561030d5787916102e0575b501561029e5785968583600398979854169260248751809581936309af94f360e41b8352898301525afa918215610292579087949392918792610254575b50956101ea6102059760648560025416956001541694046109c4565b9386519788958694859363a9059cbb60e01b85528401610a11565b03925af1908115610248575061021a575b8280f35b8161023992903d10610241575b6102318183610855565b8101906109ef565b503880610216565b503d610227565b849051903d90823e3d90fd5b8581969293503d831161028b575b61026c8183610855565b8101031261028757610205956101ea889551929197506101ce565b8580fd5b503d610262565b868651903d90823e3d90fd5b6064838686519162461bcd60e51b8352820152601560248201527f556e7265676973746572656420636f6e73756d657200000000000000000000006044820152fd5b6103009150863d8811610306575b6102f88183610855565b8101906109ef565b38610190565b503d6102ee565b878651903d90823e3d90fd5b5080fd5b503461057e576020918260031936011261057a5780359260018060a01b0392600393808554169082516309af94f360e41b8152878682015260249785828a81875afa91821561056e578a9261053b575b5084518a818b8163f790825d60e01b98898252868d8301525afa90811561052f578b9161050d575b5051978a5b8981106103a5578b80f35b8b8b84828c89875416938c519384928d845283015281855afa908115610501578c8f8b8d958c6103e08a8d988b9889916104df575b5061099a565b5151169651958694859384528301525afa9081156104d357928b92836104148f9488906104459886916104b1575b5061099a565b5101519160646104298b8d60025416956109c4565b04938d519687958694859363095ea7b360e01b85528401610a11565b03925af180156104a557610478575b5060001981146104665760010161039a565b8a8c60118b634e487b7160e01b835252fd5b61049790893d8b1161049e575b61048f8183610855565b8101906109ef565b5038610454565b503d610485565b8d8951903d90823e3d90fd5b6104cd91503d8088833e6104c58183610855565b81019061088b565b3861040e565b838b51903d90823e3d90fd5b6104fb91503d808b833e6104f38183610855565b81019061088b565b386103da565b838b51903d90823e3d90fd5b61052991503d808d833e6105218183610855565b81019061088b565b38610395565b8b8751903d90823e3d90fd5b9091508581813d8311610567575b6105538183610855565b810103126105635751903861036d565b8980fd5b503d610549565b8a8651903d90823e3d90fd5b8380fd5b8280fd5b8382346105ac57816003193601126105a85760209160018060a01b039054169051908152f35b5080fd5b5080fd5b833461060a5780600319360112610607576105c96107fe565b80805460018060a01b03198116825560018060a01b03167f8be0079c531659141344cd1fd0a4f28419497f9722a3daafe3b4186f6b6457e08280a380f35b80fd5b80fd5b92919050346107df5761061f366107e3565b9260018060a01b039385858354166373b6f1d360e01b825233848301528160246020998a935afa9081156107d35788916107a6575b501561076457908692918686600354169360248751809681936309af94f360e41b8352878301525afa9283156107585790879392918593610719575b50936106ac6064939495848960025416996001541696046109c4565b96865197889586946323b872dd60e01b865285015233602485015260448401525af190811561070d57506106df575b8280f35b816106fe92903d10610706575b6106f68183610855565b8101906109ef565b5038806106db565b503d6106ec565b849051903d90823e3d90fd5b8093508491943d8311610751575b6107318183610855565b8101031261074d5786936106ac60649351935094939094610690565b8380fd5b503d610727565b848651903d90823e3d90fd5b6064828786519162461bcd60e51b8352820152601560248201527f556e7265676973746572656420737570706c69657200000000000000000000006044820152fd5b6107c69150873d89116107cc575b6107be8183610855565b8101906109ef565b38610654565b503d6107b4565b888651903d90823e3d90fd5b8380fd5b60409060031901126107f9576004359060243590565b600080fd5b60018060a01b0360005416330361081157565b606460405162461bcd60e51b815260206004820152602060248201527f4f776e61626c653a2063616c6c6572206973206e6f7420746865206f776e65726044820152fd5b90601f8019910116810190811060018060401b0382111761087557604052565b634e487b7160e01b600052604160045260246000fd5b906020808383031261099557825160018060401b039384821161099057019082601f8301121561098b57815192848411610975576040948551956108d4848760051b0188610855565b8587528387019284606080980287010195818711610970578501935b86851061090257505050505050505090565b878583031261096b578251908882018281108682111761095657845285519060018060a01b0382168203610951578288928b9452828801518382015285880151868201528152019401936108f0565b600080fd5b60246000634e487b7160e01b81526041600452fd5b600080fd5b600080fd5b634e487b7160e01b600052604160045260246000fd5b600080fd5b600080fd5b600080fd5b80518210156109ae5760209160051b010190565b634e487b7160e01b600052603260045260246000fd5b9190918281029281840414901517156109d957565b634e487b7160e01b600052601160045260246000fd5b90816020910312610a0c57518015158103610a075790565b600080fd5b600080fd5b60209093929193604081019460018060a01b03168152015256",
        "deployedBytecode": "0x6080604081815260049081361015610017575b600080fd5b600092833560e01c9081632cc5af881461060d57508063715018a6146105b05780638da5cb5b14610582578063c37dda2d1461031d578063ef48eee6146101455763f2fde38b03610012573461014157602060031936011261013d5781359160018060a01b0391828416809403610139576100906107fe565b83156100d057505082548260018060a01b03198216178455167f8be0079c531659141344cd1fd0a4f28419497f9722a3daafe3b4186f6b6457e08380a380f35b906020608492519162461bcd60e51b8352820152602660248201527f4f776e61626c653a206e6577206f776e657220697320746865207a65726f206160448201527f64647265737300000000000000000000000000000000000000000000000000006064820152fd5b8480fd5b8280fd5b8280fd5b5091903461031957610156366107e3565b93909160018060a01b0380825416938351809563b2a89e1560e01b8252338583015281602460209889935afa90811561030d5787916102e0575b501561029e5785968583600398979854169260248751809581936309af94f360e41b8352898301525afa918215610292579087949392918792610254575b50956101ea6102059760648560025416956001541694046109c4565b9386519788958694859363a9059cbb60e01b85528401610a11565b03925af1908115610248575061021a575b8280f35b8161023992903d10610241575b6102318183610855565b8101906109ef565b503880610216565b503d610227565b849051903d90823e3d90fd5b8581969293503d831161028b575b61026c8183610855565b8101031261028757610205956101ea889551929197506101ce565b8580fd5b503d610262565b868651903d90823e3d90fd5b6064838686519162461bcd60e51b8352820152601560248201527f556e7265676973746572656420636f6e73756d657200000000000000000000006044820152fd5b6103009150863d8811610306575b6102f88183610855565b8101906109ef565b38610190565b503d6102ee565b878651903d90823e3d90fd5b5080fd5b503461057e576020918260031936011261057a5780359260018060a01b0392600393808554169082516309af94f360e41b8152878682015260249785828a81875afa91821561056e578a9261053b575b5084518a818b8163f790825d60e01b98898252868d8301525afa90811561052f578b9161050d575b5051978a5b8981106103a5578b80f35b8b8b84828c89875416938c519384928d845283015281855afa908115610501578c8f8b8d958c6103e08a8d988b9889916104df575b5061099a565b5151169651958694859384528301525afa9081156104d357928b92836104148f9488906104459886916104b1575b5061099a565b5101519160646104298b8d60025416956109c4565b04938d519687958694859363095ea7b360e01b85528401610a11565b03925af180156104a557610478575b5060001981146104665760010161039a565b8a8c60118b634e487b7160e01b835252fd5b61049790893d8b1161049e575b61048f8183610855565b8101906109ef565b5038610454565b503d610485565b8d8951903d90823e3d90fd5b6104cd91503d8088833e6104c58183610855565b81019061088b565b3861040e565b838b51903d90823e3d90fd5b6104fb91503d808b833e6104f38183610855565b81019061088b565b386103da565b838b51903d90823e3d90fd5b61052991503d808d833e6105218183610855565b81019061088b565b38610395565b8b8751903d90823e3d90fd5b9091508581813d8311610567575b6105538183610855565b810103126105635751903861036d565b8980fd5b503d610549565b8a8651903d90823e3d90fd5b8380fd5b8280fd5b8382346105ac57816003193601126105a85760209160018060a01b039054169051908152f35b5080fd5b5080fd5b833461060a5780600319360112610607576105c96107fe565b80805460018060a01b03198116825560018060a01b03167f8be0079c531659141344cd1fd0a4f28419497f9722a3daafe3b4186f6b6457e08280a380f35b80fd5b80fd5b92919050346107df5761061f366107e3565b9260018060a01b039385858354166373b6f1d360e01b825233848301528160246020998a935afa9081156107d35788916107a6575b501561076457908692918686600354169360248751809681936309af94f360e41b8352878301525afa9283156107585790879392918593610719575b50936106ac6064939495848960025416996001541696046109c4565b96865197889586946323b872dd60e01b865285015233602485015260448401525af190811561070d57506106df575b8280f35b816106fe92903d10610706575b6106f68183610855565b8101906109ef565b5038806106db565b503d6106ec565b849051903d90823e3d90fd5b8093508491943d8311610751575b6107318183610855565b8101031261074d5786936106ac60649351935094939094610690565b8380fd5b503d610727565b848651903d90823e3d90fd5b6064828786519162461bcd60e51b8352820152601560248201527f556e7265676973746572656420737570706c69657200000000000000000000006044820152fd5b6107c69150873d89116107cc575b6107be8183610855565b8101906109ef565b38610654565b503d6107b4565b888651903d90823e3d90fd5b8380fd5b60409060031901126107f9576004359060243590565b600080fd5b60018060a01b0360005416330361081157565b606460405162461bcd60e51b815260206004820152602060248201527f4f776e61626c653a2063616c6c6572206973206e6f7420746865206f776e65726044820152fd5b90601f8019910116810190811060018060401b0382111761087557604052565b634e487b7160e01b600052604160045260246000fd5b906020808383031261099557825160018060401b039384821161099057019082601f8301121561098b57815192848411610975576040948551956108d4848760051b0188610855565b8587528387019284606080980287010195818711610970578501935b86851061090257505050505050505090565b878583031261096b578251908882018281108682111761095657845285519060018060a01b0382168203610951578288928b9452828801518382015285880151868201528152019401936108f0565b600080fd5b60246000634e487b7160e01b81526041600452fd5b600080fd5b600080fd5b634e487b7160e01b600052604160045260246000fd5b600080fd5b600080fd5b600080fd5b80518210156109ae5760209160051b010190565b634e487b7160e01b600052603260045260246000fd5b9190918281029281840414901517156109d957565b634e487b7160e01b600052601160045260246000fd5b90816020910312610a0c57518015158103610a075790565b600080fd5b600080fd5b60209093929193604081019460018060a01b03168152015256",
        "linkReferences": {},
        "deployedLinkReferences": {}
    }
}