{
    "_format": "hh-sol-artifact-1",
    "contractName": "EnergyToken",
    "sourceName": "contracts/EnergyToken.sol",
    "abi": [
        {
            "inputs": [],
            "stateMutability": "nonpayable",
            "type": "constructor"
        },
        {
            "anonymous": false,
            "inputs": [
                {
                    "indexed": true,
                    "internalType": "address",
                    "name": "owner",
                    "type": "address"
                },
                {
                    "indexed": true,
                    "internalType": "address",
                    "name": "spender",
                    "type": "address"
                },
                {
                    "indexed": false,
                    "internalType": "uint256",
                    "name": "value",
                    "type": "uint256"
                }
            ],
            "name": "Approval",
            "type": "event"
        },
        {
            "anonymous": false,
            "inputs": [
                {
                    "indexed": true,
                    "internalType": "bytes32",
                    "name": "role",
                    "type": "bytes32"
                },
                {
                    "indexed": true,
                    "internalType": "bytes32",
                    "name": "previousAdminRole",
                    "type": "bytes32"
                },
                {
                    "indexed": true,
                    "internalType": "bytes32",
                    "name": "newAdminRole",
                    "type": "bytes32"
                }
            ],
            "name": "RoleAdminChanged",
            "type": "event"
        },
        {
            "anonymous": false,
            "inputs": [
                {
                    "indexed": true,
                    "internalType": "bytes32",
                    "name": "role",
                    "type": "bytes32"
                },
                {
                    "indexed": true,
                    "internalType": "address",
                    "name": "account",
                    "type": "address"
                },
                {
                    "indexed": true,
                    "internalType": "address",
                    "name": "sender",
                    "type": "address"
                }
            ],
            "name": "RoleGranted",
            "type": "event"
        },
        {
            "anonymous": false,
            "inputs": [
                {
                    "indexed": true,
                    "internalType": "bytes32",
                    "name": "role",
                    "type": "bytes32"
                },
                {
                    "indexed": true,
                    "internalType": "address",
                    "name": "account",
                    "type": "address"
                },
                {
                    "indexed": true,
                    "internalType": "address",
                    "name": "sender",
                    "type": "address"
                }
            ],
            "name": "RoleRevoked",
            "type": "event"
        },
        {
            "anonymous": false,
            "inputs": [
                {
                    "indexed": true,
                    "internalType": "address",
                    "name": "from",
                    "type": "address"
                },
                {
                    "indexed": true,
                    "internalType": "address",
                    "name": "to",
                    "type": "address"
                },
                {
                    "indexed": false,
                    "internalType": "uint256",
                    "name": "value",
                    "type": "uint256"
                }
            ],
            "name": "Transfer",
            "type": "event"
        },
        {
            "inputs": [],
            "name": "DEFAULT_ADMIN_ROLE",
            "outputs": [
                {
                    "internalType": "bytes32",
                    "name": "",
                    "type": "bytes32"
                }
            ],
            "stateMutability": "view",
            "type": "function"
        },
        {
            "inputs": [],
            "name": "MINTER_ROLE",
            "outputs": [
                {
                    "internalType": "bytes32",
                    "name": "",
                    "type": "bytes32"
                }
            ],
            "stateMutability": "view",
            "type": "function"
        },
        {
            "inputs": [
                {
                    "internalType": "address",
                    "name": "owner",
                    "type": "address"
                },
                {
                    "internalType": "address",
                    "name": "spender",
                    "type": "address"
                }
            ],
            "name": "allowance",
            "outputs": [
                {
                    "internalType": "uint256",
                    "name": "",
                    "type": "uint256"
                }
            ],
            "stateMutability": "view",
            "type": "function"
        },
        {
            "inputs": [
                {
                    "internalType": "address",
                    "name": "spender",
                    "type": "address"
                },
                {
                    "internalType": "uint256",
                    "name": "amount",
                    "type": "uint256"
                }
            ],
            "name": "approve",
            "outputs": [
                {
                    "internalType": "bool",
                    "name": "",
                    "type": "bool"
                }
            ],
            "stateMutability": "nonpayable",
            "type": "function"
        },
        {
            "inputs": [
                {
                    "internalType": "address",
                    "name": "account",
                    "type": "address"
                }
            ],
            "name": "balanceOf",
            "outputs": [
                {
                    "internalType": "uint256",
                    "name": "",
                    "type": "uint256"
                }
            ],
            "stateMutability": "view",
            "type": "function"
        },
        {
            "inputs": [
                {
                    "internalType": "uint256",
                    "name": "amount",
                    "type": "uint256"
                }
            ],
            "name": "burn",
            "outputs": [],
            "stateMutability": "nonpayable",
            "type": "function"
        },
        {
            "inputs": [
                {
                    "internalType": "address",
                    "name": "account",
                    "type": "address"
                },
                {
                    "internalType": "uint256",
                    "name": "amount",
                    "type": "uint256"
                }
            ],
            "name": "burnFrom",
            "outputs": [],
            "stateMutability": "nonpayable",
            "type": "function"
        },
        {
            "inputs": [],
            "name": "decimals",
            "outputs": [
                {
                    "internalType": "uint8",
                    "name": "",
                    "type": "uint8"
                }
            ],
            "stateMutability": "view",
            "type": "function"
        },
        {
            "inputs": [
                {
                    "internalType": "address",
                    "name": "spender",
                    "type": "address"
                },
                {
                    "internalType": "uint256",
                    "name": "subtractedValue",
                    "type": "uint256"
                }
            ],
            "name": "decreaseAllowance",
            "outputs": [
                {
                    "internalType": "bool",
                    "name": "",
                    "type": "bool"
                }
            ],
            "stateMutability": "nonpayable",
            "type": "function"
        },
        {
            "inputs": [
                {
                    "internalType": "bytes32",
                    "name": "role",
                    "type": "bytes32"
                }
            ],
            "name": "getRoleAdmin",
            "outputs": [
                {
                    "internalType": "bytes32",
                    "name": "",
                    "type": "bytes32"
                }
            ],
            "stateMutability": "view",
            "type": "function"
        },
        {
            "inputs": [
                {
                    "internalType": "bytes32",
                    "name": "role",
                    "type": "bytes32"
                },
                {
                    "internalType": "address",
                    "name": "account",
                    "type": "address"
                }
            ],
            "name": "grantRole",
            "outputs": [],
            "stateMutability": "nonpayable",
            "type": "function"
        },
        {
            "inputs": [
                {
                    "internalType": "bytes32",
                    "name": "role",
                    "type": "bytes32"
                },
                {
                    "internalType": "address",
                    "name": "account",
                    "type": "address"
                }
            ],
            "name": "hasRole",
            "outputs": [
                {
                    "internalType": "bool",
                    "name": "",
                    "type": "bool"
                }
            ],
            "stateMutability": "view",
            "type": "function"
        },
        {
            "inputs": [
                {
                    "internalType": "address",
                    "name": "spender",
                    "type": "address"
                },
                {
                    "internalType": "uint256",
                    "name": "addedValue",
                    "type": "uint256"
                }
            ],
            "name": "increaseAllowance",
            "outputs": [
                {
                    "internalType": "bool",
                    "name": "",
                    "type": "bool"
                }
            ],
            "stateMutability": "nonpayable",
            "type": "function"
        },
        {
            "inputs": [
                {
                    "internalType": "address",
                    "name": "to",
                    "type": "address"
                },
                {
                    "internalType": "uint256",
                    "name": "amount",
                    "type": "uint256"
                }
            ],
            "name": "mint",
            "outputs": [],
            "stateMutability": "nonpayable",
            "type": "function"
        },
        {
            "inputs": [],
            "name": "name",
            "outputs": [
                {
                    "internalType": "string",
                    "name": "",
                    "type": "string"
                }
            ],
            "stateMutability": "view",
            "type": "function"
        },
        {
            "inputs": [],
            "name": "owner",
            "outputs": [
                {
                    "internalType": "address",
                    "name": "",
                    "type": "address"
                }
            ],
            "stateMutability": "view",
            "type": "function"
        },
        {
            "inputs": [
                {
                    "internalType": "bytes32",
                    "name": "role",
                    "type": "bytes32"
                },
                {
                    "internalType": "address",
                    "name": "account",
                    "type": "address"
                }
            ],
            "name": "renounceRole",
            "outputs": [],
            "stateMutability": "nonpayable",
            "type": "function"
        },
        {
            "inputs": [
                {
                    "internalType": "bytes32",
                    "name": "role",
                    "type": "bytes32"
                },
                {
                    "internalType": "address",
                    "name": "account",
                    "type": "address"
                }
            ],
            "name": "revokeRole",
            "outputs": [],
            "stateMutability": "nonpayable",
            "type": "function"
        },
        {
            "inputs": [
                {
                    "internalType": "bytes4",
                    "name": "interfaceId",
                    "type": "bytes4"
                }
            ],
            "name": "supportsInterface",
            "outputs": [
                {
                    "internalType": "bool",
                    "name": "",
                    "type": "bool"
                }
            ],
            "stateMutability": "view",
            "type": "function"
        },
        {
            "inputs": [],
            "name": "symbol",
            "outputs": [
                {
                    "internalType": "string",
                    "name": "",
                    "type": "string"
                }
            ],
            "stateMutability": "view",
            "type": "function"
        },
        {
            "inputs": [],
            "name": "totalSupply",
            "outputs": [
                {
                    "internalType": "uint256",
                    "name": "",
                    "type": "uint256"
                }
            ],
            "stateMutability": "view",
            "type": "function"
        },
        {
            "inputs": [
                {
                    "internalType": "address",
                    "name": "to",
                    "type": "address"
                },
                {
                    "internalType": "uint256",
                    "name": "amount",
                    "type": "uint256"
                }
            ],
            "name": "transfer",
            "outputs": [
                {
                    "internalType": "bool",
                    "name": "",
                    "type": "bool"
                }
            ],
            "stateMutability": "nonpayable",
            "type": "function"
        },
        {
            "inputs": [
                {
                    "internalType": "address",
                    "name": "from",
                    "type": "address"
                },
                {
                    "internalType": "address",
                    "name": "to",
                    "type": "address"
                },
                {
                    "internalType": "uint256",
                    "name": "amount",
                    "type": "uint256"
                }
            ],
            "name": "transferFrom",
            "outputs": [
                {
                    "internalType": "bool",
                    "name": "",
                    "type": "bool"
                }
            ],
            "stateMutability": "nonpayable",
            "type": "function"
        }
    ],
    "bytecode": "0x608034620004a95760408082019160018060401b03928181108482111762000493578252600b81526020907f456e65726779546f6b656e00000000000000000000000000000000000000000082820152825193838501858110828211176200047d5784526003908186527f45544b00000000000000000000000000000000000000000000000000000000008487015282519181831162000467578054926001948585811c951680156200045c575b8786101462000446578190601f95868111620003eb575b5087908683116001146200037b576000926200036e575b505081861b9160001990841b1c19161781555b8651918211620003585760049283548581811c911680156200034d575b878210146200033857818111620002eb575b50859083116001146200027e578293949596976000936200026f575b505082851b92600019911b1c19161790555b60008052600582528260002033600052825260ff8360002054161562000221575b7f9f2df0fed2c77648de5860a4cc508cd0818c85b8b8a1ab4ceeef8d981c8956a69182600052600581528360002033600052815260ff84600020541615620001cf575b833360018060a01b03196006541617600655516115eb9081620004af8239f35b826000526005815283600020903360005252826000209060ff19825416179055339033907f2f8788117e7eff1d82e926ec794901d17c78024a50270940304540a733656f0d600080a4388080620001af565b600080526005825282600020336000528252826000208160ff19825416179055333360007f2f8788117e7eff1d82e926ec794901d17c78024a50270940304540a733656f0d8180a46200016c565b90919250015190388062000139565b90601f1983169184600052866000209260005b818110620002d4575098848798999a97969710620002b9575b50505050811b0190556200014b565b01519060f884600019921b161c1916905538808080620002aa565b919388888192878e01518155019501920162000291565b84600052866000208280860160051c8201928987106200032e575b908892910160051c01915b828110620003215750506200011d565b6000815501869062000311565b9250819262000306565b602285634e487b7160e01b6000525260246000fd5b90607f16906200010b565b634e487b7160e01b600052604160045260246000fd5b90915001513880620000db565b90879350601f1983169185600052896000209260005b8b828210620003cb5750508411620003b2575b505050811b018155620000ee565b015160001960f884871b161c19169055388080620003a4565b919293959682919587860151815501950193019089959493929162000391565b90915083600052876000208680850160051c8201928a86106200043c575b918991869594930160051c01915b82811062000427575050620000c4565b90919293506000815501908784939262000417565b9250819262000409565b634e487b7160e01b600052602260045260246000fd5b94607f1694620000ad565b634e487b7160e01b600052604160045260246000fd5b634e487b7160e01b600052604160045260246000fd5b634e487b7160e01b600052604160045260246000fd5b600080fdfe6080604081815260049182361015610017575b600080fd5b600092833560e01c91826301ffc9a714610bd25750816306fdde0314610ad6578163095ea7b314610a9d57816318160ddd14610a7657816323b872dd14610a2a578163248a9ca3146109f75781632f2ff15d14610943578163313ce5671461091f57816336568abe14610875578163395093511461081857816340c10f191461053e57816342966c681461051557816370a08231146104d857816379cc67901461049e5781638da5cb5b1461046f57816391d148541461042257816395d89b4114610325578163a217fddf14610301578163a457c2d714610236578163a9059cbb146101fd578163d5391393146101ba578163d547741f14610173575063dd62ed3e146101245780610012565b3461016f578060031936011261016b5780602092610140610c82565b610148610c9c565b9060018060a01b0380911683526001865283832091168252845220549051908152f35b5080fd5b5080fd5b919050346101b657806003193601126101b2576101af91356101aa6001610198610c9c565b93838752600560205286200154610cb6565b610f1c565b80f35b8280fd5b8280fd5b5050346101f957816003193601126101f557602090517f9f2df0fed2c77648de5860a4cc508cd0818c85b8b8a1ab4ceeef8d981c8956a68152f35b5080fd5b5080fd5b505034610232578060031936011261022e5760209061022761021d610c82565b6024359033610fbc565b5160018152f35b5080fd5b5080fd5b905082346102fe57826003193601126102fb57610251610c82565b918360243592338152600160205281812060018060a01b03861682526020522054908282106102925760208561028b86868603903361116f565b5160018152f35b608490602086519162461bcd60e51b8352820152602560248201527f45524332303a2064656372656173656420616c6c6f77616e63652062656c6f7760448201527f207a65726f0000000000000000000000000000000000000000000000000000006064820152fd5b80fd5b80fd5b505034610321578160031936011261031d579060209151908152f35b5080fd5b5080fd5b83833461041e578160031936011261041a57805191809380549160019083821c92828516948515610410575b60209586861081146103fd5785895290816000146103d35750600114610391575b61038d8787610383828c0383610ee6565b5191829182610c56565b0390f35b9080949750528583205b8284106103b9575050508261038d9461038392820101948680610372565b81818892959394955483858a01015201910192919061039b565b91505061038d97506103839492508693915060ff191682840152151560051b820101948680610372565b602484602285634e487b7160e01b835252fd5b93607f1693610351565b5080fd5b5080fd5b90503461046b5781600319360112610467578160209360ff92610443610c9c565b90358252600586528282209060018060a01b03168252855220541690519015158152f35b8280fd5b8280fd5b50503461049a57816003193601126104965760209060018060a01b03600654169051908152f35b5080fd5b5080fd5b5050346104d4576003193601126104d1576104ce6104ba610c82565b602435906104c98233836112a2565b611339565b80f35b80fd5b5080fd5b50503461051157602060031936011261050d578060209260018060a01b036104fe610c82565b16815280845220549051908152f35b5080fd5b5080fd5b83903461053a57602060031936011261053657610533903533611339565b80f35b5080fd5b5080fd5b905034610814578160031936011261081057610558610c82565b906024928335917f9f2df0fed2c77648de5860a4cc508cd0818c85b8b8a1ab4ceeef8d981c8956a69384875260209460058652838820338952865260ff84892054161561063c575060018060a01b03169485156105fc575050918185936105e27fddf252ad1be2c89b69c2b068fc378daa952ba7f163c4a11628f55a4df523b3ef94600254610f99565b60025585855284835280852082815401905551908152a380f35b601f9085606494519362461bcd60e51b85528401528201527f45524332303a206d696e7420746f20746865207a65726f2061646472657373006044820152fd5b85915086889161064b3361149c565b909186519261065984610eb6565b604284528584019460603687378451156107fe57603086538451906001918210156107ec5790607860218701536041915b81831161078357505050610742575061073e93869361072a9361071b6048946106e69a519a857f416363657373436f6e74726f6c3a206163636f756e74200000000000000000008d978801528251928391603789019101610c31565b8401917f206973206d697373696e6720726f6c6520000000000000000000000000000000603784015251809386840190610c31565b01036028810187520185610ee6565b5192839262461bcd60e51b84528301610c56565b0390fd5b9250505081606494519362461bcd60e51b85528401528201527f537472696e67733a20686578206c656e67746820696e73756666696369656e746044820152fd5b909192600f811660108110156107da576f181899199a1a9b1b9c1cb0b131b232b360811b901a6107b38589611474565b53891c9280156107c85760001901919061068a565b848260118c634e487b7160e01b835252fd5b858360328d634e487b7160e01b835252fd5b839060328a634e487b7160e01b835252fd5b9050603287634e487b7160e01b835252fd5b8280fd5b8280fd5b505034610871578060031936011261086d5761086660209261085f61083b610c82565b913381526001865284812060018060a01b0384168252865284602435912054610f99565b903361116f565b5160018152f35b5080fd5b5080fd5b8391503461091b578260031936011261091757610890610c9c565b903360018060a01b038316036108ae57906108ab9135610f1c565b80f35b608490602085519162461bcd60e51b8352820152602f60248201527f416363657373436f6e74726f6c3a2063616e206f6e6c792072656e6f756e636560448201527f20726f6c657320666f722073656c6600000000000000000000000000000000006064820152fd5b5080fd5b5080fd5b50503461093f578160031936011261093b576020905160128152f35b5080fd5b5080fd5b9050346109f357816003193601126109ef57359061095f610c9c565b90828452600560205261097760018286200154610cb6565b82845260056020528084209160018060a01b03169182855260205260ff8185205416156109a3575b8380f35b82845260056020528084208285526020528320600160ff1982541617905533917f2f8788117e7eff1d82e926ec794901d17c78024a50270940304540a733656f0d8480a438808061099f565b8280fd5b8280fd5b905034610a26576020600319360112610a225781602093600192358152600585522001549051908152f35b8280fd5b8280fd5b505034610a72576060600319360112610a6e57602090610a67610a4b610c82565b610a53610c9c565b60443591610a628333836112a2565b610fbc565b5160018152f35b5080fd5b5080fd5b505034610a995781600319360112610a95576020906002549051908152f35b5080fd5b5080fd5b505034610ad25780600319360112610ace57602090610ac7610abd610c82565b602435903361116f565b5160018152f35b5080fd5b5080fd5b91905034610bce5782600319360112610bca57805191836003549060019082821c928281168015610bc0575b6020958686108214610bad57508488529081600014610b855750600114610b43575b610b3f8686610b35828b0383610ee6565b5191829182610c56565b0390f35b929550600383528583205b828410610b6b5750505082610b3f94610b35928201019438610b24565b81818892959394955483858a010152019101929190610b4e565b9050610b3f9750610b359492508693915060ff191682840152151560051b8201019438610b24565b836022602492634e487b7160e01b835252fd5b93607f1693610b02565b8280fd5b8280fd5b849134610c2d576020600319360112610c29573563ffffffff60e01b8116809103610c255760209250637965db0b60e01b8114908115610c14575b5015158152f35b90506301ffc9a760e01b1483610c0d565b8280fd5b8280fd5b8280fd5b60005b838110610c45575050906000910152565b806020918301518185015201610c34565b60409160208252610c768151809281602086015260208686019101610c31565b601f8019910116010190565b6004359060018060a01b0382168203610c9757565b600080fd5b6024359060018060a01b0382168203610cb157565b600080fd5b600081815260209060058252604092838220338352835260ff848320541615610cdf5750505050565b610ce83361149c565b845191610cf483610eb6565b60428352848301936060368637835115610ea25760308553835190600191821015610e8e5790607860218601536041915b818311610e2057505050610dde57610d80938593610dc493610db5604894610dda995198857f416363657373436f6e74726f6c3a206163636f756e74200000000000000000008b978801528251928391603789019101610c31565b8401917f206973206d697373696e6720726f6c6520000000000000000000000000000000603784015251809386840190610c31565b01036028810185520183610ee6565b5191829162461bcd60e51b835260048301610c56565b0390fd5b60648486519062461bcd60e51b825280600483015260248201527f537472696e67733a20686578206c656e67746820696e73756666696369656e746044820152fd5b909192600f81166010811015610e7a576f181899199a1a9b1b9c1cb0b131b232b360811b901a610e508588611474565b5360041c928015610e6657600019019190610d25565b602482634e487b7160e01b81526011600452fd5b602483634e487b7160e01b81526032600452fd5b602490634e487b7160e01b81526032600452fd5b602490634e487b7160e01b81526032600452fd5b6080810190811060018060401b03821117610ed057604052565b634e487b7160e01b600052604160045260246000fd5b90601f8019910116810190811060018060401b03821117610f0657604052565b634e487b7160e01b600052604160045260246000fd5b906000918083526005602052604083209160018060a01b03169182845260205260ff604084205416610f4e575b505050565b8083526005602052604083208284526020526040832060ff1981541690557ff6391f5c32d9c69d2a47ea670b442974b53935d1edc7fd64eb21e047a839171b339380a4388080610f49565b91908201809211610fa657565b634e487b7160e01b600052601160045260246000fd5b60018060a01b03809116918215611105571691821561109b5760008281528060205260408120549180831061103157604082827fddf252ad1be2c89b69c2b068fc378daa952ba7f163c4a11628f55a4df523b3ef958760209652828652038282205586815220818154019055604051908152a3565b608460405162461bcd60e51b815260206004820152602660248201527f45524332303a207472616e7366657220616d6f756e742065786365656473206260448201527f616c616e636500000000000000000000000000000000000000000000000000006064820152fd5b608460405162461bcd60e51b815260206004820152602360248201527f45524332303a207472616e7366657220746f20746865207a65726f206164647260448201527f65737300000000000000000000000000000000000000000000000000000000006064820152fd5b608460405162461bcd60e51b815260206004820152602560248201527f45524332303a207472616e736665722066726f6d20746865207a65726f20616460448201527f64726573730000000000000000000000000000000000000000000000000000006064820152fd5b60018060a01b0380911691821561123957169182156111cf5760207f8c5be1e5ebec7d5bd14f71427d1e84f3dd0314c0f7b2291e5b200ac8c7c3b925918360005260018252604060002085600052825280604060002055604051908152a3565b608460405162461bcd60e51b815260206004820152602260248201527f45524332303a20617070726f766520746f20746865207a65726f20616464726560448201527f73730000000000000000000000000000000000000000000000000000000000006064820152fd5b608460405162461bcd60e51b8152602060048201526024808201527f45524332303a20617070726f76652066726f6d20746865207a65726f2061646460448201527f72657373000000000000000000000000000000000000000000000000000000006064820152fd5b9060018060a01b03808316600052600160205260406000209082166000526020526040600020549260001984036112da575b50505050565b8084106112f5576112ec93039161116f565b388080806112d4565b606460405162461bcd60e51b815260206004820152601d60248201527f45524332303a20696e73756666696369656e7420616c6c6f77616e63650000006044820152fd5b60018060a01b0316801561140a576000918183528260205260408320548181106113a057817fddf252ad1be2c89b69c2b068fc378daa952ba7f163c4a11628f55a4df523b3ef926020928587528684520360408620558060025403600255604051908152a3565b608460405162461bcd60e51b815260206004820152602260248201527f45524332303a206275726e20616d6f756e7420657863656564732062616c616e60448201527f63650000000000000000000000000000000000000000000000000000000000006064820152fd5b608460405162461bcd60e51b815260206004820152602160248201527f45524332303a206275726e2066726f6d20746865207a65726f2061646472657360448201527f73000000000000000000000000000000000000000000000000000000000000006064820152fd5b90815181101561148657602091010190565b634e487b7160e01b600052603260045260246000fd5b604051906060820182811060018060401b038211176115d557604052602a82526020820160403682378251156115bf576030905381516001908110156115a957607860218401536029905b80821161153b5750506114f75790565b606460405162461bcd60e51b815260206004820152602060248201527f537472696e67733a20686578206c656e67746820696e73756666696369656e746044820152fd5b9091600f81166010811015611594576f181899199a1a9b1b9c1cb0b131b232b360811b901a61156a8486611474565b5360041c91801561157f5760001901906114e7565b60246000634e487b7160e01b81526011600452fd5b60246000634e487b7160e01b81526032600452fd5b634e487b7160e01b600052603260045260246000fd5b634e487b7160e01b600052603260045260246000fd5b634e487b7160e01b600052604160045260246000fd",
    "linkReferences": {},
    "deployedLinkReferences": {},
    "default": {
        "_format": "hh-sol-artifact-1",
        "contractName": "EnergyToken",
        "sourceName": "contracts/EnergyToken.sol",
        "abi": [
            {
                "inputs": [],
                "stateMutability": "nonpayable",
                "type": "constructor"
            },
            {
                "anonymous": false,
                "inputs": [
                    {
                        "indexed": true,
                        "internalType": "address",
                        "name": "owner",
                        "type": "address"
                    },
                    {
                        "indexed": true,
                        "internalType": "address",
                        "name": "spender",
                        "type": "address"
                    },
                    {
                        "indexed": false,
                        "internalType": "uint256",
                        "name": "value",
                        "type": "uint256"
                    }
                ],
                "name": "Approval",
                "type": "event"
            },
            {
                "anonymous": false,
                "inputs": [
                    {
                        "indexed": true,
                        "internalType": "bytes32",
                        "name": "role",
                        "type": "bytes32"
                    },
                    {
                        "indexed": true,
                        "internalType": "bytes32",
                        "name": "previousAdminRole",
                        "type": "bytes32"
                    },
                    {
                        "indexed": true,
                        "internalType": "bytes32",
                        "name": "newAdminRole",
                        "type": "bytes32"
                    }
                ],
                "name": "RoleAdminChanged",
                "type": "event"
            },
            {
                "anonymous": false,
                "inputs": [
                    {
                        "indexed": true,
                        "internalType": "bytes32",
                        "name": "role",
                        "type": "bytes32"
                    },
                    {
                        "indexed": true,
                        "internalType": "address",
                        "name": "account",
                        "type": "address"
                    },
                    {
                        "indexed": true,
                        "internalType": "address",
                        "name": "sender",
                        "type": "address"
                    }
                ],
                "name": "RoleGranted",
                "type": "event"
            },
            {
                "anonymous": false,
                "inputs": [
                    {
                        "indexed": true,
                        "internalType": "bytes32",
                        "name": "role",
                        "type": "bytes32"
                    },
                    {
                        "indexed": true,
                        "internalType": "address",
                        "name": "account",
                        "type": "address"
                    },
                    {
                        "indexed": true,
                        "internalType": "address",
                        "name": "sender",
                        "type": "address"
                    }
                ],
                "name": "RoleRevoked",
                "type": "event"
            },
            {
                "anonymous": false,
                "inputs": [
                    {
                        "indexed": true,
                        "internalType": "address",
                        "name": "from",
                        "type": "address"
                    },
                    {
                        "indexed": true,
                        "internalType": "address",
                        "name": "to",
                        "type": "address"
                    },
                    {
                        "indexed": false,
                        "internalType": "uint256",
                        "name": "value",
                        "type": "uint256"
                    }
                ],
                "name": "Transfer",
                "type": "event"
            },
            {
                "inputs": [],
                "name": "DEFAULT_ADMIN_ROLE",
                "outputs": [
                    {
                        "internalType": "bytes32",
                        "name": "",
                        "type": "bytes32"
                    }
                ],
                "stateMutability": "view",
                "type": "function"
            },
            {
                "inputs": [],
                "name": "MINTER_ROLE",
                "outputs": [
                    {
                        "internalType": "bytes32",
                        "name": "",
                        "type": "bytes32"
                    }
                ],
                "stateMutability": "view",
                "type": "function"
            },
            {
                "inputs": [
                    {
                        "internalType": "address",
                        "name": "owner",
                        "type": "address"
                    },
                    {
                        "internalType": "address",
                        "name": "spender",
                        "type": "address"
                    }
                ],
                "name": "allowance",
                "outputs": [
                    {
                        "internalType": "uint256",
                        "name": "",
                        "type": "uint256"
                    }
                ],
                "stateMutability": "view",
                "type": "function"
            },
            {
                "inputs": [
                    {
                        "internalType": "address",
                        "name": "spender",
                        "type": "address"
                    },
                    {
                        "internalType": "uint256",
                        "name": "amount",
                        "type": "uint256"
                    }
                ],
                "name": "approve",
                "outputs": [
                    {
                        "internalType": "bool",
                        "name": "",
                        "type": "bool"
                    }
                ],
                "stateMutability": "nonpayable",
                "type": "function"
            },
            {
                "inputs": [
                    {
                        "internalType": "address",
                        "name": "account",
                        "type": "address"
                    }
                ],
                "name": "balanceOf",
                "outputs": [
                    {
                        "internalType": "uint256",
                        "name": "",
                        "type": "uint256"
                    }
                ],
                "stateMutability": "view",
                "type": "function"
            },
            {
                "inputs": [
                    {
                        "internalType": "uint256",
                        "name": "amount",
                        "type": "uint256"
                    }
                ],
                "name": "burn",
                "outputs": [],
                "stateMutability": "nonpayable",
                "type": "function"
            },
            {
                "inputs": [
                    {
                        "internalType": "address",
                        "name": "account",
                        "type": "address"
                    },
                    {
                        "internalType": "uint256",
                        "name": "amount",
                        "type": "uint256"
                    }
                ],
                "name": "burnFrom",
                "outputs": [],
                "stateMutability": "nonpayable",
                "type": "function"
            },
            {
                "inputs": [],
                "name": "decimals",
                "outputs": [
                    {
                        "internalType": "uint8",
                        "name": "",
                        "type": "uint8"
                    }
                ],
                "stateMutability": "view",
                "type": "function"
            },
            {
                "inputs": [
                    {
                        "internalType": "address",
                        "name": "spender",
                        "type": "address"
                    },
                    {
                        "internalType": "uint256",
                        "name": "subtractedValue",
                        "type": "uint256"
                    }
                ],
                "name": "decreaseAllowance",
                "outputs": [
                    {
                        "internalType": "bool",
                        "name": "",
                        "type": "bool"
                    }
                ],
                "stateMutability": "nonpayable",
                "type": "function"
            },
            {
                "inputs": [
                    {
                        "internalType": "bytes32",
                        "name": "role",
                        "type": "bytes32"
                    }
                ],
                "name": "getRoleAdmin",
                "outputs": [
                    {
                        "internalType": "bytes32",
                        "name": "",
                        "type": "bytes32"
                    }
                ],
                "stateMutability": "view",
                "type": "function"
            },
            {
                "inputs": [
                    {
                        "internalType": "bytes32",
                        "name": "role",
                        "type": "bytes32"
                    },
                    {
                        "internalType": "address",
                        "name": "account",
                        "type": "address"
                    }
                ],
                "name": "grantRole",
                "outputs": [],
                "stateMutability": "nonpayable",
                "type": "function"
            },
            {
                "inputs": [
                    {
                        "internalType": "bytes32",
                        "name": "role",
                        "type": "bytes32"
                    },
                    {
                        "internalType": "address",
                        "name": "account",
                        "type": "address"
                    }
                ],
                "name": "hasRole",
                "outputs": [
                    {
                        "internalType": "bool",
                        "name": "",
                        "type": "bool"
                    }
                ],
                "stateMutability": "view",
                "type": "function"
            },
            {
                "inputs": [
                    {
                        "internalType": "address",
                        "name": "spender",
                        "type": "address"
                    },
                    {
                        "internalType": "uint256",
                        "name": "addedValue",
                        "type": "uint256"
                    }
                ],
                "name": "increaseAllowance",
                "outputs": [
                    {
                        "internalType": "bool",
                        "name": "",
                        "type": "bool"
                    }
                ],
                "stateMutability": "nonpayable",
                "type": "function"
            },
            {
                "inputs": [
                    {
                        "internalType": "address",
                        "name": "to",
                        "type": "address"
                    },
                    {
                        "internalType": "uint256",
                        "name": "amount",
                        "type": "uint256"
                    }
                ],
                "name": "mint",
                "outputs": [],
                "stateMutability": "nonpayable",
                "type": "function"
            },
            {
                "inputs": [],
                "name": "name",
                "outputs": [
                    {
                        "internalType": "string",
                        "name": "",
                        "type": "string"
                    }
                ],
                "stateMutability": "view",
                "type": "function"
            },
            {
                "inputs": [],
                "name": "owner",
                "outputs": [
                    {
                        "internalType": "address",
                        "name": "",
                        "type": "address"
                    }
                ],
                "stateMutability": "view",
                "type": "function"
            },
            {
                "inputs": [
                    {
                        "internalType": "bytes32",
                        "name": "role",
                        "type": "bytes32"
                    },
                    {
                        "internalType": "address",
                        "name": "account",
                        "type": "address"
                    }
                ],
                "name": "renounceRole",
                "outputs": [],
                "stateMutability": "nonpayable",
                "type": "function"
            },
            {
                "inputs": [
                    {
                        "internalType": "bytes32",
                        "name": "role",
                        "type": "bytes32"
                    },
                    {
                        "internalType": "address",
                        "name": "account",
                        "type": "address"
                    }
                ],
                "name": "revokeRole",
                "outputs": [],
                "stateMutability": "nonpayable",
                "type": "function"
            },
            {
                "inputs": [
                    {
                        "internalType": "bytes4",
                        "name": "interfaceId",
                        "type": "bytes4"
                    }
                ],
                "name": "supportsInterface",
                "outputs": [
                    {
                        "internalType": "bool",
                        "name": "",
                        "type": "bool"
                    }
                ],
                "stateMutability": "view",
                "type": "function"
            },
            {
                "inputs": [],
                "name": "symbol",
                "outputs": [
                    {
                        "internalType": "string",
                        "name": "",
                        "type": "string"
                    }
                ],
                "stateMutability": "view",
                "type": "function"
            },
            {
                "inputs": [],
                "name": "totalSupply",
                "outputs": [
                    {
                        "internalType": "uint256",
                        "name": "",
                        "type": "uint256"
                    }
                ],
                "stateMutability": "view",
                "type": "function"
            },
            {
                "inputs": [
                    {
                        "internalType": "address",
                        "name": "to",
                        "type": "address"
                    },
                    {
                        "internalType": "uint256",
                        "name": "amount",
                        "type": "uint256"
                    }
                ],
                "name": "transfer",
                "outputs": [
                    {
                        "internalType": "bool",
                        "name": "",
                        "type": "bool"
                    }
                ],
                "stateMutability": "nonpayable",
                "type": "function"
            },
            {
                "inputs": [
                    {
                        "internalType": "address",
                        "name": "from",
                        "type": "address"
                    },
                    {
                        "internalType": "address",
                        "name": "to",
                        "type": "address"
                    },
                    {
                        "internalType": "uint256",
                        "name": "amount",
                        "type": "uint256"
                    }
                ],
                "name": "transferFrom",
                "outputs": [
                    {
                        "internalType": "bool",
                        "name": "",
                        "type": "bool"
                    }
                ],
                "stateMutability": "nonpayable",
                "type": "function"
            }
        ],
        "bytecode": "0x608034620004a95760408082019160018060401b03928181108482111762000493578252600b81526020907f456e65726779546f6b656e00000000000000000000000000000000000000000082820152825193838501858110828211176200047d5784526003908186527f45544b00000000000000000000000000000000000000000000000000000000008487015282519181831162000467578054926001948585811c951680156200045c575b8786101462000446578190601f95868111620003eb575b5087908683116001146200037b576000926200036e575b505081861b9160001990841b1c19161781555b8651918211620003585760049283548581811c911680156200034d575b878210146200033857818111620002eb575b50859083116001146200027e578293949596976000936200026f575b505082851b92600019911b1c19161790555b60008052600582528260002033600052825260ff8360002054161562000221575b7f9f2df0fed2c77648de5860a4cc508cd0818c85b8b8a1ab4ceeef8d981c8956a69182600052600581528360002033600052815260ff84600020541615620001cf575b833360018060a01b03196006541617600655516115eb9081620004af8239f35b826000526005815283600020903360005252826000209060ff19825416179055339033907f2f8788117e7eff1d82e926ec794901d17c78024a50270940304540a733656f0d600080a4388080620001af565b600080526005825282600020336000528252826000208160ff19825416179055333360007f2f8788117e7eff1d82e926ec794901d17c78024a50270940304540a733656f0d8180a46200016c565b90919250015190388062000139565b90601f1983169184600052866000209260005b818110620002d4575098848798999a97969710620002b9575b50505050811b0190556200014b565b01519060f884600019921b161c1916905538808080620002aa565b919388888192878e01518155019501920162000291565b84600052866000208280860160051c8201928987106200032e575b908892910160051c01915b828110620003215750506200011d565b6000815501869062000311565b9250819262000306565b602285634e487b7160e01b6000525260246000fd5b90607f16906200010b565b634e487b7160e01b600052604160045260246000fd5b90915001513880620000db565b90879350601f1983169185600052896000209260005b8b828210620003cb5750508411620003b2575b505050811b018155620000ee565b015160001960f884871b161c19169055388080620003a4565b919293959682919587860151815501950193019089959493929162000391565b90915083600052876000208680850160051c8201928a86106200043c575b918991869594930160051c01915b82811062000427575050620000c4565b90919293506000815501908784939262000417565b9250819262000409565b634e487b7160e01b600052602260045260246000fd5b94607f1694620000ad565b634e487b7160e01b600052604160045260246000fd5b634e487b7160e01b600052604160045260246000fd5b634e487b7160e01b600052604160045260246000fd5b600080fdfe6080604081815260049182361015610017575b600080fd5b600092833560e01c91826301ffc9a714610bd25750816306fdde0314610ad6578163095ea7b314610a9d57816318160ddd14610a7657816323b872dd14610a2a578163248a9ca3146109f75781632f2ff15d14610943578163313ce5671461091f57816336568abe14610875578163395093511461081857816340c10f191461053e57816342966c681461051557816370a08231146104d857816379cc67901461049e5781638da5cb5b1461046f57816391d148541461042257816395d89b4114610325578163a217fddf14610301578163a457c2d714610236578163a9059cbb146101fd578163d5391393146101ba578163d547741f14610173575063dd62ed3e146101245780610012565b3461016f578060031936011261016b5780602092610140610c82565b610148610c9c565b9060018060a01b0380911683526001865283832091168252845220549051908152f35b5080fd5b5080fd5b919050346101b657806003193601126101b2576101af91356101aa6001610198610c9c565b93838752600560205286200154610cb6565b610f1c565b80f35b8280fd5b8280fd5b5050346101f957816003193601126101f557602090517f9f2df0fed2c77648de5860a4cc508cd0818c85b8b8a1ab4ceeef8d981c8956a68152f35b5080fd5b5080fd5b505034610232578060031936011261022e5760209061022761021d610c82565b6024359033610fbc565b5160018152f35b5080fd5b5080fd5b905082346102fe57826003193601126102fb57610251610c82565b918360243592338152600160205281812060018060a01b03861682526020522054908282106102925760208561028b86868603903361116f565b5160018152f35b608490602086519162461bcd60e51b8352820152602560248201527f45524332303a2064656372656173656420616c6c6f77616e63652062656c6f7760448201527f207a65726f0000000000000000000000000000000000000000000000000000006064820152fd5b80fd5b80fd5b505034610321578160031936011261031d579060209151908152f35b5080fd5b5080fd5b83833461041e578160031936011261041a57805191809380549160019083821c92828516948515610410575b60209586861081146103fd5785895290816000146103d35750600114610391575b61038d8787610383828c0383610ee6565b5191829182610c56565b0390f35b9080949750528583205b8284106103b9575050508261038d9461038392820101948680610372565b81818892959394955483858a01015201910192919061039b565b91505061038d97506103839492508693915060ff191682840152151560051b820101948680610372565b602484602285634e487b7160e01b835252fd5b93607f1693610351565b5080fd5b5080fd5b90503461046b5781600319360112610467578160209360ff92610443610c9c565b90358252600586528282209060018060a01b03168252855220541690519015158152f35b8280fd5b8280fd5b50503461049a57816003193601126104965760209060018060a01b03600654169051908152f35b5080fd5b5080fd5b5050346104d4576003193601126104d1576104ce6104ba610c82565b602435906104c98233836112a2565b611339565b80f35b80fd5b5080fd5b50503461051157602060031936011261050d578060209260018060a01b036104fe610c82565b16815280845220549051908152f35b5080fd5b5080fd5b83903461053a57602060031936011261053657610533903533611339565b80f35b5080fd5b5080fd5b905034610814578160031936011261081057610558610c82565b906024928335917f9f2df0fed2c77648de5860a4cc508cd0818c85b8b8a1ab4ceeef8d981c8956a69384875260209460058652838820338952865260ff84892054161561063c575060018060a01b03169485156105fc575050918185936105e27fddf252ad1be2c89b69c2b068fc378daa952ba7f163c4a11628f55a4df523b3ef94600254610f99565b60025585855284835280852082815401905551908152a380f35b601f9085606494519362461bcd60e51b85528401528201527f45524332303a206d696e7420746f20746865207a65726f2061646472657373006044820152fd5b85915086889161064b3361149c565b909186519261065984610eb6565b604284528584019460603687378451156107fe57603086538451906001918210156107ec5790607860218701536041915b81831161078357505050610742575061073e93869361072a9361071b6048946106e69a519a857f416363657373436f6e74726f6c3a206163636f756e74200000000000000000008d978801528251928391603789019101610c31565b8401917f206973206d697373696e6720726f6c6520000000000000000000000000000000603784015251809386840190610c31565b01036028810187520185610ee6565b5192839262461bcd60e51b84528301610c56565b0390fd5b9250505081606494519362461bcd60e51b85528401528201527f537472696e67733a20686578206c656e67746820696e73756666696369656e746044820152fd5b909192600f811660108110156107da576f181899199a1a9b1b9c1cb0b131b232b360811b901a6107b38589611474565b53891c9280156107c85760001901919061068a565b848260118c634e487b7160e01b835252fd5b858360328d634e487b7160e01b835252fd5b839060328a634e487b7160e01b835252fd5b9050603287634e487b7160e01b835252fd5b8280fd5b8280fd5b505034610871578060031936011261086d5761086660209261085f61083b610c82565b913381526001865284812060018060a01b0384168252865284602435912054610f99565b903361116f565b5160018152f35b5080fd5b5080fd5b8391503461091b578260031936011261091757610890610c9c565b903360018060a01b038316036108ae57906108ab9135610f1c565b80f35b608490602085519162461bcd60e51b8352820152602f60248201527f416363657373436f6e74726f6c3a2063616e206f6e6c792072656e6f756e636560448201527f20726f6c657320666f722073656c6600000000000000000000000000000000006064820152fd5b5080fd5b5080fd5b50503461093f578160031936011261093b576020905160128152f35b5080fd5b5080fd5b9050346109f357816003193601126109ef57359061095f610c9c565b90828452600560205261097760018286200154610cb6565b82845260056020528084209160018060a01b03169182855260205260ff8185205416156109a3575b8380f35b82845260056020528084208285526020528320600160ff1982541617905533917f2f8788117e7eff1d82e926ec794901d17c78024a50270940304540a733656f0d8480a438808061099f565b8280fd5b8280fd5b905034610a26576020600319360112610a225781602093600192358152600585522001549051908152f35b8280fd5b8280fd5b505034610a72576060600319360112610a6e57602090610a67610a4b610c82565b610a53610c9c565b60443591610a628333836112a2565b610fbc565b5160018152f35b5080fd5b5080fd5b505034610a995781600319360112610a95576020906002549051908152f35b5080fd5b5080fd5b505034610ad25780600319360112610ace57602090610ac7610abd610c82565b602435903361116f565b5160018152f35b5080fd5b5080fd5b91905034610bce5782600319360112610bca57805191836003549060019082821c928281168015610bc0575b6020958686108214610bad57508488529081600014610b855750600114610b43575b610b3f8686610b35828b0383610ee6565b5191829182610c56565b0390f35b929550600383528583205b828410610b6b5750505082610b3f94610b35928201019438610b24565b81818892959394955483858a010152019101929190610b4e565b9050610b3f9750610b359492508693915060ff191682840152151560051b8201019438610b24565b836022602492634e487b7160e01b835252fd5b93607f1693610b02565b8280fd5b8280fd5b849134610c2d576020600319360112610c29573563ffffffff60e01b8116809103610c255760209250637965db0b60e01b8114908115610c14575b5015158152f35b90506301ffc9a760e01b1483610c0d565b8280fd5b8280fd5b8280fd5b60005b838110610c45575050906000910152565b806020918301518185015201610c34565b60409160208252610c768151809281602086015260208686019101610c31565b601f8019910116010190565b6004359060018060a01b0382168203610c9757565b600080fd5b6024359060018060a01b0382168203610cb157565b600080fd5b600081815260209060058252604092838220338352835260ff848320541615610cdf5750505050565b610ce83361149c565b845191610cf483610eb6565b60428352848301936060368637835115610ea25760308553835190600191821015610e8e5790607860218601536041915b818311610e2057505050610dde57610d80938593610dc493610db5604894610dda995198857f416363657373436f6e74726f6c3a206163636f756e74200000000000000000008b978801528251928391603789019101610c31565b8401917f206973206d697373696e6720726f6c6520000000000000000000000000000000603784015251809386840190610c31565b01036028810185520183610ee6565b5191829162461bcd60e51b835260048301610c56565b0390fd5b60648486519062461bcd60e51b825280600483015260248201527f537472696e67733a20686578206c656e67746820696e73756666696369656e746044820152fd5b909192600f81166010811015610e7a576f181899199a1a9b1b9c1cb0b131b232b360811b901a610e508588611474565b5360041c928015610e6657600019019190610d25565b602482634e487b7160e01b81526011600452fd5b602483634e487b7160e01b81526032600452fd5b602490634e487b7160e01b81526032600452fd5b602490634e487b7160e01b81526032600452fd5b6080810190811060018060401b03821117610ed057604052565b634e487b7160e01b600052604160045260246000fd5b90601f8019910116810190811060018060401b03821117610f0657604052565b634e487b7160e01b600052604160045260246000fd5b906000918083526005602052604083209160018060a01b03169182845260205260ff604084205416610f4e575b505050565b8083526005602052604083208284526020526040832060ff1981541690557ff6391f5c32d9c69d2a47ea670b442974b53935d1edc7fd64eb21e047a839171b339380a4388080610f49565b91908201809211610fa657565b634e487b7160e01b600052601160045260246000fd5b60018060a01b03809116918215611105571691821561109b5760008281528060205260408120549180831061103157604082827fddf252ad1be2c89b69c2b068fc378daa952ba7f163c4a11628f55a4df523b3ef958760209652828652038282205586815220818154019055604051908152a3565b608460405162461bcd60e51b815260206004820152602660248201527f45524332303a207472616e7366657220616d6f756e742065786365656473206260448201527f616c616e636500000000000000000000000000000000000000000000000000006064820152fd5b608460405162461bcd60e51b815260206004820152602360248201527f45524332303a207472616e7366657220746f20746865207a65726f206164647260448201527f65737300000000000000000000000000000000000000000000000000000000006064820152fd5b608460405162461bcd60e51b815260206004820152602560248201527f45524332303a207472616e736665722066726f6d20746865207a65726f20616460448201527f64726573730000000000000000000000000000000000000000000000000000006064820152fd5b60018060a01b0380911691821561123957169182156111cf5760207f8c5be1e5ebec7d5bd14f71427d1e84f3dd0314c0f7b2291e5b200ac8c7c3b925918360005260018252604060002085600052825280604060002055604051908152a3565b608460405162461bcd60e51b815260206004820152602260248201527f45524332303a20617070726f766520746f20746865207a65726f20616464726560448201527f73730000000000000000000000000000000000000000000000000000000000006064820152fd5b608460405162461bcd60e51b8152602060048201526024808201527f45524332303a20617070726f76652066726f6d20746865207a65726f2061646460448201527f72657373000000000000000000000000000000000000000000000000000000006064820152fd5b9060018060a01b03808316600052600160205260406000209082166000526020526040600020549260001984036112da575b50505050565b8084106112f5576112ec93039161116f565b388080806112d4565b606460405162461bcd60e51b815260206004820152601d60248201527f45524332303a20696e73756666696369656e7420616c6c6f77616e63650000006044820152fd5b60018060a01b0316801561140a576000918183528260205260408320548181106113a057817fddf252ad1be2c89b69c2b068fc378daa952ba7f163c4a11628f55a4df523b3ef926020928587528684520360408620558060025403600255604051908152a3565b608460405162461bcd60e51b815260206004820152602260248201527f45524332303a206275726e20616d6f756e7420657863656564732062616c616e60448201527f63650000000000000000000000000000000000000000000000000000000000006064820152fd5b608460405162461bcd60e51b815260206004820152602160248201527f45524332303a206275726e2066726f6d20746865207a65726f2061646472657360448201527f73000000000000000000000000000000000000000000000000000000000000006064820152fd5b90815181101561148657602091010190565b634e487b7160e01b600052603260045260246000fd5b604051906060820182811060018060401b038211176115d557604052602a82526020820160403682378251156115bf576030905381516001908110156115a957607860218401536029905b80821161153b5750506114f75790565b606460405162461bcd60e51b815260206004820152602060248201527f537472696e67733a20686578206c656e67746820696e73756666696369656e746044820152fd5b9091600f81166010811015611594576f181899199a1a9b1b9c1cb0b131b232b360811b901a61156a8486611474565b5360041c91801561157f5760001901906114e7565b60246000634e487b7160e01b81526011600452fd5b60246000634e487b7160e01b81526032600452fd5b634e487b7160e01b600052603260045260246000fd5b634e487b7160e01b600052603260045260246000fd5b634e487b7160e01b600052604160045260246000fd",
        "deployedBytecode": "0x6080604081815260049182361015610017575b600080fd5b600092833560e01c91826301ffc9a714610bd25750816306fdde0314610ad6578163095ea7b314610a9d57816318160ddd14610a7657816323b872dd14610a2a578163248a9ca3146109f75781632f2ff15d14610943578163313ce5671461091f57816336568abe14610875578163395093511461081857816340c10f191461053e57816342966c681461051557816370a08231146104d857816379cc67901461049e5781638da5cb5b1461046f57816391d148541461042257816395d89b4114610325578163a217fddf14610301578163a457c2d714610236578163a9059cbb146101fd578163d5391393146101ba578163d547741f14610173575063dd62ed3e146101245780610012565b3461016f578060031936011261016b5780602092610140610c82565b610148610c9c565b9060018060a01b0380911683526001865283832091168252845220549051908152f35b5080fd5b5080fd5b919050346101b657806003193601126101b2576101af91356101aa6001610198610c9c565b93838752600560205286200154610cb6565b610f1c565b80f35b8280fd5b8280fd5b5050346101f957816003193601126101f557602090517f9f2df0fed2c77648de5860a4cc508cd0818c85b8b8a1ab4ceeef8d981c8956a68152f35b5080fd5b5080fd5b505034610232578060031936011261022e5760209061022761021d610c82565b6024359033610fbc565b5160018152f35b5080fd5b5080fd5b905082346102fe57826003193601126102fb57610251610c82565b918360243592338152600160205281812060018060a01b03861682526020522054908282106102925760208561028b86868603903361116f565b5160018152f35b608490602086519162461bcd60e51b8352820152602560248201527f45524332303a2064656372656173656420616c6c6f77616e63652062656c6f7760448201527f207a65726f0000000000000000000000000000000000000000000000000000006064820152fd5b80fd5b80fd5b505034610321578160031936011261031d579060209151908152f35b5080fd5b5080fd5b83833461041e578160031936011261041a57805191809380549160019083821c92828516948515610410575b60209586861081146103fd5785895290816000146103d35750600114610391575b61038d8787610383828c0383610ee6565b5191829182610c56565b0390f35b9080949750528583205b8284106103b9575050508261038d9461038392820101948680610372565b81818892959394955483858a01015201910192919061039b565b91505061038d97506103839492508693915060ff191682840152151560051b820101948680610372565b602484602285634e487b7160e01b835252fd5b93607f1693610351565b5080fd5b5080fd5b90503461046b5781600319360112610467578160209360ff92610443610c9c565b90358252600586528282209060018060a01b03168252855220541690519015158152f35b8280fd5b8280fd5b50503461049a57816003193601126104965760209060018060a01b03600654169051908152f35b5080fd5b5080fd5b5050346104d4576003193601126104d1576104ce6104ba610c82565b602435906104c98233836112a2565b611339565b80f35b80fd5b5080fd5b50503461051157602060031936011261050d578060209260018060a01b036104fe610c82565b16815280845220549051908152f35b5080fd5b5080fd5b83903461053a57602060031936011261053657610533903533611339565b80f35b5080fd5b5080fd5b905034610814578160031936011261081057610558610c82565b906024928335917f9f2df0fed2c77648de5860a4cc508cd0818c85b8b8a1ab4ceeef8d981c8956a69384875260209460058652838820338952865260ff84892054161561063c575060018060a01b03169485156105fc575050918185936105e27fddf252ad1be2c89b69c2b068fc378daa952ba7f163c4a11628f55a4df523b3ef94600254610f99565b60025585855284835280852082815401905551908152a380f35b601f9085606494519362461bcd60e51b85528401528201527f45524332303a206d696e7420746f20746865207a65726f2061646472657373006044820152fd5b85915086889161064b3361149c565b909186519261065984610eb6565b604284528584019460603687378451156107fe57603086538451906001918210156107ec5790607860218701536041915b81831161078357505050610742575061073e93869361072a9361071b6048946106e69a519a857f416363657373436f6e74726f6c3a206163636f756e74200000000000000000008d978801528251928391603789019101610c31565b8401917f206973206d697373696e6720726f6c6520000000000000000000000000000000603784015251809386840190610c31565b01036028810187520185610ee6565b5192839262461bcd60e51b84528301610c56565b0390fd5b9250505081606494519362461bcd60e51b85528401528201527f537472696e67733a20686578206c656e67746820696e73756666696369656e746044820152fd5b909192600f811660108110156107da576f181899199a1a9b1b9c1cb0b131b232b360811b901a6107b38589611474565b53891c9280156107c85760001901919061068a565b848260118c634e487b7160e01b835252fd5b858360328d634e487b7160e01b835252fd5b839060328a634e487b7160e01b835252fd5b9050603287634e487b7160e01b835252fd5b8280fd5b8280fd5b505034610871578060031936011261086d5761086660209261085f61083b610c82565b913381526001865284812060018060a01b0384168252865284602435912054610f99565b903361116f565b5160018152f35b5080fd5b5080fd5b8391503461091b578260031936011261091757610890610c9c565b903360018060a01b038316036108ae57906108ab9135610f1c565b80f35b608490602085519162461bcd60e51b8352820152602f60248201527f416363657373436f6e74726f6c3a2063616e206f6e6c792072656e6f756e636560448201527f20726f6c657320666f722073656c6600000000000000000000000000000000006064820152fd5b5080fd5b5080fd5b50503461093f578160031936011261093b576020905160128152f35b5080fd5b5080fd5b9050346109f357816003193601126109ef57359061095f610c9c565b90828452600560205261097760018286200154610cb6565b82845260056020528084209160018060a01b03169182855260205260ff8185205416156109a3575b8380f35b82845260056020528084208285526020528320600160ff1982541617905533917f2f8788117e7eff1d82e926ec794901d17c78024a50270940304540a733656f0d8480a438808061099f565b8280fd5b8280fd5b905034610a26576020600319360112610a225781602093600192358152600585522001549051908152f35b8280fd5b8280fd5b505034610a72576060600319360112610a6e57602090610a67610a4b610c82565b610a53610c9c565b60443591610a628333836112a2565b610fbc565b5160018152f35b5080fd5b5080fd5b505034610a995781600319360112610a95576020906002549051908152f35b5080fd5b5080fd5b505034610ad25780600319360112610ace57602090610ac7610abd610c82565b602435903361116f565b5160018152f35b5080fd5b5080fd5b91905034610bce5782600319360112610bca57805191836003549060019082821c928281168015610bc0575b6020958686108214610bad57508488529081600014610b855750600114610b43575b610b3f8686610b35828b0383610ee6565b5191829182610c56565b0390f35b929550600383528583205b828410610b6b5750505082610b3f94610b35928201019438610b24565b81818892959394955483858a010152019101929190610b4e565b9050610b3f9750610b359492508693915060ff191682840152151560051b8201019438610b24565b836022602492634e487b7160e01b835252fd5b93607f1693610b02565b8280fd5b8280fd5b849134610c2d576020600319360112610c29573563ffffffff60e01b8116809103610c255760209250637965db0b60e01b8114908115610c14575b5015158152f35b90506301ffc9a760e01b1483610c0d565b8280fd5b8280fd5b8280fd5b60005b838110610c45575050906000910152565b806020918301518185015201610c34565b60409160208252610c768151809281602086015260208686019101610c31565b601f8019910116010190565b6004359060018060a01b0382168203610c9757565b600080fd5b6024359060018060a01b0382168203610cb157565b600080fd5b600081815260209060058252604092838220338352835260ff848320541615610cdf5750505050565b610ce83361149c565b845191610cf483610eb6565b60428352848301936060368637835115610ea25760308553835190600191821015610e8e5790607860218601536041915b818311610e2057505050610dde57610d80938593610dc493610db5604894610dda995198857f416363657373436f6e74726f6c3a206163636f756e74200000000000000000008b978801528251928391603789019101610c31565b8401917f206973206d697373696e6720726f6c6520000000000000000000000000000000603784015251809386840190610c31565b01036028810185520183610ee6565b5191829162461bcd60e51b835260048301610c56565b0390fd5b60648486519062461bcd60e51b825280600483015260248201527f537472696e67733a20686578206c656e67746820696e73756666696369656e746044820152fd5b909192600f81166010811015610e7a576f181899199a1a9b1b9c1cb0b131b232b360811b901a610e508588611474565b5360041c928015610e6657600019019190610d25565b602482634e487b7160e01b81526011600452fd5b602483634e487b7160e01b81526032600452fd5b602490634e487b7160e01b81526032600452fd5b602490634e487b7160e01b81526032600452fd5b6080810190811060018060401b03821117610ed057604052565b634e487b7160e01b600052604160045260246000fd5b90601f8019910116810190811060018060401b03821117610f0657604052565b634e487b7160e01b600052604160045260246000fd5b906000918083526005602052604083209160018060a01b03169182845260205260ff604084205416610f4e575b505050565b8083526005602052604083208284526020526040832060ff1981541690557ff6391f5c32d9c69d2a47ea670b442974b53935d1edc7fd64eb21e047a839171b339380a4388080610f49565b91908201809211610fa657565b634e487b7160e01b600052601160045260246000fd5b60018060a01b03809116918215611105571691821561109b5760008281528060205260408120549180831061103157604082827fddf252ad1be2c89b69c2b068fc378daa952ba7f163c4a11628f55a4df523b3ef958760209652828652038282205586815220818154019055604051908152a3565b608460405162461bcd60e51b815260206004820152602660248201527f45524332303a207472616e7366657220616d6f756e742065786365656473206260448201527f616c616e636500000000000000000000000000000000000000000000000000006064820152fd5b608460405162461bcd60e51b815260206004820152602360248201527f45524332303a207472616e7366657220746f20746865207a65726f206164647260448201527f65737300000000000000000000000000000000000000000000000000000000006064820152fd5b608460405162461bcd60e51b815260206004820152602560248201527f45524332303a207472616e736665722066726f6d20746865207a65726f20616460448201527f64726573730000000000000000000000000000000000000000000000000000006064820152fd5b60018060a01b0380911691821561123957169182156111cf5760207f8c5be1e5ebec7d5bd14f71427d1e84f3dd0314c0f7b2291e5b200ac8c7c3b925918360005260018252604060002085600052825280604060002055604051908152a3565b608460405162461bcd60e51b815260206004820152602260248201527f45524332303a20617070726f766520746f20746865207a65726f20616464726560448201527f73730000000000000000000000000000000000000000000000000000000000006064820152fd5b608460405162461bcd60e51b8152602060048201526024808201527f45524332303a20617070726f76652066726f6d20746865207a65726f2061646460448201527f72657373000000000000000000000000000000000000000000000000000000006064820152fd5b9060018060a01b03808316600052600160205260406000209082166000526020526040600020549260001984036112da575b50505050565b8084106112f5576112ec93039161116f565b388080806112d4565b606460405162461bcd60e51b815260206004820152601d60248201527f45524332303a20696e73756666696369656e7420616c6c6f77616e63650000006044820152fd5b60018060a01b0316801561140a576000918183528260205260408320548181106113a057817fddf252ad1be2c89b69c2b068fc378daa952ba7f163c4a11628f55a4df523b3ef926020928587528684520360408620558060025403600255604051908152a3565b608460405162461bcd60e51b815260206004820152602260248201527f45524332303a206275726e20616d6f756e7420657863656564732062616c616e60448201527f63650000000000000000000000000000000000000000000000000000000000006064820152fd5b608460405162461bcd60e51b815260206004820152602160248201527f45524332303a206275726e2066726f6d20746865207a65726f2061646472657360448201527f73000000000000000000000000000000000000000000000000000000000000006064820152fd5b90815181101561148657602091010190565b634e487b7160e01b600052603260045260246000fd5b604051906060820182811060018060401b038211176115d557604052602a82526020820160403682378251156115bf576030905381516001908110156115a957607860218401536029905b80821161153b5750506114f75790565b606460405162461bcd60e51b815260206004820152602060248201527f537472696e67733a20686578206c656e67746820696e73756666696369656e746044820152fd5b9091600f81166010811015611594576f181899199a1a9b1b9c1cb0b131b232b360811b901a61156a8486611474565b5360041c91801561157f5760001901906114e7565b60246000634e487b7160e01b81526011600452fd5b60246000634e487b7160e01b81526032600452fd5b634e487b7160e01b600052603260045260246000fd5b634e487b7160e01b600052603260045260246000fd5b634e487b7160e01b600052604160045260246000fd",
        "linkReferences": {},
        "deployedLinkReferences": {}
    }
}